:020000040800F2
:10000000000200206D040008F50400080505000842
:10001000E9060008F90600080907000800000000CA
:1000200000000000000000000000000005040008BF
:100030001907000800000000E9030008B5010008E6
:10004000B5010008B5010008B50100083524000815
:10005000B5010008B5010008A11C0008A11C00089A
:10006000A11C0008A11C0008A11C0008B501000883
:10007000B5010008B5010008B5010008B501000888
:10008000B5010008B5010008B5010008B501000878
:10009000B5010008B5010008B5010008A11C000861
:1000A000B5010008B5010008B50100087D29000868
:1000B000B5010008B5010008B5010008B501000848
:1000C00035FB0008B5010008A9FB0008B5010008D0
:1000D000B501000805280008452800088528000803
:1000E000A11C0008D5230008B5010008B5010008CF
:1000F000B5010008B5010008B5010008B501000808
:10010000B5010008B5010008B5010008B5010008F7
:10011000B5010008B5010008B5010008B5010008E7
:10012000B501000800F008BB704700BF70B50C4671
:10013000064600F087F90B4B0B4A1D682C4494428D
:1001400007D80A4A944204D31C6000F083F9284679
:1001500070BD0C234FF0FF35336000F07BF928466B
:1001600070BD00BF0002002000800020483F00203A
:100170001946104600F0ECBA1946104600F0F0BAE5
:10018000132303604FF0FF30704700BF1323036059
:100190004FF0FF30704700BF132303604FF0FF3074
:1001A000704700BF0346002202298CBF00200120B7
:1001B0001A60704700F0B8BA70B50024104A114BAD
:1001C000114E10681C60356800F0A0F80F4B53F812
:1001D00020301B68A3F1080295420FD025B1297980
:1001E000092904BF0A212971092033F9024C084961
:1001F00003F8040C012032600C8070BD204670BDF5
:10020000600600206C0600206806002074060020AE
:10021000640600200829F0B4037919D9082B14D8F2
:1002200042791C4C00F1080654F8223053B31B6885
:10023000836054F822301E6047790123164DBB407D
:100240002F6844F822603B432B600171F0BC70477B
:10025000082BFAD942790F4C54F822304BB11D6863
:10026000AB4212D02A681A60427954F82230002B2F
:10027000EBD10123084C03FA02F2236823EA0203BC
:100280002360E2E717468660D7E7002344F8223070
:10029000EFE700BF740600206006002008B50A4B97
:1002A0001B681A79082A02D95B79834206D900F0C3
:1002B000D5F820B10122054B1A6008BD08BDBDE884
:1002C000084000F089B800BF680600206C060020D6
:1002D000002480B500F0B6F8084E094B094D1A8885
:1002E0003368094F12B2013B2146286847F8224083
:1002F0003360FFF78FFF2C6000F06AF87006002073
:100300006406002068060020B4060020034640B1C1
:1003100010F0010005D15B08DA0700F10100FAD501
:1003200070470020704700BFF0B54FF07735134499
:1003300023F003031C1F620743F8045C05D54FF04C
:100340008832A3F1080443F8082C4FF0807C4FF06A
:10035000000E03270226012522460B2304E9011083
:100360000B4844F810EC44F8147C44F8186C44F83A
:100370001C5C44F80C0C42F8201D42F8043D013B83
:10038000032BFAD120466FF0020340F8443DF0BD44
:10039000D1020008074B084A19680848914204D066
:1003A00005E053F8042F8A4201D18342F9D3C01AE1
:1003B000704700BF00000020FEE7FEE700020020BB
:1003C000EFF30880704700BF00487047000000202E
:1003D00000F03CF801DFFEE7024A536843F0805327
:1003E0005360704700ED00E0EFF3098020E9F00F63
:1003F00040F804ED02490968086000F003F80000C5
:1004000068060020FFF7D8FE04480068016801C9AB
:10041000B1E8F00F81F3098800470000680600206A
:10042000BFF34F8F0549064BCA6802F4E0621343DD
:10043000CB60BFF34F8F00BFFDE700BF00ED00E0D2
:100440000400FA05EFF3108072B6704762B6EFF35E
:100450001080704780F31088704700BFEFF305806D
:10046000C0B27047704700BF704700BF08B5FFF7C4
:10047000F9FF6A46184B9A4204D9184943F8041BFD
:100480009A42FBD8164B174A93420CD2D8431044D9
:1004900020F003000430144A184452F8041B43F8B7
:1004A000041B8342F9D1114B114883420AD2DA432B
:1004B0000021024422F0030204321A4443F8041BD0
:1004C0009342FBD1FFF7D0FF00F0C8FB10F0CEFF46
:1004D000BDE8084000F00EBC00000020FEE7FEE78B
:1004E000000200205C0600205091010860060020F8
:1004F000483F002008B50249042000F0BFFB00BFC0
:10050000F03201080D4B0E4A0E496846904203D85E
:10051000984201D9002102E009468D4601210420BC
:100520007246024202D1EFF3088001E0EFF3098046
:100530002DE9F00F6B4600F007F800BF60050020C2
:1005400000800020000200202DE9F04FDFF890E14C
:100550008FB00D93DEF83830DFF888810B93DEF82A
:100560003430DEF828500C93DEF82C30494F0293DB
:10057000DEF8303004460393D8F800300E46BB4214
:100580009246DEF83C9002D0434811F0CDF8002EA0
:1005900049D194E80E00E068E76904902069D4F836
:1005A00018B00590606909930690B80554BF04F12E
:1005B000200004F124000A9038480892079111F0B5
:1005C000B3F8049B07A900930EC9354811F038F819
:1005D0000097069A05995B46324811F031F8324887
:1005E00011F0A2F82946314811F02AF80299304852
:1005F00011F026F803992F4811F022F849462E48A9
:1006000011F01EF82A0439D42B0632D42B4811F0ED
:100610008BF851462A4811F013F85EB101BE294902
:10062000052000F02BFB002327480A939B4611F07E
:100630007BF8D4E7254811F077F85946244810F0A4
:10064000FFFF6946A1EB0808B8F5AC781BD40A9BFC
:100650000D9A1D46164620468268C36801698C467D
:1006600041698E46AD46314691E8F00F4168006819
:10067000D4E70C99174810F0E3FFC7E70B99164829
:1006800010F0DEFFC0E7C8F10001144810F0D8FFF9
:10069000DDE700BFFEE7FEE7D030010818310108B2
:1006A0003431010874310108B4310108C031010846
:1006B000D0310108E0310108F03101082032010891
:1006C00028320108C8320108E83001083C3201082C
:1006D0007032010810320108003201089832010816
:1006E00000ED00E00000002008B50249062000F0FF
:1006F000C5FA00BFDC32010808B50249072000F046
:10070000BDFA00BF9830010808B50249082000F082
:10071000B5FA00BFFC32010808B50249092000F013
:10072000ADFA00BFAC30010808B502490A2000F05C
:10073000A5FA00BFC0300108034B044A4FF4E13171
:10074000002002F031B800BF04020020191900088F
:100750000A460146014801F0EBB800BF0402002040
:1007600010B50C4601462246002002F02DF8204626
:1007700010BD00BF2DE9F043344C236803F58033EE
:10078000236023681BB9324A1368013313600022C7
:10079000304BDFF8CC90D3F800C02F4FD9F800E0F1
:1007A0001A60C7F800C0BEF1000F43D0284EDEF833
:1007B000082033689A423DD8DEF80480274D23682C
:1007C00008EA05029A4208BF71460AD03BE0326847
:1007D0009868904208D85A6820682A40824203D11B
:1007E00019460B68002BF2D1C9F8003000230B60CA
:1007F000BCF1000F1CD09CE82800DEF80020454525
:100800008CBF75466546E3B1B2B1284601E00846A3
:100810009AB159685468A1428CBF114619460160CB
:100820001B681268002BF2D10A603D60BDE8F083BE
:10083000C7F800E0BDE8F08329460B603D60BDE8E5
:10084000F0832946F0E7BDE8F08300BF8007002071
:100850007C070020880700208C0700200000FFFF95
:10086000840700202DE9F047814688460D4C0E4F45
:100870000020256802F07AF823689D42F8D13E688E
:1008800045EA000A0020256802F070F823689D42BE
:10089000F8D105435545EBD3C9F80050C8F80060BE
:1008A000BDE8F087800700207C0700201C4B1A68F9
:1008B000824224D01AB905E098421DD01A46136826
:1008C000002BF9D1174B1A6842B1904203D112E0C4
:1008D000984211D01A461368002BF9D1124B1A68AE
:1008E00042B1904203D106E0984205D01A461368FF
:1008F000002BF9D170471A460368136070471268DD
:100900001A604AB15368063B084A11680029F1D1C0
:100910009AB2084602F006B84FF6FF73F4E700BF3C
:100920008C0700208807002084070020780700201B
:1009300001222DE9F041354DDFF8D4802B68C8F84D
:100940000020002B54D0002002F010F806460027AB
:100950002B685BB100205C6802F008F886421ED864
:10096000A4B284421BD9241A132C18D9002001F0F8
:10097000FDFF864232D8286808B34468002001F0A1
:10098000F5FF063C14308442E2D30023C8F800305F
:10099000D8F8001031B3BDE8F081844206D92B6845
:1009A00000209C8801F0E2FFB042F6D22B681A6862
:1009B0005F602A609F60DA6818699047C8E701F0B5
:1009C000D5FF8642044609D800F114039BB2984231
:1009D00019D9002001F0CAFF8442FAD9FFF7CAFEF4
:1009E0000026B5E7A2B20846BDE8F04101F09ABF83
:1009F000FFF7C0FE4FF6FF74002001F0B7FFA042E2
:100A0000FAD00026A3E74FF6FF74BEE78C0700205C
:100A10007807002008B5002307491846074A01F067
:100A200051FF074B196801B108BD4FF6FF72BDE8D1
:100A30000840084601F076BF40420F003109000827
:100A4000780700202DE9F04107460E46414C002072
:100A5000256801F08BFF23689D42F8D100230543F0
:100A6000AE423B6002D3F31EAB4252D3FFF7EAFC27
:100A70007B688046002B48D03846FFF717FF364B7F
:100A8000AE4219681B6838BF01318B427E60B96085
:100A900015D23248036853B19A688A4203D306D10B
:100AA0005A68964203D318461B68002BF4D13B606A
:100AB00007604046FFF7CEFC0020BDE8F0812268C9
:100AC000330C1B049342E4D1ADB2AE4233D9244877
:100AD0000368002B3CD05A68964203D238E05A682B
:100AE000964203D319461B68002BF8D13B600F6078
:100AF00003689F42DDD11B4B19680029D9D1B21F71
:100B000092B2084601F00EFFD3E7BB68002BB3D1C9
:100B1000B5E7F41CA4B2002001F028FF8442FAD308
:100B2000002001F023FF8442FAD83869FB68984717
:100B30000020BDE8F0810C490B681BB905E019469F
:100B40001B6813B15A689642F9D23B600F60B0E758
:100B50000146CBE7800700207C07002084070020A7
:100B60008C070020780700208807002038B504464D
:100B7000FFF768FC636805460BB9A36813B120460C
:100B8000FFF794FE2846BDE83840FFF763BC00BF7E
:100B9000C368B3B12DE9F0410E460746FFF7E6FF03
:100BA000022E0FD90F4D00202C6801F0DFFE2B68BC
:100BB0009C42F8D10443A1193846BDE8F041FFF743
:100BC00041BF7047002001F0D1FE0446002001F033
:100BD000CDFE001B83B29E42F8D8FB683869BDE8A1
:100BE000F041184780070020002A33D0F8B50546A9
:100BF0000F461446FFF726FC6B68064633B32846BB
:100C0000FFF754FE05F10801281DFFF72BFE686869
:100C1000AB683844234487420F4988BF0133AB6037
:100C20000B6868605BB1AC689A68944203D806D1DF
:100C30005A68904203D319461B68002BF4D12B60ED
:100C400030460D60BDE8F840FFF704BCAB68002BF0
:100C5000D5D1D7E7FFF79CBF8407002010B5064C1D
:100C600000F002FA2046012100F074FE2046BDE8A3
:100C7000104000F0EFBC00BF0004024008B50E4B6E
:100C80001A6882B9012203280C461A600FD0214647
:100C90000A4810F0D5FC01F0F1FB094810F0D0FC37
:100CA000084810F0CDFCFFF7CDFB00F00FF97146BE
:100CB000054810F0C5FCEAE790070020283301083A
:100CC00050330108443301082433010808B501F00A
:100CD000C1FE01F0B7FE002008BD00BF08B5044CFE
:100CE0002368002BFCD1032000F086FDF8E700BF4D
:100CF00094080020002400B585B0FFF7A3FB0E4A3E
:100D00000E4B12684FF48071029200930F220C2355
:100D100001940B4800F05CF80A4A0B4B12684FF440
:100D200040610292009307220C230194074800F0CF
:100D30004FF8FFF74DFB00BF18020020DD0C000844
:100D4000940700201C020020CD0C00089C08002005
:100D500008B5FFF777FB094B1B681A79082A07D9F2
:100D60005A79074B53F8221011B1096843F8221041
:100D7000FFF770FBBDE80840FFF72EBB68060020B8
:100D80007406002038B50B79082B0ED84C7901F188
:100D9000080504E013F8032C944203D318460368B3
:100DA000002BF7D18B60056038BD02490320FFF7A7
:100DB00065FF00BF103301080268904206D110465B
:100DC00050F8043F8342FBD0801A704700207047E0
:100DD0002DE9F04F0F2A83B070D80746984610F0DF
:100DE00003030FBF0B46C3F10403FF18CB1A303BBC
:100DF00023F0030318F0080F91468A4607EB03051A
:100E00003DD13F600193FFF71DFB83462D48012232
:100E10000146019B02E00132212A46D051F8044FDD
:100E200016B2002CF7D140F822500D993A46EE80C8
:100E30000C98FFF779FA4FF0FF31234A28601368C6
:100E40000E98013318F0010F6F62C5F82CA0A8624C
:100E500085F805902C71AC60EC602C616C61AC6124
:100E60002C621360E96112D028460121FFF7D2F904
:100E70005846FFF7EFFA304603B0BDE8F08FAF42B7
:100E8000C0D23A46126004329542FBD8BAE72846EF
:100E90000A21FFF7BFF918F0040FE9D15846FFF710
:100EA000D9FA4846FFF7FAF9E5E76FF08A0658469F
:100EB000FFF7D0FA304603B0BDE8F08F6FF01506AB
:100EC000D9E700BFB40600207006002008B5EFF394
:100ED0000581C1F3080121B900BE042000F08CFC9B
:100EE000FBE71039014810F0ABFBF5E7643301086C
:100EF000F0B500244F4B50491A6883B042F4807219
:100F00001A609A68012022F47F5222F030029A601F
:100F10009A681E4622F0EE429A609A6842F2107772
:100F200022F003029A609A6822F47D029A601A689D
:100F300011401960DC601A6842F001121A6001F079
:100F4000BFF90228019414BF4FF40035022505E0D3
:100F5000019B01330193019BBB4264DC34682C404C
:100F6000F6D0364B1A46196841F004011960196829
:100F700041F001011960196841F00201196093699B
:100F80001807FCD54FF08051002001F0EFFA2C49F2
:100F90000A460B6823F4C05343F400630B605368A4
:100FA000D906FCD4234AB5F5003F936823F47F5358
:100FB00023F03003936093680CBF43F4050343F4BC
:100FC000880393601B4B19461A6842F080721A60BE
:100FD0000B689B01FCD5174C1A4B22461A48B5F5F5
:100FE000003F18BF18468B6843F00303A360936863
:100FF00003F00C030C2BFAD11368144C0340144E6D
:101000001360144903221448266010F05BFAB5F50A
:10101000003F4FF004020CBF10491149114810F075
:1010200051FA03B0F0BD02250121284601F034F940
:10103000019493E700380240FEFFFAEE003C0240C4
:1010400000700040FFFEFEFFFEFEFFFF9C1400202C
:101050000048E80198330108A01400209C330108DF
:10106000A4330108A314002070B501F051FD01F074
:1010700037F9002001F024F9184B984224D0FFF7EB
:1010800037FF0023164C174D174E2360284601F0FA
:1010900061FD05F5806528B12368B54203F10103C0
:1010A0002360F3D12368C3B100234FF0FF301A4609
:1010B00003F5801380339B02186001322168D2B29D
:1010C0008A421346F4D370BD0021084601F0E4F8CB
:1010D00001F05EF9054B9847D1E770BDAD1007B040
:1010E000AC14002000000240002002400400F01F69
:1010F000264B30B41A461C6844F480741C60136894
:101100009C05FCD55368214C23F460430343536092
:10111000936823F0F003194321F003019160A36861
:1011200013F00C0FFBD130F4005325D1184A13688B
:1011300043F4804343F001031360164B1A461968C9
:1011400021F001011960196821F002011960196884
:1011500021F00401196093691B07FCD54FF480331B
:101160000A490D4A0D680D4C400B2A4003FA00F065
:101170000A60206030BC7047054B1A46196841F47C
:10118000C05119605368D906FCD4D6E70038024034
:1011900000700040003C0240FEFFFAEE9C1400206C
:1011A00070B54FF000540A4E04F58055284601F002
:1011B000D1FC04F1604303F5805320B1B5422C46C5
:1011C000F2D1184670BD05F16043184670BD00BFEE
:1011D0000040012070B54FF000640A4E04F5004550
:1011E000284601F0B7FC04F1784303F5004320B131
:1011F000B5422C46F2D1184670BD05F17843184629
:1012000070BD00BF0000080870B50B4C0B4E04F514
:101210000065284601F09EFC04F17843A3F5FF2306
:1012200020B1B5422C46F2D1184670BD05F1774386
:1012300003F57803184670BD000008080040080850
:10124000054B1B68C3F30B03A3F21643212B9ABF74
:10125000024AD05C00207047002004E0743301088B
:10126000F8B5FF21022001F081F9DFF894E0DEF803
:101270000030C3B10022194D194C1A481A491B4BB2
:1012800055F8047F34F8026FDF609E8030F8027FEB
:1012900051F8046F9F821E60DEF8006001329642B2
:1012A00003F58063ECD8124B124ADB69116823F016
:1012B000FF031943022001F059F900230E490F4C96
:1012C00011F8012B2AB11859828992B242F40052C6
:1012D00082811833482BF3D1F8BD00BFF0140020F1
:1012E000E2140020D2140020B014002000000240BC
:1012F00000380240B014002038150020AC3301083B
:10130000AC1400202DE9F84FBA4B1B68C3B1002282
:10131000B94DBA4CBA48BB49BB4B1E68013245F8BF
:10132000046FDF689E8844F8047F20F8026FB14E96
:101330009F8A366821F8027F964203F58063ECD8D5
:10134000B24AB3489389B34913F4005300F130050E
:101350004FF003094FF001060AD1A8420B7001F1CA
:10136000010141D050F8182F938913F40053F4D0A1
:10137000C368B2F80CE003F00F044FEA440809FA1E
:1013800008FC6FEA0C0C2EF4005E4FEA0E4E4FEA9A
:101390001E4EA2F80CE023F00F031A6806FA08F8B4
:1013A00002EA0C0242EA08021A60D3F80CE006FADC
:1013B00004F20CEA0E04DC609C8812B2A4B224EAA7
:1013C00002049C80944F9C8AC3F3832E37F81EC07E
:1013D0001443A4B242EA0C02A8429C8227F81E20C1
:1013E0000E7001F10101BDD18C4B1B6AD80440F194
:1013F0002881854B88491A6822F4407242F4807231
:101400001A60DA6822F44072DA609A8822F01002D8
:101410001204120C9A809A8A92B242F010029A82B6
:101420001A68B1F9001022F4406242F480621A6036
:10143000DA6841F0B00122F44062DA609A8822F062
:1014400020021204120C9A809A8A22F020021204BE
:10145000120C9A821A6822F4404242F480421A60C6
:10146000DA6822F44042DA609A8822F0800212049C
:10147000120C9A809A8A22F080021204120C9A822C
:10148000654B1980654B5B6A590440F1D380644B0E
:1014900061491A68B1F9021022F0407242F080727C
:1014A0001A60DA685C4822F04072DA609A8841F487
:1014B000304122F480521204120C9A809A8A92B21D
:1014C00042F480529A821A6822F0406242F08062AE
:1014D0001A60DA6822F04062DA609A8822F40052D8
:1014E0001204120C9A809A8A22F400521204120CEE
:1014F0009A821A6822F0404242F080421A60DA680A
:1015000022F04042DA609A884180C2F30E029A804B
:101510009A8AC2F30E029A82404B424ADB69FF214B
:10152000DBB20220136001F021F8324B1B68002B64
:1015300053D04FF000094FF0030E0127DFF8C880A9
:10154000DFF8E8A0DFF8E8B0DAF800304FF0FF305D
:101550008BB3314A002332F81940334A32F819204C
:101560001443A4B216E0DAF800C09E0803F00302A8
:1015700015EA0C0F06F102064FEA820207D05BF86B
:10158000265025FA02F202F00F024A450DD001332F
:10159000102B0FD0590044FA03F20EFA01F1D207D2
:1015A00007FA03F56FEA0101DDD50133102B00EADC
:1015B0000100EFD1C343D8F80C2009F10109134011
:1015C000C8F80C30D8F8003018430A4BC8F80000AF
:1015D0001B6808F580684B45B6D8104B114ADB698B
:1015E000116823F0FF0319430220BDE8F84F00F013
:1015F000BDBF00BFAC140020B0140020F0140020C8
:10160000E2140020D2140020000002400038014003
:10161000AC330108381500201415002000380240B2
:1016200000040240B01400202415002000040140F2
:1016300000000140064B064A5B8823F43043538088
:101640006AE7034B024A1B8823F0B003138019E7B3
:10165000141500200123074AC0F3832110B400F0C1
:101660000F0032F8114003FA00F0204322F8110075
:1016700010BC70472415002008B50B4B1B680BB13C
:10168000012B0AD0FFF734FCFFF7C4F9BDE808408E
:101690004FF4E131002000F09FBF00214FF42040C3
:1016A000FFF726FDF0E700BF3415002010B400243A
:1016B0004C4A4D494D4B4E4804609160936011680F
:1016C0004C4B41F0080111601A6B22F001021A63C1
:1016D0001A6B22F002021A631A6B22F004021A63D8
:1016E0001A6B22F008021A631A6B22F010021A63B6
:1016F0001A6B22F020021A631A6B22F400721A632A
:101700001A6B22F400621A631A6B22F480421A6385
:101710001A6B22F400421A631A6B22F400321A6325
:101720001A6B22F480221A631A6B22F400221A63C5
:101730001A6B22F480121A631A6B22F400121A63D5
:101740001A6B22F480021A631A6B22F400021A63E5
:101750001A6B22F080521A631A6B22F000521A633D
:101760001A6B22F000421A63DA6A22F00102DA628E
:10177000DA6A22F00402DA62DA6A22F00802DA6235
:10178000DA6A22F01002DA62DA6A22F40072DA62AD
:10179000DA6A22F40062DA62DA6A22F48052DA62E9
:1017A000DA6A22F48042DA629A6A22F480529A62F9
:1017B0009A6A10BC22F400429A629A6A22F4803239
:1017C0009A629A6A22F080729A629A6A22F0007291
:1017D0009A629A6A22F000629A629A6A22F08042C1
:1017E0009A627047003C024037261504FDFCFBFA64
:1017F000341500200038024010B504280FD8DFE867
:1018000000F0033840106400FEF71CFE00223B4B42
:101810001A601868C0B2FFF72FFFFEF717FE00200E
:1018200010BD374B374C1A6842F004021A601A6830
:1018300042F001021A601A6842F400721A602369C9
:1018400043F004032361FEF7FDFDFFF75BFDBFF3EB
:101850004F8F30BF2369294A23F0040323611068A6
:10186000C0B2FFF709FFFFF7FBFCFEF7EFFD00201A
:1018700010BD254B1B68002BD1D1FEF7E3FD0122E3
:10188000C5E71F4B1F491A6842F004021A601A6824
:1018900042F001021A600B6923F004030B61FEF7AA
:1018A000D1FDFFF72FFD00210846FFF721FCBFF314
:1018B0004F8F30BF114B1868C0B2FFF7DDFEFFF746
:1018C000CFFCFEF7C3FD002010BD0D4B0D491A687B
:1018D00042F004021A601A6842F002021A600A69B1
:1018E00042F004020A611A6842F400721A60FEF7BC
:1018F000A9FDBFF34F8F30BF002010BD341500206D
:101900000070004000ED00E098080020014B1868CE
:1019100040B270473415002038B50446043001F059
:101920007DF80546204601F0CDF8284638BD00BFB9
:10193000F8B505460F461646041D03E0012128466A
:1019400001F090F832463946204601F045F800286B
:10195000F4D0F8BD421C34D0F8B501270D4604463A
:10196000C0F3832107FA01F1022000F0FFFD0322FA
:1019700024F00F0604F00F0404FA07FE02FA0EF238
:10198000D043336805F00301034001FA0EF1194317
:101990003160F168C5F38103084003FA0EF3034395
:1019A000F360B388A7409BB2C5F30015A54023EAB6
:1019B00007042C43A4B2B480B36800201A43B26079
:1019C000F8BD7047B0F1FF3F6BD0F8B50F4601216D
:1019D00004461646334A00F00F0542F83530069BA0
:1019E00002EBC50E0846CEF8043000F0BFFD3946C4
:1019F0002046FFF7AFFF042DC4F3832725DD092D13
:101A00004ADC4FF40002284B1A60012E24D037D351
:101A1000022E4FF001022AD0AA400F2105F00C053A
:101A200005F1804505F5803504F00304AB68A4009A
:101A3000A140A74023EA01041C4B3C43AC605A611F
:101A4000196800200A431A60F8BD0123A91D164A2F
:101A50008B40012E1360DAD1144B06FA05F2996817
:101A600011439960D96821EA0201D960D5E70F4B8B
:101A7000AA40996811439960D9681143D960CCE7AD
:101A80000121A9400A46094B986820EA01019960A2
:101A9000D9681143D960C0E74FF48072024B5A6095
:101AA000B3E770473C15002000E100E0000401406E
:101AB000431C24D0F0B54FF0030E00F00F020227B4
:101AC000072A94BF002401240F2520F00F06336855
:101AD00052000EFA02FE23EA0E0307FA02F2134343
:101AE000336006EB840200F00700B840136A05FA81
:101AF00000F4814023EA040008431062F0BD7047FF
:101B0000431C13D00121C0F3832310B50446994030
:101B1000022000F02BFD032324F00F0004F00F023D
:101B20000168520093400B43036010BD704700BF33
:101B3000431C13D00F2330B400EA0304A1100C4D52
:101B400000F003020231920055F82110C0F3832007
:101B5000934090400B40834201D030BC704701233A
:101B6000044A03FA04F413681C431460F5E700BF49
:101B70000000014000040140431C13D00F2330B487
:101B800000EA0304A1100C4D00F0030202319200A0
:101B900055F82110C0F38320934090400B408342BE
:101BA00001D030BC70470123044AA340146824EAE2
:101BB00003041460F5E700BF000001400004014089
:101BC000431C23D0032300F00F0220F00F0051002C
:101BD00010B404688B402340CB40DBB2012B0AD009
:101BE0008BB90123018A03FA02F08BB2034043FA56
:101BF00002F010BC7047808A934080B2034043FAE1
:101C000002F010BC70474FF0FF30F2E76FF00100B8
:101C1000704700BF431C0BD0032300F00F0220F0DD
:101C20000F005200016803FA02F00840D0407047EC
:101C30006FF00100704700BF431C07D0012300F084
:101C40000F0293409BB220F00F000383704700BF48
:101C5000431C07D0012300F00F0293409BB220F0F9
:101C60000F004383704700BF10B50446FFF7A8FF7D
:101C700050B1621C12D0012304F00F0293409BB2BA
:101C800024F00F04638310BD631C07D0012304F00C
:101C90000F0293409BB224F00F04238310BD00BFBA
:101CA0002DE9F843134BDFF854905E6998461B68A2
:101CB0004D46002401271E4004E00134102C05F19C
:101CC00008050ED007FA04F31E42F6D0C8F8143007
:101CD000686859F8343001349847102C05F108052C
:101CE000F0D1054B1B680BB9BDE8F883BDE8F8439C
:101CF000FFF72EB8000401406C0600203C150020C0
:101D000070B5CA2653254FF080510446002000F0DC
:101D10002DFC454B45481A46016841F4807101602D
:101D20005E625D62D96841F08001D960D3685B066C
:101D3000FCD56269643AD2B2092A72D900230A3A00
:101D4000D2B20133092ADBB2F9D81B01D9B2236917
:101D50000A430133DBB2092B4FEA02424FF0000184
:101D600007D90A3BDBB20131092BC9B2F9D8090105
:101D7000C9B20B43217B1B0203F4F853092943EA40
:101D800002034FF0000207D90A39C9B2013209290A
:101D9000D2B2F9D81201D2B21143227A01F03F0136
:101DA00021480B43092A43604FF0000107D90A3A42
:101DB000D2B20131092AC9B2F9D80901C9B22379CD
:101DC00011430904092B01F47C114FF0000207D9DB
:101DD0000A3BDBB20132092BD2B2F9D81201D2B2DE
:101DE000134322781B0203F4FE43092A43EA01034A
:101DF0004FF0000107D90A3AD2B20131092AC9B21B
:101E0000F9D80901C9B2FF240A4302F07F0206494A
:101E100013430B60CB68002023F08003CB604C623F
:101E200070BD002193E700BF002800400070004013
:101E30002C4BF0B41A46D96821F02001D960D36840
:101E40009D06FCD511681368994218BF1368254A8E
:101E50005268C2F30035AF00C2F303242F44013CA3
:101E600004EB4704C2F30356C2F30341C2F3011566
:101E700002F00F07C2F34232072A08BF002206EB26
:101E80008606643101EB46018261C3F3015205EB22
:101E90008505416102EB8201C3F3034207EB45056F
:101EA000046102EB41025C02C560826005D50D4908
:101EB0008968490644BF0C328260C3F30231C3F320
:101EC0000212C3F3032401EB810102EB820203F04F
:101ED0000F0304EB410103EB420341600360F0BCDC
:101EE0000020704700280040F8B506460C46002048
:101EF0004FF080511546532700F038FB4FF0CA0EC3
:101F0000434B44481A46016841F480710160C3F8AC
:101F100024E05F62996821F480719960D368DB07DF
:101F2000FCD5D169337E01F07F31D161D169092BB4
:101F300041F0804141F48001D1614FF0000107D9A7
:101F40000A3BDBB20131092BC9B2F9D80901C9B288
:101F50001943337A0906092B01F07C514FF0000236
:101F600007D90A3BDBB20132092BD2B2F9D81201F0
:101F7000D2B2134332791B0403F47C13092A43EAD7
:101F800001034FF0000107D90A3AD2B20131092A00
:101F9000C9B2F9D80901C9B20A433178120202F470
:101FA000FE42092942EA03024FF0000307D90A3929
:101FB000C9B201330929DBB2F9D81B01DBB2FF2713
:101FC00010204FF400760B4303F07F0310491343B6
:101FD000CB618A68104B42F480728A608A6842F44E
:101FE00080528A60CA6822F48072CA604F621A689E
:101FF0000A4F42F400321A609A68094942F40032EA
:102000009A60CD6087F829037E6000200C60F8BDDF
:1020100000280040007000400004014000E100E0A2
:10202000BC150020F0B50446284B59685E685F680F
:102030005A68DD69D3F81CE0D869C5F30175C0F3AF
:102040000150C6F3034C05EB850600EB8005D8690B
:10205000C7F30037C0F3034000EB4500C2F303228F
:10206000BD002F44C1F30351DD69013A02EB470281
:1020700001EB81010CF1640CCEF3036E0CEB41011A
:102080000EEB460622616A026161A661A06004D57A
:102090009B685B0644BF0C30A0600C490020CA69F5
:1020A000CD69CB69C969C2F30232C3F30213C5F328
:1020B000032501F00F0102EB820203EB830305EB22
:1020C000420201EB430362602360F0BD0028004040
:1020D00030B45322CA250020FF24084B08495D6212
:1020E0005A629A68C86022F480729A609A6822F4F0
:1020F00080529A605C62086030BC704700280040E3
:10210000BC150020F8B504460D4600204FF0805164
:102110001646532700F02AFA4FF0CA0E364B3748BE
:102120001A46016841F480710160C3F824E05F62DF
:10213000996821F400719960D3689B07FCD5304BF6
:10214000E11783FB0423C1EBA313DBB2092B4FF090
:10215000000207D90A3BDBB20132092BD2B2F9D80F
:102160001201D2B24FF47A70254F134387FB0472E9
:10217000C1EBA21100FB11441F4A03F07F0313625D
:1021800000FB04F34FF40074FF274FF0100E116AA8
:102190001C4841F0802141F400011162A0FB0313AF
:1021A000916C83F47F5321F4FF4121F07F0141F0D2
:1021B0000061C3F387130B4393649168124B21436F
:1021C00091609168114841F400519160D16821F407
:1021D0000071D16057621A680D4942F400321A60EA
:1021E0009A6842F400329A60856081F829E346617A
:1021F0004C600020F8BD00BF002800400070004087
:10220000D34D62103FC5254300040140BC1500209A
:1022100000E100E01E4B30B41A460446D96821F0B4
:102220002001D960D3689906FCD5936A916A184851
:102230008B426FF0F30318BF916A024603FB01F370
:10224000144903F5732303F60C73A1FB0313C5684C
:10225000990925F02005C560D3689B06FCD5106858
:10226000136898424FF47A7018BF1368C3F30212D0
:1022700002EB820203F00F0303EB420300FB0311A6
:10228000034B00205A6821605B6830BC704700BF78
:1022900000280040D34D6210002210B404461046BE
:1022A000064B83B001920193019B03EB81010191E5
:1022B000019B1C6003B010BC704700BF5028004059
:1022C0000022064B82B001920193019B03EB800038
:1022D0000190019B186802B0704700BF5028004071
:1022E00008B54FF08051002000F040F9114B124822
:1022F0001A46016841F480710160596B21F48071C4
:102300005963596B21F480615963596B41F48071B1
:102310005963536B9B05FCD5536B23F440335363D4
:10232000536B43F480335363536B43F48003536321
:1023300008BD00BF003802400070004010B5FFF734
:10234000CFFFCA2400215320104B1A465C6258620A
:10235000D960D96841F08001D960D3685B06FCD5AB
:1023600040F6FF73FF211361136943F4E023136107
:10237000936823F040039360936843F40063936091
:10238000D36823F08003D360516210BD0028004061
:1023900008B54FF08051002000F0E8F80B490C4BD5
:1023A0000A6842F480720A605A6B42F400025A636F
:1023B0005A6B22F400025A635A6B22F480025A6369
:1023C0005A6B22F480725A6308BD00BF007000404F
:1023D0000038024008B5134BDA68D10508D5DA6831
:1023E000114922F48072DA600B680BB1C868984713
:1023F0000C4BDA68920508D50B48DA68816822F43C
:102400000072DA6009B140698847084A084953698F
:1024100043F4003353610B6803B908BDBDE80840BD
:10242000FEF796BC00280040BC15002000040140C7
:102430006C06002008B50D4BDA68520508D50C482B
:10244000DA68416822F48062DA6009B1006988477D
:10245000084A0949536943F4801353610B6803B96F
:1024600008BDBDE80840FEF773BC00BF002800406F
:10247000BC150020000401406C0600202DE9F04F3F
:102480008BB00AAB1C462B4B2B4A1B882B4924F8DC
:10249000043D2B4807940FF0D3F8FDF77BFF8046EF
:1024A000FDF792FF0446FDF78BFF4246009023465E
:1024B0004FF4007123480FF0C3F84FF40079224E17
:1024C00028EAE87806F1800A56F8044F14B3257913
:1024D0001E4B606A53F825B0E76AFEF76DFC079B58
:1024E000A26A082DC8BF01331D462368B4F906103F
:1024F0000593636AA7EB000E0493CDF80CE0E06A45
:102500005B4602906079009501901148F044B9440F
:102510000FF096F8B245D7D10E4BCDF808808DE874
:10252000080219460C4A0D480FF08AF80BB0BDE8B6
:10253000F08F00BFF4330108F833010800340108BC
:102540000834010850340108B4060020200200209D
:102550009C340108D8340108DC340108E034010857
:10256000014B1868704700BF9C140020012810D050
:1025700008D3022803D10A4BDA691143D961BFF3AA
:102580004F8F7047064A536A19435162BFF34F8F0A
:102590007047034B1A6A11431962BFF34F8F70479C
:1025A0000038024001280FD008D3022805D1094A7B
:1025B000D36923EA0101D16170477047054A536A24
:1025C00023EA010151627047024A136A23EA0101BA
:1025D00011627047003802402DE9F04100EB4000E5
:1025E0001D4EC50006EB050898F814700C463846D9
:1025F000FFF7B6FFB0FBF4F0072824D972590F2873
:10260000938923F400534FEA03434FEA1343938122
:1026100093890CD980B2C3F30E03938110819389FF
:1026200000209BB243F400539381BDE8F0816FEA30
:1026300043436FEA5343083840F01000C0B29BB2E6
:1026400093811081EBE73846D8F80410FFF7AAFF12
:102650006FF00100BDE8F0815C3501082DE9F04F15
:10266000022883B000F29480054692464FEA400962
:1026700009EB0008484E4FEAC80806EB0804DFF8EB
:1026800024E1A2680EEBC50CCCF804304EF835A05E
:1026900010460F46217C0192FFF75CF9D4F80CB08C
:1026A000617C5846FFF756F95846FFF7C5FAE17CBA
:1026B0005846FFF7FDF9019AA17C1046FFF7F8F99B
:1026C0006168207DFFF752FF002356F80840A38180
:1026D0002382A3823B79012B4BD07B79012B3DD008
:1026E000022B27D0BB79022B2CD0032B30D023B95F
:1026F000238A9BB243F48053238239682846FFF72C
:102700006BFF002841D1BAF1000F38D0012142F20D
:102710002C074D4406EBC506737D204D5AB203F0DD
:102720001F03520901FA03F345F82230A78103B0D1
:10273000BDE8F08FA3899BB243F48063A381BB798A
:10274000022BD2D1238A9BB243F440532382D4E795
:10275000238A9BB243F400532382CEE7A3899BB222
:1027600043F48063A381A3899BB243F40073A381E4
:10277000B8E7A3899BB243F48053A381ADE742F24B
:102780000803A38103B0BDE8F08F6FF00100CEE72E
:1027900003490320FEF772FA5C35010800E100E00E
:1027A00010330108D415002030B50024012583B072
:1027B000009169468DF804408DF805408DF806506B
:1027C000FFF74CFF03B030BD022808B512D80B4B01
:1027D00000EB400053F8300042B10A4403881B0666
:1027E000FCD511F8013B8A428380F7D103885B0650
:1027F000FCD508BD02490320FEF740FA5C3501080C
:10280000103301080C4B10B51C88A4B2A2060BD4DF
:10281000230744BF084B9B88084B1B6803B910BDB6
:10282000BDE81040FEF794BA9988054BC9B21A6802
:1028300058689047ECE700BF003801406C06002064
:10284000D41500200C4B10B51C88A4B2A2060BD4E2
:10285000230744BF084B9B88084B1B6803B910BD76
:10286000BDE81040FEF774BA9988054BC9B29A6862
:10287000D8689047ECE700BF004400406C06002099
:10288000D41500200C4B10B51C88A4B2A2060BD4A2
:10289000230744BF084B9B88084B1B6803B910BD36
:1028A000BDE81040FEF754BA9988054BC9B21A69C1
:1028B00058699047ECE700BF004800406C060020D4
:1028C000D415002020BB70B5134E054686E80C00D9
:1028D0000C4601201021FFF749FE4FF6FF730F4E03
:1028E00001203580B580F362FFF73AFEB0FBF4F1CA
:1028F0004FF0006201200A4B013989B23185B08264
:102900001A60338828469BB243F00103338070BDC0
:102910004FF0FF30704700BFEC1500200010014061
:1029200000E100E003291BD8022330B40E4C000163
:1029300025186D68245801F10C002A4004EB800032
:102940004260228A03FA01F109B293B223EA010339
:102950002382A3890020194389B2A18130BC70472A
:102960004FF0FF30704700BFA4350108024B000153
:102970001B58586A704700BFA4350108134B2DE956
:10298000F0410024984602261A8A9D89104FADB264
:10299000154006FA04F32B4207D10134042CF8D178
:1029A0000C4B1B686BB9BDE8F081B8F80C202146D0
:1029B00092B222EA0303A8F80C3078683B68984783
:1029C000EBE7BDE8F041FEF7C3B900BF00100140DE
:1029D000EC1500206C060020F2B1F0B48468C368E6
:1029E0009C4217D0144603E08568C3689D420ED010
:1029F0008568436806686F1C013B87602B40F35C69
:102A0000013C01F8013BEFD11046F0BC7047101BB0
:102A1000F0BC70470020F8E710467047C26810B459
:102A200084684368121B9A4209D0C268013B134074
:102A300001320468C2600020E15410BC70474FF0BE
:102A4000FF30FAE708B5024800F006FB002008BD99
:102A5000F415002008B5002000F004FFBDE8084090
:102A6000FDF7D8BF70B505460C46FDF7EBFC2B68AB
:102A7000FBB1A4B1124B06461C6802212046FDF7AB
:102A8000C9FB2B6801330ED021462846FEF77AF9A0
:102A90003046FDF7DFFCFDF79FFC012070BDFDF720
:102AA000D9FC204670BD002304F108022A60A3600F
:102AB000EEE74FF0FF332B60FDF7CCFC012070BD3B
:102AC0006806002070B50546FDF7BCFC2C68BCB15B
:102AD000631C13D00646204650F808390A212B60A3
:102AE000FDF798FB2B687BB114F8034C3046FDF7DB
:102AF000B1FC2046BDE87040FDF7D0BB00232B6041
:102B0000BDE87040FDF7A6BC4FF0FF332B60EBE74C
:102B100030B410244FF00065204600230B4A0C49C6
:102B2000956082F82240D477CA180133392B82F895
:102B30000003F9D1054B30BC1A6942F010021A614A
:102B40005A6942F400725A61704700BF00ED00E01C
:102B500000E100E00A4B9A6A42F400429A625A6924
:102B600042F480725A6171B60278986A61B65A6905
:102B700080F4004022F48072C0F3C0305A61704784
:102B800000ED00E0BFF34F8F0549064BCA6802F421
:102B9000E0621343CB60BFF34F8F00BFFDE700BF80
:102BA00000ED00E00400FA0508B504480EF0BCFD95
:102BB00000210348FFF770FBFFF7E4FF40390108ED
:102BC000AD1007B030B5012885B042DD4D68294908
:102BD00028460EF0B3FEC0B1274928460EF0AEFEDF
:102BE0000446F8B91022214668460EF076FC00F043
:102BF000D5FC23466A4600F07DFC002835D11F48ED
:102C00000EF092FD204605B030BD1D480EF08CFD43
:102C100000F03AFC20BB00241A480EF085FD204647
:102C200005B030BD284618490EF088FE044618B19C
:102C30000024204605B030BD14480EF075FD204636
:102C400000F02EFC0028E6D011480EF06DFDFFF7D5
:102C500099FF01240F480EF067FD204605B030BDF6
:102C60000D480EF061FDFFF78DFF0C480EF05CFD86
:102C7000FFF788FF0C360108D03C0108B036010888
:102C80001036010854360108E4360108EC36010814
:102C900020370108B43501083036010874360108C0
:102CA00008B507480EF040FD00F0AAFA10B9054833
:102CB0000EF03AFD04480EF037FD002008BD00BFBD
:102CC000C0380108DC3801080439010800B5134890
:102CD00089B00EF029FD6846202200210EF0FDFB90
:102CE0000F4B10481A6859680EF0AAFC6A46002378
:102CF00010210D4802F0A4F869460C480EF0A0FC23
:102D00000B4B0C4819680EF09BFC0B4B0B481A68D8
:102D100059680EF095FC09B05DF804FB64390108B0
:102D2000F81600208439010800170020983901089E
:102D3000F0160020A8390108E8160020BC39010867
:102D400008B5FFF7C3FF002008BD00BF08B500F0BD
:102D5000BBFB012824D01BD3022814D11F480EF03E
:102D6000E3FC1F480EF0E0FC00F022FC1D4B186055
:102D700000F014FC1C4BC3E9000100F009FC1B4BE4
:102D8000C3E9000108BD1A48BDE808400EF0CCBCFC
:102D900018480EF0C9FCBDE8084017480EF0C4BC46
:102DA00016480EF0C1FC16480EF0BEFC15480EF099
:102DB000BBFC0A480EF0B8FC09480EF0B5FC1148FF
:102DC0000EF0B2FC10480EF0AFFC10480EF0ACFC58
:102DD00000F0DEFB054BC3E9000108BD483A0108DD
:102DE000BC3A0108F0160020E8160020F816002072
:102DF000C03B0108D4390108203A0108F43A01081F
:102E0000283B01087C6A0108503B0108A03B0108EF
:102E1000012801D00020704708B515480EF084FC49
:102E2000FFF754FF13480EF07FFC00F04DFB012824
:102E300002D014D3022808D10F4A104BD2E9000166
:102E40001B680F4A00F056FB20B90E480EF06CFCD0
:102E5000002008BD0C480EF067FCFFF793FE0B4BFB
:102E6000D3E9000100F088FB0028EED0F2E700BFB4
:102E7000D03B0108E83B0108E8160020F0160020CE
:102E8000001700202C3C01080C3C0108F81600201B
:102E9000F0B5022883B03BDD0B464C68594920460B
:102EA0009E680EF04BFD20B900F00EFB0128054690
:102EB0004FD0554920460EF041FD054650B93046E9
:102EC0000EF04EFD202839D050480EF02DFC012088
:102ED00003B0F0BD4E4920460EF030FD054620B946
:102EE00000F0F2FA0128074641D0204649490EF089
:102EF00025FD90B148480EF017FCFFF7E7FE474864
:102F00000EF012FC46480EF00FFC002003B0F0BD9E
:102F1000FFF71CFF012003B0F0BD00F0D5FA002838
:102F2000E8D1002200233046CDE900230EF018FD41
:102F300010283FD03B480EF0F7FB16E02A463A49EE
:102F4000304601F067FFD8B1314638480EF078FBC3
:102F5000D3E7002200233046CDE900230EF000FD28
:102F6000102812D032480EF0DFFB0120CEE73046A9
:102F70000EF0F6FC08282FD02E480EF0D5FBF4E713
:102F80002D480EF0D1FB0120C0E72A4630466946A5
:102F900001F040FF50B10199009A28480EF050FB13
:102FA000DDE90001264BC3E90001A6E725480EF044
:102FB000BBFBDAE730460122694601F02BFF00280F
:102FC000F4D00199009A20480EF03AFBDDE90001A7
:102FD0001E4BC3E9000190E702AA014642F8085DD2
:102FE0003B46304601F0EEFE18B913480EF09CFB4C
:102FF000BBE7314616480EF023FB164B009A1A60C9
:103000007BE700BF4C3C0108CC3C0108D43C0108E4
:10301000443D0108983D0108043E01081C3E01089A
:10302000543E0108A03D010800170020303D010872
:10303000543C0108503D01080C3D0108B03C01081A
:10304000E8160020883C0108E83D0108F816002039
:10305000843D0108F016002000B5A1B00446FEF73B
:1030600025FB01232549264A0B60136001F03CFE35
:10307000FDF7D0FC00F084FC00F05CFE214800F07D
:10308000DDFB204800F04CFAC0B91F480EF04CFBA5
:1030900000F01AFA022823D903280AD11B480EF09F
:1030A00043FB24221A4920460EF00CFA204602F077
:1030B00059FC20468022694600F0FEFE114800F0CF
:1030C00075F948B913480EF02FFB13480EF02CFB8E
:1030D0000C4800F04DF9DBE710480EF025FBD7E770
:1030E00030220F4920460EF0EDF90E4801F0EAFDBE
:1030F000FFF72CFEFFF7EAFDDBE700BF9408002096
:1031000098080020101700205C370108A438010837
:103110004C020020BC370108243801087838010827
:10312000783E01080004024070B404460646064D8D
:103130000FCD0FC40FCD0FC495E8070084E807003A
:10314000304670BC704700BF28170020014B9870B4
:10315000704700BF28170020014BD871704700BF8F
:1031600028170020014BD870704700BF2817002097
:10317000014B1871704700BF28170020014B987150
:10318000704700BF28170020014B5871704700BFDF
:1031900028170020014B9860704700BF28170020B7
:1031A00038B50D46044601F01BFC10B3012304F0B2
:1031B0001F02104993406209023201EB82025168FA
:1031C00020465DB921EA0303536001F0DBFB224690
:1031D000BDE83840014608480EF032BA0B43536050
:1031E00001F0D0FB2246BDE83840014603480EF00E
:1031F00027BA38BD28170020F4400108BC40010858
:1032000010B503220124044B2C2118465C701A705F
:1032100000F0D4F910BD00BF28170020F8B51348FE
:1032200000250EF081FA012602230327104C2022EC
:10323000294604F10C006371E5702571A670A77131
:103240000EF04BF931467E20E571A560FFF7A8FF2F
:1032500008480EF069FA20462C212770667000F0AD
:10326000ADF9BDE8F84004480EF05EBA4C400108E4
:10327000281700208C400108B440010838B51D4DC6
:103280002C21284600F0AEF968B32B78022B0AD91E
:103290006C78012C02D0FFF7C1FF6C78003418BFA6
:1032A0000124204638BD144C0521204600F09AF92F
:1032B0002378002BECD011480EF036FA6178A27812
:1032C00023790F48E9702A71AB700EF02DFA0122B4
:1032D00003232C2128466A702B7000F06FF90948EF
:1032E0000EF022FAD4E7044607480EF01DFA2046F5
:1032F00038BD00BF2817002054170020E43F010804
:103300001C400108B4400108B03F010838B5094C21
:1033100005460821204602F099FC2146A0601023B2
:103320006C6828460022A0470028D4BF0020012056
:1033300038BD00BF10180020012238B50A4C0B4BD5
:103340000546A42120462271236002F07FFC21461D
:10335000C4F8A400A8236C6828460C22A0470028C3
:10336000D4BF0020012038BD60170020BEBAFECABD
:1033700070B50546094C0A4B2046A82200211D6065
:103380000EF0ABF801210022064E074B28462660BE
:103390002171BDE870401A70FFF7CEBF60170020A2
:1033A00024180020BEBAFECA0818002030B5044612
:1033B000D5B02C4BA822002168461C600EF08DF879
:1033C000256869462046A8230C22A84738B1264B19
:1033D000009A9A4205D025480EF0A6F9002055B073
:1033E00030BDA4216846299D02F030FC854206D0FC
:1033F0002AA92568A4230C222046A847C0B96946FB
:10340000A8221B480EF05EF800211A4D1A4B2C78AA
:1034100003F1100013F8012B0AB101210C4683427D
:10342000F8D1E9B901231846144A137055B030BDDC
:103430002AA8A02102F00AFC529B984204D010480E
:103440000EF072F90020CAE70E480EF06DF9A822BE
:10345000694607480EF036F82046FFF76DFFCEE7C5
:103460002C70DFE724180020BEBAFECA30410108E4
:103470006017002021180020701700200818002075
:10348000404101085041010808B5044B18688368A1
:1034900098470028D4BF0020012008BD2418002030
:1034A00008B10120704708B5064B4FF496621868C2
:1034B0004FF48071C36898470028D4BF00200120D2
:1034C00008BD00BF24180020074B187850B1074BE7
:1034D0001B7833B1064B1B78002B0CBF0220032056
:1034E00070470120704700BF2018002008180020F6
:1034F0002118002038B515461022074CC4E90201F6
:103500002946A018C4F8A0300DF0DCFF034B186862
:10351000BDE83840FFF710BF6017002024180020D6
:1035200070B5114E84B005686946102300223060E2
:10353000A84708B904B070BD08216846029C02F093
:1035400085FB844205D009480EF0EEF8002004B057
:1035500070BD6946102206480DF0B4FF01231846DD
:10356000044A137004B070BD24180020744101088F
:103570001018002020180020034A044BC2E9000163
:103580001868FFF7C3BE00BF1018002024180020E1
:10359000014BD3E90001704710180020014BD3E91B
:1035A0000201704760170020004870477017002024
:1035B000014BD3F8A000704760170020802901D983
:1035C0000020704708B50A46014604480DF07AFF0E
:1035D000034B1868BDE80840FFF7AEBE8017002017
:1035E00024180020802901D90020704708B50A4618
:1035F00002490DF067FF012008BD00BF80170020C1
:10360000014B1868704700BF2418002063B130B424
:10361000064CCD18144414F8012F01F8012BA942CF
:10362000F9D1184630BC704718467047FFFF0708AD
:10363000084B9A69D1070BD49A69D20501D50220AB
:1036400070479B6913F4F05F14BF03200420704798
:1036500001207047003C024010B5FFF7E9FF012848
:103660000CD14FF4004400E04CB1FFF7E1FF01281A
:1036700004F1FF34F8D0002C08BF052010BD052050
:1036800010BD00BF00F1774303F57803B3F5804F19
:1036900070B54CD204460D46FFF7DEFF02280CD071
:1036A000042800D070BDFDF7CBFD022800D865B11D
:1036B0002570BDE87040FFF7CFBF1F4A936943F400
:1036C00080739361FFF7C8FFEAE724F003052E68D3
:1036D000FFF7C2FF02281AD0042804BF00232B6082
:1036E000FFF7BAFF02281AD00428DBD1FF221248C4
:1036F00004F003014368C9008A4026EA020623F465
:10370000807343602E60BDE87040FFF7A5BF0A4A92
:10371000936943F480739361FFF79EFFDCE7064AE9
:10372000936943F480739361FFF796FFDCE70349E5
:103730000320FDF7A3FA00BF003C0240103301084C
:10374000104B70B558681646C20703D50E480F4A8D
:10375000D860DA600B4A5368DB07FCD45EB101F134
:10376000006404F5002435192046FF210134FFF7D9
:1037700089FFA542F8D1034A3046536843F001035C
:10378000536070BD003C0240EFCDAB8905040302DD
:103790001148F8B544681F46E40703D50F4C104B99
:1037A000C460C3600C484368DB07FCD46FB10C46AF
:1037B000521A02F1006505F50025CE19281914F8F2
:1037C000011BFFF75FFFB442F8D1034A3846536844
:1037D00043F001035360F8BD003C0240EFCDAB89DC
:1037E00005040302114B70B55A68D20703D510497E
:1037F000104AD960DA600D4A5368DB07FCD4FDF744
:1038000003FD064658B100F100650B4C05F5002597
:103810002046FF210134FFF735FFA542F8D1034AC6
:103820003046536843F00103536070BD003C0240D2
:10383000EFCDAB89050403020000080810B4054968
:10384000054C064A064B80E812008260C36010BC3B
:10385000002070470D36000891370008E537000852
:10386000413700080146014800F0E0BE281800205A
:10387000134AF0B492E86800D16885EA060023F0A4
:103880000043434083EA430381EA510159405069B0
:1038900041F300042040176983EA8123434005EB8C
:1038A00013203C409769744040F30006374048407D
:1038B000784015605460D1609360F0BC704700BFE1
:1038C0002818002030B505468BB001A8FEF7B0FAE5
:1038D0004FF46160164A174BA2FB0512120C83FBD2
:1038E000021313449B10C3EBC303134CD31A04FB02
:1038F00013541249124AA1FB0451C90A00FB11409A
:10390000A2FB00425209C2EB0214A0EB8400049314
:10391000039102920190FEF7DBFB0022094901A806
:10392000FEF7E2FA01A8FEF77DFB0BB030BD00BF49
:1039300007452EC29324499280510100C5B3A2913C
:1039400089888888B93900080C4B1A6882420BD0E4
:103950001AB90FE0984204D01A461368002BF9D127
:10396000704703681360704712681A601AB1506894
:10397000FFF7A8BF70474FF0FF30F9E74418002069
:10398000FEF7DCBC00B58BB001A8FEF751FA4FF48E
:103990006162039B079802FB03F20649029B01FB4D
:1039A0000020C3EB0313019A00EB830010440BB01B
:1039B0005DF804FB80510100F8B5104CFFF7E2FF01
:1039C000236883B15E68B0420ED1002702E05D68D3
:1039D000B5420AD11A685F602260D8689A68904739
:1039E0002368002BF3D1F8BD3546FFF7CBFF002D40
:1039F000F9D02846BDE8F840FFF764BF441800201E
:103A0000F8B505460C46FFF7BDFF00232B600746BF
:103A1000FCF718FD6B680646D3B9A7426C6012D25A
:103A200010480368E3B15A68944203D218E05A6818
:103A3000944203D319461B68002BF8D12B600D600C
:103A400003689D4208D03046FCF704FD0020F8BD15
:103A50002846FFF779FFE0E72046FFF733FFF2E75C
:103A60000146EBE74418002038B50446FCF7EAFCB1
:103A70006368054613B12046FFF766FF2846BDE898
:103A80003840FCF7E7BC00BF826862B138B5044635
:103A90000D46FFF7E9FFFFF775FF41192046BDE826
:103AA0003840FFF7ADBF7047F0B41F4E3568002DAA
:103AB00030D01E4CAA6823689A4298BF2A4605D97E
:103AC00028E098682168884203D81A461368002BBA
:103AD000F7D133600023164F13603A68FAB151688A
:103AE0006E681368B1428CBF2E4616462A68CBB169
:103AF00092B1304601E008467AB159685468A14253
:103B00008CBF1146194601601B681268002BF2D168
:103B10000A603E60F0BC704731460B60F9E73D60DB
:103B2000F0BC70473146F3E7501800204C180020D5
:103B300058180020204B1A68824224D01AB905E098
:103B400098421DD01A461368002BF9D11B4B1A68F6
:103B500042B1904203D112E0984211D01A46136844
:103B6000002BF9D1164B1A6842B1904203D106E0FE
:103B7000984205D01A461368002BF9D170471A46AF
:103B800003681360704712681A6092B151680D4B58
:103B90001A68002AF2D14EF660200B4B00B5A3FB49
:103BA00001E39B0B00FB13105DF804EB0749FEF7E4
:103BB000A9BA4EF66021EAE75818002054180020F0
:103BC000501800204818002073B2E745D13B000888
:103BD00001232DE9F04F514D514A2C6883B01360F9
:103BE000002C00F08C8001AE3046FEF713FB019CE8
:103BF000DFF83081DFF834A1DFF834912B6893B11E
:103C000030465F68FEF706FB019A94422FD84EF6C5
:103C10006021A8FB07039B0B01FB1373934226D97A
:103C20009B1A012B23D03046FEF7F4FA019B9C42ED
:103C30003AD82F683046002F44D07F68FEF7EAFA62
:103C4000019B02339F42D9D30023354A1360126887
:103C500052B94EF66020334BA3FB07139B0B00FBBE
:103C600013703149FEF74EFA03B0BDE8F08F4EF6FF
:103C7000602701E093450DD92B6830465A68A8FBB0
:103C800002134FEA933B07FB1B2BFEF7C3FA019A83
:103C9000A242EFD200222B6819685A609A6029600C
:103CA000DA6818699047A9E70024DAF80030D9F8F3
:103CB00000200133CAF80030C9F800402A60FFF73D
:103CC000F3FE9BE7FEF7A6FA019A944209D84EF656
:103CD0006020911CA8FB01439B0B00FB13139A422D
:103CE00019D9DAF80030D9F800200133CAF80030C9
:103CF0002A60C9F800703C46FFF7D6FE7EE70B4904
:103D00000B4A0B68106801330B602860146001AE29
:103D1000FFF7CAFE6CE7074696E700BF5818002079
:103D20004818002073B2E745D13B00084C1800202A
:103D30005418002008B5FEF701FB054B1A6802B1C4
:103D400008BD1046BDE808400249FEF7DBB900BFD8
:103D500048180020D13B000838B50446FCF772FB38
:103D6000636805460BB9A36813B12046FFF7E2FE6E
:103D70002846BDE83840FCF76DBB00BFC368002B88
:103D80007CD0F0B50C4683B00546FFF7E5FF012C6B
:103D900041D901A8FEF73EFA4EF65D23019901A82C
:103DA0000C449C4284BFA4F56A445E3CFEF732FAA0
:103DB0000023019F2B60BC4202D3A31E9F422AD83E
:103DC000FCF740FB6B6806460BB32846FFF7B2FED4
:103DD000324BBC4219681B6838BF01318B426C60A2
:103DE000A9601DD22E48036853B19A688A4203D352
:103DF00006D15A68944203D318461B68002BF4D1AD
:103E00002B6005603046FCF725FB03B0F0BDAB68C6
:103E1000002BDAD1DCE7EB682869984703B0F0BDE6
:103E20004EF660221F4BA3FB07139B0B02FB13777D
:103E3000BC4224D91C480368002B2DD05A689442F8
:103E400003D229E05A68944203D319461B68002B19
:103E5000F8D12B600D6003689D42D3D1134B1A68D3
:103E6000002ACFD14EF660200E4BA3FB04139B0B10
:103E700000FB13400E49FEF745F9C3E770470D49B3
:103E80000B681BB905E019461B6813B15A689442C8
:103E9000F9D22B600D60B5E70146DAE74C18002037
:103EA0005018002073B2E745581800204818002029
:103EB000D13B0008541800202DE9804887B09D4D63
:103EC00000AFB8602868904683688B469A68013ACC
:103ED000002A9A60C0F2D1813E211A68501C1860F5
:103EE0001170286882689368013B002B9360C0F2D0
:103EF000BC8120211368581C106019702B684FF08A
:103F0000000A98680DF0BAF908F1FF385C460026FF
:103F10004FF0080946452BDA286841684B68013B99
:103F2000002B4B60C0F287800B685A1C0A6019781E
:103F30000D2900F087800A2900F08480082936D0F6
:103F40007F2934D05FFA81FE84F800E028680134CC
:103F500082689368013B002B9360C0F2AC801368C9
:103F6000A4EB0B06591C4645116083F800E0D3DB37
:103F7000286882689368013B002B9360C0F2C78079
:103F80003E211368581C1060197028688268936875
:103F9000013B002B9360C0F2B28020211368581CB3
:103FA000106019702B6898680DF068F9AEE7A345AA
:103FB000B0D004F801AC2868013C82689368013BEA
:103FC000002B936020DB1368591C116083F800906C
:103FD000286882689368013B002B936024DB136898
:103FE000591C11604FF020021A702868826893688B
:103FF000013B002B93600EDB1368A4EB0B06591CEE
:10400000116083F8009085E791698B42DBDA082123
:104010000DF0D8FDDCE791698B42EDDA08210DF057
:10402000D1FDA4EB0B0675E791698B42D7DA20210D
:104030000DF0C8FDD9E70DF07FFB011E98DB0D29BF
:104040007FF479AF84F800A0286882689368013B08
:10405000002B936066DB0D211368581C10601970EB
:1040600028680A2182689368013B002B936056DB25
:104070001368581C10601970A3453FF479AF0021F4
:104080005B460E461878202835D9222823D02728C9
:1040900006D120E058780133222808D0202829D9D9
:1040A0005C28F7D15A7801310133002AF2D1224835
:1040B0000DF03AFB5CE79669B34203DBBEF10A0FF1
:1040C0007FF44DAF0DF07EFDA4EB0B0622E790428E
:1040D00003F101030BD05A78002AE8D05C2AF6D10C
:1040E0009A7801310233002AE1D09042F3D15A7814
:1040F000202ADCD8013608B303F801ABC2E7916986
:104100008B42BFF64AAF20210DF05CFD4AE7916972
:104110008B42BFF635AF3E210DF054FD35E70DF073
:1041200051FDA9E791698B4295DA0D210DF04AFD09
:1041300096E700BF8C0400208C410108002E3FF45C
:1041400017AFB3000E3323F00703C7F804D0ADEB6D
:10415000030DE94604465B464DF82600ADF1040E1A
:104160001A781AB913F8012F002AFBD0222A49D055
:10417000272A47D01A784EF8043F1AB113F8012FB6
:10418000002AFBD10134A642EAD1D9F80040A9B1F6
:10419000CE469CB123781BB92FE014F8013F63B3DE
:1041A0005C2BFAD123782BB123465A7803F8012BE4
:1041B000002AFAD10139F0D1D9F800400022B968BB
:1041C000FA600B46314A39617A613E60E3B11868A2
:1041D000D0B11E4602E056F80C0FA8B121460DF0F2
:1041E000ADFB0028F7D133469B683E688BB149464A
:1041F00030469847D7F804D0BAE65EF8044F002C52
:10420000C8D1D9E70133B5E7FB680133022BFB6066
:1042100029D1D9F800101E480DF090FB0446E0B9F2
:104220001C4A1D491D480DF00BFA1D480DF07CFA83
:10423000BB681E463B61154B7B614EB1316839B19D
:10424000726816480DF0FCF956F80C1F0029F7D1DA
:104250000134022CCED07E69EFE7D9F80010114866
:104260000DF0EEF9C6E77B69B0E791698B42BFF6C6
:1042700040AE20210DF0A6FC40E699698A42BFF6C7
:104280002BAE1A463E210DF09DFC2AE6184201088D
:10429000A8410108B0410108BC410108C44101081E
:1042A000D0410108F841010808B5FCF7B9F8002031
:1042B00008BD00BF08B5FEF7E1F8002008BD00BF4B
:1042C000012838B50CD048680CF022FF044601469E
:1042D0000C480DF0B5F92046FFF7C4FA002038BDB0
:1042E000094D00202C68FEF741FB2B689C42F8D159
:1042F0000443214605480DF0A3F92046FFF7B2FA22
:10430000002038BD54430108800700202C430108D9
:1043100008B5FFF7ADFA014602480DF091F900200B
:1043200008BD00BF2443010830B5C3680269416974
:1043300005684468806885B08DE83100013201F27B
:104340006C7103480DF07CF9002005B030BD00BF52
:104350008843010801480DF0E7B900BF7843010820
:10436000F0B583B00C46054601A90A2200680DF09D
:1043700013FC019B00B2A0F26C70606101A9581C93
:104380000A220DF009FC019B00B20138206101A94D
:10439000581C0A220DF000FC00B2E06001A9686818
:1043A0000A220DF0F9FB019B00B2A06001A9581C84
:1043B0000A220DF0F1FB019B00B2606001A9581CBC
:1043C0000A220DF0E9FB6369256903F26C73012D84
:1043D000D8BF013B00B220604FF0FF30002BA8BFD8
:1043E0001E4620624FF000001049B8BFDE1C81FB62
:1043F0000371DA170E4F03EBA603A2EB61163344E9
:10440000C2EBE11257F825101344E2680B44094946
:10441000134481FB0321DA171944C2EBA102C2EB5A
:10442000C2029B1AA36103B0F0BD00BF1F85EB5110
:104430000C4601089324499230B501288BB055DD14
:104440000D460422574968680DF092FA0446002888
:104450003DD00722544968680DF08AFA04460028C6
:104460003FD00822514968680DF082FA04460028BE
:1044700032D008224E4968680DF07AFA04460028C6
:1044800056D008224B4968680DF072FA044600289D
:1044900063D00822484968680DF06AFA044600288B
:1044A00049D00722454968680DF062FA04460028A1
:1044B0005FD00722424968680DF05AFA0446002886
:1044C00060D069683F480DF0BBF8012401E0FDF7BA
:1044D00035FF20460BB030BDFDF75AFF20460BB02C
:1044E00030BDFDF7FDFE20460BB030BD012436483F
:1044F0000DF01AF935480DF017F935480DF014F99B
:1045000034480DF011F934480DF00EF933480DF030
:104510000BF933480DF008F932480DF005F932482F
:104520000DF002F931480DF0FFF820460BB030BD18
:10453000FDF7CEFDCDE705F1080001A9FFF710FF5B
:104540000028C6D101A822462949FDF7CDFC01303B
:10455000BFD128480DF0E8F8BBE701A8FDF762FDE0
:1045600018B125480DF0E0F8B3E701A8FFF7DCFE2D
:10457000AFE701A8FDF75CFC0028F6D01F480DF05E
:10458000D3F8A6E705F1080001A9FFF7E9FE002826
:104590009FD101A8FDF7B4FB01309AD118480DF066
:1045A000C3F896E73C450108444501084C4501081D
:1045B00058450108644501088C450108B4450108C7
:1045C000D4450108F4450108A8430108CC4301087B
:1045D000D8430108F84301081C440108404401087D
:1045E0006C44010898440108E044010804450108AE
:1045F000554300089845010870450108BC4501086D
:10460000DC450108036833F000430DD143685BB912
:1046100083684BB9C3683BB910B45421592449226B
:104620004E2380E81E0010BC704700BF2DE9F0410A
:1046300005460124476986690369224622482960A4
:10464000AF60EE606B6003E055F8231055F8223040
:1046500081EA917100FB014101345940082C04F1B9
:10466000FF3345F8221003F0030304F00302EBD1FB
:104670002846FFF7C7FF95E88800EA68AE68D5F8D6
:1046800010C0D5F814E000E0074687EA060123F0E1
:1046900000434B4083EA430383EA52014A4042F31A
:1046A000000183EA822801EA0C00013C01EA0E01C4
:1046B00080EA06003B4688EA0106E5D12F60EA6001
:1046C0006860AE60BDE8F0816589076C30B4044B6A
:1046D000044D054C286021601A6030BC704700BF53
:1046E000881800208018002084180020194B2DE91C
:1046F000F0411B68184C9A42A8BF1A461546246818
:104700000138023303FB0044144E82B03068224665
:104710002B4607688846B847002817DB0023306817
:1047200002A921F8023D621902230468A04700286B
:104730000CDB2946404601F061FABDF80630181A34
:10474000B0FA80F0400902B0BDE8F081002002B06C
:10475000BDE8F0818818002084180020801800200F
:10476000F0B5154B83B01D68954202D2002003B00E
:10477000F0BD0F46114B11461B68441E02353846EA
:1047800005FB0434164601F039FA0D4DADF806006C
:1047900028683946224647683346B8470028E5DB93
:1047A00028683219022344680DF10601A047C0436E
:1047B000C00F03B0F0BD00BF88180020841800208F
:1047C0008018002038B505460CF074FE38B1044658
:1047D000681E2044FEF7BEF908B1204638BD00240B
:1047E000204638BD2DE9F84F3349804610227E20FF
:1047F000FFF77CFF20B9014610222F480CF06DFE18
:104800002E4F4FB32E4B3BB3022301262D4C2E4D82
:10481000DFF8C0B0DFF8C0A0DFF8C09009E01834BE
:10482000D5B1D4F80F30BBB12F4614F8013CD4F801
:10483000235059095BF8211003F01F0306FA03F314
:104840000B42ECD0214650460CF0FAFE4146484659
:10485000B8471834002DE4D11C498A683AB3164F82
:1048600000253C46BE1814F8013B03B90135A642A9
:10487000F9D1CE68AE421DD94FF0000E1448104455
:104880003978134B13F8012B8A4204D09842F9D19E
:1048900087F800E00135AE4202D90137A742EFD1D7
:1048A0001022BDE8F84F04497E20FFF759BFCB68BE
:1048B000002BF5D1BDE8F88F8C180020698800081E
:1048C000E98800084D460108B18C0008AC180020AA
:1048D0009C1800205C1800200C4901087C1800205E
:1048E0002DE9F84F1C4B80460F461C4C0125002635
:1048F000DFF874A0DFF874B0DFF87490F3B1D4F887
:104900000F30DBB1012114F8013C5A0958F822207C
:1049100003F01F00814011409FB129B14946013683
:10492000224650460CF08CFE0D4B05EB450203EB86
:10493000C203DB6818340135002BE0D13EB1BDE87D
:10494000F88F00290CBF594649460136E8E705486B
:10495000BDE8F84F0CF0E8BE698800084D46010834
:104960004C460108504901083C49010838490108F2
:10497000344901080146202201480CF0A3BD00BFC4
:104980005C180020124BEBB1124BDBB1022830B4A3
:104990001AD0114D114B2A46002106E0936A3BB113
:1049A00012F8184F844206D0536A0131002BF5D11A
:1049B000184630BC704701EB4101C800431CE818A1
:1049C00030BC7047184670470123034DF7E700BF1E
:1049D00069880008E98800084C460108B18C000885
:1049E000124BFBB1124BEBB102281DD030B4114D6C
:1049F000114B2A46002106E0936A3BB112F8184F8A
:104A0000844206D0536A0131002BF5D1184630BCE0
:104A1000704701EB410105EBC103181C18BF0120D1
:104A200030BC7047184670470120704769880008FD
:104A3000E98800084C460108B18C0008104B7BB196
:104A4000104B6BB102280DD00F4B104A43B1936A43
:104A500033B112F8183F834204D0536A002BF6D1C9
:104A60001846704701230A4A410952F8212000F0F4
:104A70001F0003FA00F0104214BF184600207047D0
:104A800069880008E9880008B18C00084C460108D4
:104A90005C180020134B1BB3134B0BB302281ED022
:104AA000F0B4124E0F46124B3446002506E0A36ABE
:104AB0003BB114F8183F834206D0636A0135002BDE
:104AC000F5D11846F0BC704705EB450506EBC5056A
:104AD0006B69002BF5D03846F0BC1146184700230F
:104AE0001846704769880008E98800084C460108A4
:104AF000B18C000870B50C4615460646FFF79EFFC0
:104B000008B9FF2070BD104B93B1104B83B1022E3A
:104B100010D00F480F490346002206E0996A39B1C8
:104B200013F8181FB14209D0596A01320029F5D192
:104B300000231B6929462046984770BD02EB4202BC
:104B400000EBC2021369F5E769880008E9880008EC
:104B50004C460108B18C0008034B1B6823FA00F097
:104B600000F00100704700BF7C180020F0B4002462
:104B700006460F4623460A4D29590C3421B101330C
:104B8000132BF9D1F0BC704703EB43039B00EC18E7
:104B90003146EE506760A2600248F0BC0CF050BD98
:104BA000700200207448010870B5064600240A4DC2
:104BB00002E00134172C0CD0294630460CF0BEFE22
:104BC00018350028F5D1054B04EB440413F83400E4
:104BD00070BD4FF0FF3070BD4D4601084C460108D6
:104BE0001F289ABF024B53F820000020704700BFD7
:104BF0008C4801082020704700232DE9F0410F1E4A
:104C000086B006461546037003930493ADF814303E
:104C10002BDB184903A80CF082FE01243DB10021D2
:104C2000013104EB8404A9424FEA4404F8D12B4635
:104C3000114A02A803210CF0ABFD02A903A80CF055
:104C40006EFE97FBF4F528460CF05EFA804604FBF6
:104C500015700CF059FA4346009003AA30463221F1
:104C60000CF096FD06B0BDE8F081044903A80CF0F5
:104C700056FECEE73C460108444601083849010883
:104C80000378402B0ED84278303BDBB21801402A23
:104C900040B211D9602A94BF373A573AD2B2104382
:104CA000C0B27047602B94BF373B573B4278DBB2B2
:104CB0001801402A40B2EDD8303AD2B21043C0B207
:104CC000704700BF38B505460424FCF7B5FF2846F9
:104CD000FCF7CAFF322002F031FC013CF7D1284634
:104CE000BDE83840FCF7B4BF30B5264887B00CF0BB
:104CF0001BFD25480CF018FD24480CF015FD244838
:104D00000CF012FD1F480CF00FFD224B224A2349E4
:104D100023480CF095FCFCF793FA022801AC2AD04A
:104D2000032822D001281AD01E4A1F4B12682146A0
:104D3000A3FB02321D481E4B920C0CF081FCFCF7C9
:104D40002FFA0446FCF746FA0546FCF75DFAAA0A74
:104D5000830AA10A17480CF073FC07B030BD204647
:104D6000154A14210CF014FDDEE72046134A1421E5
:104D70000CF00EFDD8E72046114A14210CF008FD76
:104D8000D2E700BF704901089C490108C8490108E1
:104D9000E84901080C4A0108184A0108244A010898
:104DA0002C4A01089C14002083DE1B436C4A010836
:104DB000A0140020844A0108444A0108604A0108FE
:104DC000504A010811F0010F22D138B583B18C1E71
:104DD0004D1004440AD0114615442046FFF750FFF9
:104DE00001F8010BA942A4F10204F6D1012038BD5B
:104DF0000378002BFAD00446511E2046FFF740FFEF
:104E000001F8010F14F8023F002BF6D1012038BD44
:104E1000002070472DE9F04105460E4617460CF07C
:104E20009FFD2844411B10F8014D0D2CFAD00A2C8F
:104E3000F8D03B4632462846BDE8F041FFF7C2BFF6
:104E400009B32DE9F04F0E469946904607460024D7
:104E5000DFF834A083B001F1FF3BB9F1000F10D0AF
:104E6000ABEB04057A5D514601A80CF0C5FC01349A
:104E700001A940460CF053FDA642EED103B0BDE8B7
:104E8000F08F2546EEE7704768490108002210B50B
:104E9000044682B002A941F8042D0CF07DFE2046A4
:104EA0000CF05EFD019B2044181AB0FA80F0400916
:104EB00002B010BD0022024B02481A600CF034BC54
:104EC00094080020084E0108F8B51B480CF02CFC93
:104ED0001A4A00211A480CF0B3FB1A491A480CF080
:104EE000AFFB1A480CF0ACFB194917480CF0A8FBB3
:104EF00016480CF0A5FB174913480CF0A1FB164807
:104F00000CF012FC154A01210D480CF099FB00240D
:104F1000134D0D4E0D4F013455F8041B30460CF067
:104F20008FFB022C04D10C480CF0FEFB0020F8BDD6
:104F300038460CF085FBEEE7F052010840530108BB
:104F400008530108A027BE33D87F01081453010875
:104F5000E034C1332042C433384E010860530108A5
:104F60006C530108002208B5044B05481A700CF078
:104F7000DBFBBDE808400348FFF7A4BEC0180020D3
:104F8000404C01080004024070B50328ACB00C4648
:104F900020D090480CF0C8FB8F480CF0C5FB684649
:104FA000FEF7C2F89DF80730002B40F085808B4853
:104FB0000CF0BAFB01218A480CF042FB89480CF046
:104FC000B3FB89480CF0B0FB88480CF0ADFB884877
:104FD0000CF0AAFB656887492846A4680CF0AEFC73
:104FE00048BB01460A2220460CF0D6FDC0B2062876
:104FF00077D8814C21AD84F8680094F86C00FEF7F6
:10500000ABF82846FEF790F89DF88B30002B37D18F
:1050100094F86900FEF7A6F894F86800FEF7A8F87F
:1050200094F86B00FEF7AAF894F86A00FEF7ACF863
:1050300000202CB070BD714928460CF07FFC28BBC5
:1050400001460A2220460CF0A7FDC6B20BA8FEF7C7
:105050006BF86B4C9DF82E3004EB43139B7A9E4209
:1050600045DA654C21AD94F86C0084F86960FEF770
:1050700073F82846FEF758F89DF88B30002BC7D000
:1050800041F2C853E058FEF785F8C1E75D4928466C
:105090000CF054FC064698B920460A2231460CF022
:1050A0007BFDC0B2022857D8534C3146FEF74EF86C
:1050B00021AD94F86C00A2E753480CF035FB76E77D
:1050C000524928460CF03AFCF8B901460A2220461B
:1050D0000CF062FD484C21AD84F86B0094F86C0034
:1050E0008DE74B480CF020FB01202CB070BD16A8BA
:1050F000FEF71AF89DF85A30464804EB4314A17A9B
:1051000001390CF09DFA012093E7434928460CF041
:1051100015FC88B92378A3F14102022A29D8412B32
:1051200020D0422B0CBF01230223334C21AD84F845
:105130006A3094F86C0062E7384928460CF0FEFBB0
:10514000E0B920782C4CA0F13100B0FA80F0400991
:1051500021AD84F86C0052E7012131480CF070FA5F
:10516000012066E7244C21AD84F86A0094F86C00B5
:1051700045E72C480CF0D8FA01205AE728462A497E
:105180000CF0DCFB064620B11B4C21AD94F86C0002
:1051900035E720460CF0E4FB0828014604D02348FC
:1051A0000CF0C2FA012044E72CAD45F82C6D2046E6
:1051B0002A460123FFF706FE38B141F2C8530E4CD0
:1051C000219A94F86C00E25019E719480CF0ACFAF7
:1051D000E8E700BFE84E0108044F0108644F0108EA
:1051E000B04F0108D84F01080C5001085850010871
:1051F000C0500108E4500108E818002014510108CB
:1052000040530108045001080C4F01087451010873
:10521000E8500108185101087C5101089C5101080F
:105220004451010884510108A4510108AC510108FE
:10523000E8510108F0B50128ADF5037D52DD48685D
:105240000D460BF065FFC6B23046FFF7C9FB0028DC
:105250003BD08422002101A80CF03FF9A8680CF093
:105260007FFB10F0010704464DD1FD2842DC3A4691
:105270000DF10501A86804EBD474FFF7CBFD6410B1
:105280008422394622A88DF80440ADF884700CF0D1
:1052900024F922AA01A93046FFF72CFC0446FC227F
:1052A000394643A80CF019F99DF888103B4643AAEB
:1052B0000DF18900FFF7C4FD43A974B916480CF03D
:1052C000BFF920460DF5037DF0BD14480CF02CFA13
:1052D000012420460DF5037DF0BD11483C460CF03D
:1052E000AFF9F6E701240F480CF01EFA20460DF541
:1052F000037DF0BD01247E210B480CF0A1F920466E
:105300000DF5037DF0BD012408480CF00DFA204690
:105310000DF5037DF0BD00BFF44D0108304D0108CF
:10532000E44D0108144D0108A84D01085C4D010829
:1053300008B500210120FCF7AFFF08480CF0F4F994
:10534000BFF34F8F0649074BCA6802F4E06213436C
:10535000CB60BFF34F8F00BFFDE700BFD04E010809
:1053600000ED00E00400FA0500B507488DB00CF030
:10537000DBF901A8FDF7D8FE04A80021FFF7B0FA79
:1053800000200DB05DF804FB244E0108F0B5544830
:10539000ADF51B7D0CF0C8F9FEF7FAF807460E468E
:1053A000FEF7FCF8054668460C46FDF7BDFE4D4B82
:1053B0004D4A9DF807104D4800290CBF114619466B
:1053C0000CF03EF90BA8FDF7AFFE9DF83330002B33
:1053D0007CD016A8FDF7A8FE9DF85F30002B6DD19C
:1053E00021A8FDF7A1FE9DF88B30002B5ED1314640
:1053F0003A463F480CF024F92A4621463D480CF035
:105400001FF937A8FDF790FE3B4C9DF8DE103B4896
:1054100004EB41110CF014F942A8FDF785FE4DA8EC
:105420009DF80B61FDF780FE58A89DF83651FDF7F9
:105430007BFE9DF86331314603EBC50304EB830427
:10544000E2682F480CF0FCF863A8FDF76DFE9DF8AC
:1054500090112C480CF0F4F86EA8FDF765FE9DF84D
:10546000BD31012B20D079A8FDF75EFE9DF8E93112
:10547000022B0CBF4321412123480CF0E1F884A802
:10548000FDF752FE9DF8161220480CF0D9F820487E
:105490000CF04AF98FA8FDF747FE012192A8FFF70B
:1054A0001FFA0DF51B7DF0BD4221E5E72CA8FDF7A5
:1054B0003BFE2E9917480CF0C3F898E7FEF778F8F2
:1054C00000F00F0114480CF0BBF889E7FEF76CF808
:1054D00003461248DA7B997B0CF0B2F879E700BFFB
:1054E00020520108185201081C52010838520108C4
:1054F00084390108BC390108405301088C52010865
:105500009C520108B0520108C0520108CC52010857
:10551000DC5201087C52010864520108485201081B
:1055200008B5FFF733FF002008BD00BF08B501F044
:1055300045FEBDE808400F210148FEF7A5BA00BFAF
:10554000C41800200146002310B590F8820084B0F2
:1055500011F8012B8DE8090001231A4800F054FED0
:10556000011E05DB184804B0BDE81040FFF7AABBD8
:105570000A1D1CD04B1D08D014480CF061F81248CD
:1055800004B0BDE81040FFF79DBB114C11480CF072
:10559000CBF823788BB910480CF0C6F8237809486B
:1055A000772B9CBF0133237000F098FEDAE70B489D
:1055B00003910CF0B9F80399DEE709480CF0B4F850
:1055C000D0E700BFE8180020000402407855010829
:1055D000C0180020FC54010838550108D8540108AF
:1055E0005455010830B5B9B001A8FDF79DFD9DF8EF
:1055F0000B300BB139B030BD2A4D0CA8FDF794FD2E
:105600002B789DF836209A4206DA17A8FDF78CFD14
:105610009DF86140002C40D023480CF085F82B7891
:10562000013BC3EB03135C00FEF722F902461F4B5C
:105630000534A3FB0213DB0803EB830303EB8303B3
:10564000D31A1C4421461A480BF0FAFF204601F0F9
:1056500045FF2B7822A8772B9CBF01332B70FDF7D9
:1056600063FD9DF88D306BB112480CF05DF82B781E
:105670001148772B9CBF01332B7039B0BDE8304007
:1056800000F02CBE2C782DA8FDF74EFD21469DF88C
:10569000BA200A480BF0D4FFE9E709480CF044F8B7
:1056A0002C70A7E7C01800209C4C01081F85EB5107
:1056B000C44C0108044D0108E8180020E04C010822
:1056C0006C4C010800B58DB001A8FDF72DFD9DF8CB
:1056D0000B3073B90A480CF027F80A4A0A481378C5
:1056E000772B9CBF013313700DB05DF804EB00F015
:1056F000F5BD06480DB05DF804EB0CF015B800BF21
:10570000CC4A0108C0180020E8180020E04A01082F
:10571000022870B52BDD48680C46FFF7B7FBB8B917
:105720006068FFF741FAC6B23046FFF759F90546FF
:10573000C0B1A068FFF7AAFBF0B91C49A0680CF043
:10574000FDF828BB30462946FDF72AFD002070BD34
:1057500060680BF0DDFCC6B23046FFF741F9054644
:105760000028E6D112480BF0DFFF012070BD114880
:105770000BF0DAFF012070BDA0680BF0C9FC051C1E
:1057800018BF012530462946FDF70AFD002070BDEF
:105790000949A0680CF0D2F808B90546D2E7A1681B
:1057A00006480BF04DFF012070BD00BFA44E01085C
:1057B000784E01083C4E0108AC4E0108B44E010879
:1057C00030B50C460546DFB06422002103A80BF07B
:1057D00084FE03AA002321462846FFF731FB03A9D4
:1057E00023480BF02DFF2348FFF76CFA012C20D93A
:1057F0002946013C11F8015B22460DF171000BF0C6
:1058000061FE41F2F8631C4A0021D35A3DA884226C
:10581000ADF8F0308DF870400BF05FFE3DAA1CA98A
:105820002846FFF767F9FF2806D0F0B900205FB0DF
:1058300030BD01205FB030BD012302228DF8F5009C
:105840008DF8F6508DF876318DF8F4200021012383
:10585000019100930DF1F501074800F0D5FC011E00
:10586000E4DA06480BF0ECFEE0E79DF8F420EDE703
:10587000B04A010800040240E818002078550108E9
:1058800030B50C460546BBB06422002168460BF0DB
:1058900024FE6A46002321462846FFF7D1FA6946CE
:1058A00011480BF0CDFE1148FFF70CFA012C18D966
:1058B0002946013C11F8015B22460DF165000BF011
:1058C00001FE41F2F8630A4A2846D35A19A9002278
:1058D0008DF86440ADF8E430FFF7DCF800203BB011
:1058E00030BD01203BB030BD144B01080004024024
:1058F000E81800200121F0B500224FF0FF36114BCF
:10590000114F124D124CDFF858E01248197083F80D
:10591000481011495F60DD60053F043D1C61A4F63D
:105920000204C3F814E09861DF611E629D605C624E
:105930000A48D96283F84920BDE8F0409A620BF02A
:10594000F3BE00BF383000200C0402400C000240BF
:105950000D08024006040240A05CCA331853010837
:105960000000024070B5ADF51C7D0446FDF786FCD5
:1059700008BB8B480BF0D8FE8A480BF0D5FEFFF72A
:1059800005FD002504F10C02104652F80C3B0135D0
:10599000002BF9D1844A52F80C1F01330029FAD1A7
:1059A0002B44122B00F3F880F0227F490BF08AFD84
:1059B0000DF51C7D70BDFFF7E9FCFFF79BFF2EA8DE
:1059C0007A4DFDF7B1FB9DF8BD3039A885F86A30F6
:1059D000FDF7AAFB9DF8E83044A885F86830FDF78C
:1059E000A3FB9DF813314FA885F86930704EFDF781
:1059F0009BFB9DF83E315AA806EB43130C332B63F7
:105A0000FDF792FB9DF86A3106EB4316B37A6B63A0
:105A1000FDF7C4FDC5E90201FDF7BAFDC5E90001C6
:105A200065A8FDF781FB9DF89B3170A885F86C3067
:105A3000FDF77AFB9DF8C731002B40F08D80FDF714
:105A4000B3FD1022014605F158000BF03BFD59490A
:105A5000594A5A4B91A8A9676A67C5F88030FDF783
:105A600063FB574B5749584A9DF84A624F48C5F85F
:105A70008830E967C5F8842085F86B6000F082FC07
:105A800002A8FDF751FB05A8FEF774FF0DA8FDF76E
:105A90004BFB202210A94D480BF014FD18A8FDF770
:105AA00043FB9DF8653085F86A30FDF7A9FD4FF49A
:105AB00080711822FEF70AFE0020FCF701FC042189
:105AC00006464348FBF746FF28BB4148FCF778F8F9
:105AD00020BB00210846FCF7DFFB3E480BF024FE0C
