:020000040800F2
:10000000000200206D040008F50400080505000842
:10001000E9060008F90600080907000800000000CA
:1000200000000000000000000000000005040008BF
:100030001907000800000000E9030008B5010008E6
:10004000B5010008B5010008B50100082923000822
:10005000B5010008B5010008951B0008951B0008B4
:10006000951B0008951B0008951B0008B5010008AA
:10007000B5010008B5010008B5010008B501000888
:10008000B5010008B5010008B5010008B501000878
:10009000B5010008B5010008B5010008951B00086E
:1000A000B5010008B5010008B50100087128000875
:1000B000B5010008B5010008B5010008B501000848
:1000C000B5010008B5010008B5010008B501000838
:1000D000B5010008F926000839270008792700082B
:1000E000951B0008C9220008B5010008B5010008E9
:1000F000B5010008B5010008B5010008B501000808
:10010000B5010008B5010008B5010008B5010008F7
:10011000B5010008B5010008B5010008B5010008E7
:10012000B501000800F008BB704700BF70B50C4671
:10013000064600F087F90B4B0B4A1D682C4494428D
:1001400007D80A4A944204D31C6000F083F9284679
:1001500070BD0C234FF0FF35336000F07BF928466B
:1001600070BD00BF00020020008000200078002049
:100170001946104600F0ECBA1946104600F0F0BAE5
:10018000132303604FF0FF30704700BF1323036059
:100190004FF0FF30704700BF132303604FF0FF3074
:1001A000704700BF0346002202298CBF00200120B7
:1001B0001A60704700F0B8BA70B50024104A114BAD
:1001C000114E10681C60356800F0A0F80F4B53F812
:1001D00020301B68A3F1080295420FD025B1297980
:1001E000092904BF0A212971092033F9024C084961
:1001F00003F8040C012032600C8070BD204670BDF5
:10020000A80E0020B40E0020B00E0020BC0E00206E
:10021000AC0E00200829F0B4037919D9082B14D8A2
:1002200042791C4C00F1080654F8223053B31B6885
:10023000836054F822301E6047790123164DBB407D
:100240002F6844F822603B432B600171F0BC70477B
:10025000082BFAD942790F4C54F822304BB11D6863
:10026000AB4212D02A681A60427954F82230002B2F
:10027000EBD10123084C03FA02F2236823EA0203BC
:100280002360E2E717468660D7E7002344F8223070
:10029000EFE700BFBC0E0020A80E002008B50A4BF7
:1002A0001B681A79082A02D95B79834206D900F0C3
:1002B000D5F820B10122054B1A6008BD08BDBDE884
:1002C000084000F089B800BFB00E0020B40E002036
:1002D000002480B500F0B6F8084E094B094D1A8885
:1002E0003368094F12B2013B2146286847F8224083
:1002F0003360FFF78FFF2C6000F06AF8B80E002023
:10030000AC0E0020B00E0020FC0E0020034640B1D1
:1003100010F0010005D15B08DA0700F10100FAD501
:1003200070470020704700BFF0B54FF07735134499
:1003300023F003031C1F620743F8045C05D54FF04C
:100340008832A3F1080443F8082C4FF0807C4FF06A
:10035000000E03270226012522460B2304E9011083
:100360000B4844F810EC44F8147C44F8186C44F83A
:100370001C5C44F80C0C42F8201D42F8043D013B83
:10038000032BFAD120466FF0020340F8443DF0BD44
:10039000D1020008074B084A19680848914204D066
:1003A00005E053F8042F8A4201D18342F9D3C01AE1
:1003B000704700BF00000020FEE7FEE700020020BB
:1003C000EFF30880704700BF00487047000000202E
:1003D00000F03CF801DFFEE7024A536843F0805327
:1003E0005360704700ED00E0EFF3098020E9F00F63
:1003F00040F804ED02490968086000F003F80000C5
:10040000B00E0020FFF7D8FE04480068016801C95B
:10041000B1E8F00F81F3098800470000B00E00201A
:10042000BFF34F8F0549064BCA6802F4E0621343DD
:10043000CB60BFF34F8F00BFFDE700BF00ED00E0D2
:100440000400FA05EFF3108072B6704762B6EFF35E
:100450001080704780F31088704700BFEFF305806D
:10046000C0B27047704700BF704700BF08B5FFF7C4
:10047000F9FF6A46184B9A4204D9184943F8041BFD
:100480009A42FBD8164B174A93420CD2D8431044D9
:1004900020F003000430144A184452F8041B43F8B7
:1004A000041B8342F9D1114B114883420AD2DA432B
:1004B0000021024422F0030204321A4443F8041BD0
:1004C0009342FBD1FFF7D0FF00F06AFB09F0E2FF97
:1004D000BDE8084000F0B0BB00000020FEE7FEE7EA
:1004E00000020020A80E002074F10008A80E0020D1
:1004F0000078002008B50249042000F061FB00BF2D
:1005000080B900080D4B0E4A0E496846904203D848
:10051000984201D9002102E009468D4601210420BC
:100520007246024202D1EFF3088001E0EFF3098046
:100530002DE9F00F6B4600F007F800BF60050020C2
:1005400000800020000200202DE9F04FDFF890E14C
:100550008FB00D93DEF83830DFF888810B93DEF82A
:100560003430DEF828500C93DEF82C30494F0293DB
:10057000DEF8303004460393D8F800300E46BB4214
:100580009246DEF83C9002D043480AF0D9F8002E9B
:1005900049D194E80E00E068E76904902069D4F836
:1005A00018B00590606909930690B80554BF04F12E
:1005B000200004F124000A903848089207910AF0BC
:1005C000BFF8049B07A900930EC935480AF044F808
:1005D0000097069A05995B4632480AF03DF8324882
:1005E0000AF0AEF8294631480AF036F80299304848
:1005F0000AF032F803992F480AF02EF849462E489F
:100600000AF02AF82A0439D42B0632D42B480AF0EF
:1006100097F851462A480AF01FF85EB101BE2949F1
:10062000052000F0CDFA002327480A939B460AF0E4
:1006300087F8D4E725480AF083F8594624480AF099
:100640000BF86946A1EB0808B8F5AC781BD40A9BF7
:100650000D9A1D46164620468268C36801698C467D
:1006600041698E46AD46314691E8F00F4168006819
:10067000D4E70C99174809F0EFFFC7E70B99164824
:1006800009F0EAFFC0E7C8F10001144809F0E4FFEF
:10069000DDE700BFFEE7FEE760B70008A8B7000887
:1006A000C4B7000804B8000844B8000850B80008EF
:1006B00060B8000870B8000880B80008B0B800083A
:1006C000B8B8000858B9000878B70008CCB80008D6
:1006D00000B90008A0B8000890B8000828B90008C0
:1006E00000ED00E00000002008B50249062000F0FF
:1006F00067FA00BF6CB9000808B50249072000F08E
:100700005FFA00BF28B7000808B50249082000F0CA
:1007100057FA00BF8CB9000808B50249092000F05B
:100720004FFA00BF3CB7000808B502490A2000F0A4
:1007300047FA00BF50B70008034B044A4FF4E131B9
:10074000002001F0ABBF00BF0402002051180008D8
:100750000A460146014801F087B800BF04020020A4
:1007600010B50C4601462246002001F0A7FF2046A6
:1007700010BD00BF2DE9F043344C236803F58033EE
:10078000236023681BB9324A1368013313600022C7
:10079000304BDFF8CC90D3F800C02F4FD9F800E0F1
:1007A0001A60C7F800C0BEF1000F43D0284EDEF833
:1007B000082033689A423DD8DEF80480274D23682C
:1007C00008EA05029A4208BF71460AD03BE0326847
:1007D0009868904208D85A6820682A40824203D11B
:1007E00019460B68002BF2D1C9F8003000230B60CA
:1007F000BCF1000F1CD09CE82800DEF80020454525
:100800008CBF75466546E3B1B2B1284601E00846A3
:100810009AB159685468A1428CBF114619460160CB
:100820001B681268002BF2D10A603D60BDE8F083BE
:10083000C7F800E0BDE8F08329460B603D60BDE8E5
:10084000F0832946F0E7BDE8F08300BFC80F002021
:10085000C40F0020D00F0020D40F00200000FFFFA5
:10086000CC0F00201C4B1A68824224D01AB905E034
:1008700098421DD01A461368002BF9D1174B1A68FD
:1008800042B1904203D112E0984211D01A46136847
:10089000002BF9D1124B1A6842B1904203D106E005
:1008A000984205D01A461368002BF9D170471A46B2
:1008B00003681360704712681A604AB15368063BB8
:1008C000084A11680029F1D19AB2084601F0A4BF84
:1008D0004FF6FF73F4E700BFD40F0020D00F0020C5
:1008E000CC0F0020C00F002001222DE9F041354D32
:1008F000DFF8D4802B68C8F80020002B54D00020EB
:1009000001F0AEFF064600272B685BB100205C6853
:1009100001F0A6FF86421ED8A4B284421BD9241A35
:10092000132C18D9002001F09BFF864232D828688A
:1009300008B34468002001F093FF063C1430844261
:10094000E2D30023C8F80030D8F8001031B3BDE876
:10095000F081844206D92B6800209C8801F080FF3A
:10096000B042F6D22B681A685F602A609F60DA682E
:1009700018699047C8E701F073FF8642044609D81A
:1009800000F114039BB2984219D9002001F068FFCE
:100990008442FAD9FFF7EEFE0026B5E7A2B2084678
:1009A000BDE8F04101F038BFFFF7E4FE4FF6FF74F9
:1009B000002001F055FFA042FAD00026A3E74FF631
:1009C000FF74BEE7D40F0020C00F002008B500233D
:1009D00007491846074A01F0EFFE074B196801B1B5
:1009E00008BD4FF6FF72BDE80840084601F014BF8D
:1009F00040420F00E9080008C00F00202DE9F04137
:100A000007460E46414C0020256801F029FF236867
:100A10009D42F8D100230543AE423B6002D3F31E52
:100A2000AB4252D3FFF70EFD7B688046002B48D0C7
:100A30003846FFF717FF364BAE4219681B6838BFC0
:100A400001318B427E60B96015D23248036853B1E0
:100A50009A688A4203D306D15A68964203D318464D
:100A60001B68002BF4D13B6007604046FFF7F2FCA7
:100A70000020BDE8F0812268330C1B049342E4D1CE
:100A8000ADB2AE4233D924480368002B3CD05A683B
:100A9000964203D238E05A68964203D319461B683F
:100AA000002BF8D13B600F6003689F42DDD11B4BE8
:100AB00019680029D9D1B21F92B2084601F0ACFEE4
:100AC000D3E7BB68002BB3D1B5E7F41CA4B2002078
:100AD00001F0C6FE8442FAD3002001F0C1FE844238
:100AE000FAD83869FB6898470020BDE8F0810C49C6
:100AF0000B681BB905E019461B6813B15A6896428A
:100B0000F9D23B600F60B0E70146CBE7C80F002089
:100B1000C40F0020CC0F0020D40F0020C00F0020F5
:100B2000D00F002038B50446FFF78CFC63680546FB
:100B30000BB9A36813B12046FFF794FE2846BDE821
:100B40003840FFF787BC00BFC368B3B12DE9F0415F
:100B50000E460746FFF7E6FF022E0FD90F4D002085
:100B60002C6801F07DFE2B689C42F8D10443A1194A
:100B70003846BDE8F041FFF741BF7047002001F063
:100B80006FFE0446002001F06BFE001B83B29E4204
:100B9000F8D8FB683869BDE8F0411847C80F002055
:100BA00010B5064C00F002FA2046012100F076FE56
:100BB0002046BDE8104000F0EFBC00BF000402403A
:100BC00008B50E4B1A6882B9012203280C461A6038
:100BD0000FD021460A4809F03FFD01F0C9FB094842
:100BE00009F03AFD084809F037FDFFF72BFC00F04B
:100BF0000FF97146054809F02FFDEAE7D80F0020EC
:100C0000B8B90008E0B90008D4B90008B4B90008C0
:100C100008B501F091FE00F039FE002008BD00BFCC
:100C200008B5044C2368002BFCD1032000F086FD9E
:100C3000F8E700BFDC100020002400B585B0FFF706
:100C400001FC0E4A0E4B12684FF480710292009321
:100C50000F220C2301940B4800F05CF80A4A0B4B5E
:100C600012684FF440610292009307220C23019412
:100C7000074800F04FF8FFF7ABFB00BF1802002059
:100C8000210C0008DC0F00201C020020110C0008C1
:100C9000E410002008B5FFF7D5FB094B1B681A7953
:100CA000082A07D95A79074B53F8221011B109685D
:100CB00043F82210FFF7CEFBBDE80840FFF78CBBDE
:100CC000B00E0020BC0E002038B50B79082B0ED8D2
:100CD0004C7901F1080504E013F8032C944203D386
:100CE00018460368002BF7D18B60056038BD0249B8
:100CF0000320FFF765FF00BFA0B90008026890421B
:100D000006D1104650F8043F8342FBD0801A70474A
:100D1000002070472DE9F04F0F2A83B070D80746A6
:100D2000984610F003030FBF0B46C3F10403FF18EE
:100D3000CB1A303B23F0030318F0080F91468A4684
:100D400007EB03053DD13F600193FFF77BFB834633
:100D50002D4801220146019B02E00132212A46D0A2
:100D600051F8044F16B2002CF7D140F822500D99DB
:100D70003A46EE800C98FFF7D7FA4FF0FF31234A3E
:100D8000286013680E98013318F0010F6F62C5F8E0
:100D90002CA0A86285F805902C71AC60EC602C61E9
:100DA0006C61AC612C621360E96112D028460121AC
:100DB000FFF730FA5846FFF74DFB304603B0BDE869
:100DC000F08FAF42C0D23A46126004329542FBD84F
:100DD000BAE728460A21FFF71DFA18F0040FE9D1F7
:100DE0005846FFF737FB4846FFF758FAE5E76FF03C
:100DF0008A065846FFF72EFB304603B0BDE8F08F59
:100E00006FF01506D9E700BFFC0E0020B80E0020D9
:100E100008B5EFF30581C1F3080121B900BE042034
:100E200000F08CFCFBE71039014809F015FCF5E7F0
:100E3000F4B90008F0B500244F4B50491A6883B04C
:100E400042F480721A609A68012022F47F5222F0E4
:100E500030029A609A681E4622F0EE429A609A68C2
:100E600042F2107722F003029A609A6822F47D021F
:100E70009A601A6811401960DC601A6842F0011229
:100E80001A6001F097F90228019414BF4FF400355D
:100E9000022505E0019B01330193019BBB4264DC09
:100EA00034682C40F6D0364B1A46196841F00401DC
:100EB0001960196841F001011960196841F00201D7
:100EC000196093691807FCD54FF08051002001F09C
:100ED000C7FA2C490A460B6823F4C05343F4006355
:100EE0000B605368D906FCD4234AB5F5003F9368DC
:100EF00023F47F5323F03003936093680CBF43F4D3
:100F0000050343F4880393601B4B19461A6842F0AB
:100F100080721A600B689B01FCD5174C1A4B224655
:100F20001A48B5F5003F18BF18468B6843F0030315
:100F3000A360936803F00C030C2BFAD11368144CD4
:100F40000340144E1360144903221448266009F02C
:100F5000C5FAB5F5003F4FF004020CBF1049114926
:100F6000114809F0BBFA03B0F0BD02250121284663
:100F700001F00CF9019493E700380240FEFFFAEE0D
:100F8000003C024000700040FFFEFEFFFEFEFFFF3F
:100F9000E41C00200048E80128BA0008E81C0020F2
:100FA0002CBA000834BA0008EB1C002070B501F020
:100FB00021FD01F00FF9002001F0FCF8184B9842D8
:100FC00024D0FFF737FF0023164C174D174E236030
:100FD000284601F031FD05F5806528B12368B5424A
:100FE00003F101032360F3D12368C3B100234FF061
:100FF000FF301A4603F5801380339B0218600132DC
:101000002168D2B28A421346F4D370BD002108464B
:1010100001F0BCF801F036F9054B9847D1E770BDF7
:10102000AD1007B0F41C0020000002400020024078
:101030000400F01F264B30B41A461C6844F4807438
:101040001C6013689C05FCD55368214C23F4604355
:1010500003435360936823F0F003194321F0030125
:101060009160A36813F00C0FFBD130F4005325D12D
:10107000184A136843F4804343F001031360164B8E
:101080001A46196821F001011960196821F002015E
:101090001960196821F00401196093691B07FCD5D8
:1010A0004FF480330A490D4A0D680D4C400B2A401D
:1010B00003FA00F00A60206030BC7047054B1A4606
:1010C000196841F4C05119605368D906FCD4D6E7B9
:1010D0000038024000700040003C0240FEFFFAEE83
:1010E000E41C002070B54FF000540A4E04F5805502
:1010F000284601F0A1FC04F1604303F5805320B1C0
:10110000B5422C46F2D1184670BD05F16043184631
:1011100070BD00BF0040012070B54FF000640A4E62
:1011200004F50045284601F087FC04F1784303F5F7
:10113000004320B1B5422C46F2D1184670BD05F1EE
:101140007843184670BD00BF0000080870B50B4C0E
:101150000B4E04F50065284601F06EFC04F178435F
:10116000A3F5FF2320B1B5422C46F2D1184670BD3D
:1011700005F1774303F57803184670BD00000808B1
:1011800000400808054B1B68C3F30B03A3F216438A
:10119000212B9ABF024AD05C00207047002004E057
:1011A00004BA0008F8B5FF21022001F059F9DFF870
:1011B00094E0DEF80030C3B10022194D194C1A48F2
:1011C0001A491B4B55F8047F34F8026FDF609E808C
:1011D00030F8027F51F8046F9F821E60DEF80060D5
:1011E0000132964203F58063ECD8124B124ADB6958
:1011F000116823F0FF031943022001F031F90023A5
:101200000E490F4C11F8012B2AB11859828992B25C
:1012100042F4005282811833482BF3D1F8BD00BF4D
:10122000381D00202A1D00201A1D0020F81C002057
:101230000000024000380240F81C0020801D002001
:101240003CBA0008F41C00202DE9F84FBA4B1B688B
:10125000C3B10022B94DBA4CBA48BB49BB4B1E685A
:10126000013245F8046FDF689E8844F8047F20F857
:10127000026FB14E9F8A366821F8027F964203F5CD
:101280008063ECD8B24AB3489389B34913F400534E
:1012900000F130054FF003094FF001060AD1A842D2
:1012A0000B7001F1010141D050F8182F938913F40C
:1012B0000053F4D0C368B2F80CE003F00F044FEA17
:1012C000440809FA08FC6FEA0C0C2EF4005E4FEAA1
:1012D0000E4E4FEA1E4EA2F80CE023F00F031A68E0
:1012E00006FA08F802EA0C0242EA08021A60D3F889
:1012F0000CE006FA04F20CEA0E04DC609C8812B2E0
:10130000A4B224EA02049C80944F9C8AC3F3832EE7
:1013100037F81EC01443A4B242EA0C02A8429C82D1
:1013200027F81E200E7001F10101BDD18C4B1B6A04
:10133000D80440F12881854B88491A6822F440720C
:1013400042F480721A60DA6822F44072DA609A8895
:1013500022F010021204120C9A809A8A92B242F081
:1013600010029A821A68B1F9001022F4406242F425
:1013700080621A60DA6841F0B00122F44062DA60FB
:101380009A8822F020021204120C9A809A8A22F083
:1013900020021204120C9A821A6822F4404242F48B
:1013A00080421A60DA6822F44042DA609A8822F0B9
:1013B00080021204120C9A809A8A22F0800212048F
:1013C000120C9A82654B1980654B5B6A590440F197
:1013D000D380644B61491A68B1F9021022F040725F
:1013E00042F080721A60DA685C4822F04072DA607B
:1013F0009A8841F4304122F480521204120C9A80EF
:101400009A8A92B242F480529A821A6822F040621A
:1014100042F080621A60DA6822F04062DA609A88EC
:1014200022F400521204120C9A809A8A22F400527A
:101430001204120C9A821A6822F0404242F0804252
:101440001A60DA6822F04042DA609A884180C2F37A
:101450000E029A809A8AC2F30E029A82404B424A46
:10146000DB69FF21DBB20220136000F0F9FF324B91
:101470001B68002B53D04FF000094FF0030E0127DB
:10148000DFF8C880DFF8E8A0DFF8E8B0DAF800306D
:101490004FF0FF308BB3314A002332F81940334A02
:1014A00032F819201443A4B216E0DAF800C09E08FE
:1014B00003F0030215EA0C0F06F102064FEA82025E
:1014C00007D05BF8265025FA02F202F00F024A45D7
:1014D0000DD00133102B0FD0590044FA03F20EFA4D
:1014E00001F1D20707FA03F56FEA0101DDD50133F7
:1014F000102B00EA0100EFD1C343D8F80C2009F10A
:1015000001091340C8F80C30D8F8003018430A4BD2
:10151000C8F800001B6808F580684B45B6D8104B2A
:10152000114ADB69116823F0FF0319430220BDE86B
:10153000F84F00F095BF00BFF41C0020F81C0020FD
:10154000381D00202A1D00201A1D00200000024026
:10155000003801403CBA0008801D00205C1D0020BE
:101560000038024000040240F81C00206C1D0020DE
:101570000004014000000140064B064A5B8823F44A
:10158000304353806AE7034B024A1B8823F0B003C1
:10159000138019E75C1D00200123074AC0F3832153
:1015A00010B400F00F0032F8114003FA00F02043AD
:1015B00022F8110010BC70476C1D002008B50B4BC1
:1015C0001B680BB1012B0AD0FFF734FCFFF7FEF9C3
:1015D000BDE808404FF4E131002000F077BF002162
:1015E0004FF42040FFF726FDF0E700BF7C1D0020F0
:1015F00010B400244C4A4D494D4B4E480460916054
:10160000936011684C4B41F0080111601A6B22F095
:1016100001021A631A6B22F002021A631A6B22F09B
:1016200004021A631A6B22F008021A631A6B22F082
:1016300010021A631A6B22F020021A631A6B22F44A
:1016400000721A631A6B22F400621A631A6B22F496
:1016500080421A631A6B22F400421A631A6B22F456
:1016600000321A631A6B22F480221A631A6B22F476
:1016700000221A631A6B22F480121A631A6B22F486
:1016800000121A631A6B22F480021A631A6B22F496
:1016900000021A631A6B22F080521A631A6B22F04E
:1016A00000521A631A6B22F000421A63DA6A22F0BF
:1016B0000102DA62DA6A22F00402DA62DA6A22F0FD
:1016C0000802DA62DA6A22F01002DA62DA6A22F4D6
:1016D0000072DA62DA6A22F40062DA62DA6A22F40A
:1016E0008052DA62DA6A22F48042DA629A6A22F47A
:1016F00080529A629A6A10BC22F400429A629A6AF4
:1017000022F480329A629A6A22F080729A629A6A0D
:1017100022F000729A629A6A22F000629A629A6AD1
:1017200022F080429A627047003C0240372615043E
:10173000FDFCFBFA7C1D00200038024010B5042897
:101740000FD8DFE800F0033840106400FEF77AFE9F
:1017500000223B4B1A601868C0B2FFF72FFFFEF75C
:1017600075FE002010BD374B374C1A6842F004025A
:101770001A601A6842F001021A601A6842F4007294
:101780001A60236943F004032361FEF75BFEFFF751
:101790005BFDBFF34F8F30BF2369294A23F0040359
:1017A00023611068C0B2FFF709FFFFF7FBFCFEF7EB
:1017B0004DFE002010BD254B1B68002BD1D1FEF73C
:1017C00041FE0122C5E71F4B1F491A6842F004027F
:1017D0001A601A6842F001021A600B6923F00403D0
:1017E0000B61FEF72FFEFFF72FFD00210846FFF7E4
:1017F00021FCBFF34F8F30BF114B1868C0B2FFF709
:10180000DDFEFFF7CFFCFEF721FE002010BD0D4BE3
:101810000D491A6842F004021A601A6842F0020286
:101820001A600A6942F004020A611A6842F40072FE
:101830001A60FEF707FEBFF34F8F30BF002010BDC8
:101840007C1D00200070004000ED00E0E010002052
:1018500038B50446043001F05BF80546204601F037
:10186000A3F8284638BD00BFF8B505460F46164612
:10187000041D03E00121284601F066F8324639468E
:10188000204601F023F80028F4D0F8BD08B502483E
:1018900001F054FB002008BD841D0020421C34D000
:1018A000F8B501270D460446C0F3832107FA01F17C
:1018B000022000F0D5FD032224F00F0604F00F04EF
:1018C00004FA07FE02FA0EF2D043336805F0030172
:1018D000034001FA0EF119433160F168C5F3810349
:1018E000084003FA0EF30343F360B388A7409BB2AA
:1018F000C5F30015A54023EA07042C43A4B2B48025
:10190000B36800201A43B260F8BD7047B0F1FF3FE2
:101910006BD0F8B50F46012104461646334A00F055
:101920000F0542F83530069B02EBC50E0846CEF88F
:10193000043000F095FD39462046FFF7AFFF042D37
:10194000C4F3832725DD092D4ADC4FF40002284B20
:101950001A60012E24D037D3022E4FF001022AD074
:10196000AA400F2105F00C0505F1804505F58035ED
:1019700004F00304AB68A400A140A74023EA0104DB
:101980001C4B3C43AC605A61196800200A431A6042
:10199000F8BD0123A91D164A8B40012E1360DAD130
:1019A000144B06FA05F2996811439960D96821EA47
:1019B0000201D960D5E70F4BAA409968114399609D
:1019C000D9681143D960CCE70121A9400A46094BE7
:1019D000986820EA01019960D9681143D960C0E78D
:1019E0004FF48072024B5A60B3E77047741E0020B8
:1019F00000E100E000040140431C24D0F0B54FF0AA
:101A0000030E00F00F020227072A94BF00240124CE
:101A10000F2520F00F06336852000EFA02FE23EA6B
:101A20000E0307FA02F21343336006EB840200F060
:101A30000700B840136A05FA00F4814023EA040065
:101A400008431062F0BD7047431C13D00F2330B41D
:101A500000EA0304A1100C4D00F0030202319200D1
:101A600055F82110C0F38320934090400B408342EF
:101A700001D030BC70470123044A03FA04F4136810
:101A80001C431460F5E700BF000001400004014062
:101A9000431C13D00F2330B400EA0304A1100C4DF3
:101AA00000F003020231920055F82110C0F38320A8
:101AB000934090400B40834201D030BC70470123DB
:101AC000044AA340146824EA03041460F5E700BF45
:101AD0000000014000040140431C23D0032300F018
:101AE0000F0220F00F00510010B404688B40234017
:101AF000CB40DBB2012B0AD08BB90123018A03FA58
:101B000002F08BB2034043FA02F010BC7047808AA7
:101B1000934080B2034043FA02F010BC70474FF08C
:101B2000FF30F2E76FF00100704700BF431C07D0A1
:101B3000012300F00F0293409BB220F00F000383BB
:101B4000704700BF431C07D0012300F00F029340F1
:101B50009BB220F00F004383704700BF10B50446CE
:101B6000FFF7BAFF50B1621C12D0012304F00F023C
:101B700093409BB224F00F04638310BD631C07D015
:101B8000012304F00F0293409BB224F00F0423833F
:101B900010BD00BF2DE9F843134BDFF854905E6988
:101BA00098461B684D46002401271E4004E001347E
:101BB000102C05F108050ED007FA04F31E42F6D0EA
:101BC000C8F81430686859F8343001349847102C3C
:101BD00005F10805F0D1054B1B680BB9BDE8F8838A
:101BE000BDE8F843FFF756B800040140B40E0020EA
:101BF000741E002070B5CA2653254FF0805104464C
:101C0000002000F02DFC454B45481A46016841F480
:101C1000807101605E625D62D96841F08001D960C7
:101C2000D3685B06FCD56269643AD2B2092A72D9DC
:101C300000230A3AD2B20133092ADBB2F9D81B01D8
:101C4000D9B223690A430133DBB2092B4FEA0242BE
:101C50004FF0000107D90A3BDBB20131092BC9B2B1
:101C6000F9D80901C9B20B43217B1B0203F4F853D5
:101C7000092943EA02034FF0000207D90A39C9B221
:101C800001320929D2B2F9D81201D2B21143227A13
:101C900001F03F0121480B43092A43604FF0000146
:101CA00007D90A3AD2B20131092AC9B2F9D80901D1
:101CB000C9B2237911430904092B01F47C114FF0B7
:101CC000000207D90A3BDBB20132092BD2B2F9D8A4
:101CD0001201D2B2134322781B0203F4FE43092AF5
:101CE00043EA01034FF0000107D90A3AD2B20131A9
:101CF000092AC9B2F9D80901C9B2FF240A4302F07E
:101D00007F02064913430B60CB68002023F0800359
:101D1000CB604C6270BD002193E700BF00280040FB
:101D2000007000402C4BF0B41A46D96821F0200115
:101D3000D960D3689D06FCD511681368994218BF15
:101D40001368254A5268C2F30035AF00C2F303247A
:101D50002F44013C04EB4704C2F30356C2F3034192
:101D6000C2F3011502F00F07C2F34232072A08BF7F
:101D7000002206EB8606643101EB46018261C3F363
:101D8000015205EB8505416102EB8201C3F3034279
:101D900007EB4505046102EB41025C02C56082600D
:101DA00005D50D498968490644BF0C328260C3F3EA
:101DB0000231C3F30212C3F3032401EB810102EBEE
:101DC000820203F00F0304EB410103EB4203416085
:101DD0000360F0BC0020704700280040F8B50646BC
:101DE0000C4600204FF080511546532700F038FB79
:101DF0004FF0CA0E434B44481A46016841F48071C3
:101E00000160C3F824E05F62996821F480719960F1
:101E1000D368DB07FCD5D169337E01F07F31D16116
:101E2000D169092B41F0804141F48001D1614FF02B
:101E3000000107D90A3BDBB20131092BC9B2F9D83D
:101E40000901C9B21943337A0906092B01F07C5103
:101E50004FF0000207D90A3BDBB20132092BD2B2A4
:101E6000F9D81201D2B2134332791B0403F47C1364
:101E7000092A43EA01034FF0000107D90A3AD2B216
:101E80000131092AC9B2F9D80901C9B20A43317826
:101E9000120202F4FE42092942EA03024FF0000353
:101EA00007D90A39C9B201330929DBB2F9D81B01B4
:101EB000DBB2FF2710204FF400760B4303F07F03C3
:101EC00010491343CB618A68104B42F480728A60D8
:101ED0008A6842F480528A60CA6822F48072CA60BA
:101EE0004F621A680A4F42F400321A609A68094930
:101EF00042F400329A60CD6087F829037E600020AA
:101F00000C60F8BD00280040007000400004014053
:101F100000E100E0F41E0020F0B50446284B5968AB
:101F20005E685F685A68DD69D3F81CE0D869C5F35C
:101F30000175C0F30150C6F3034C05EB850600EBB9
:101F40008005D869C7F30037C0F3034000EB4500B4
:101F5000C2F30322BD002F44C1F30351DD69013AEE
:101F600002EB470201EB81010CF1640CCEF3036E2E
:101F70000CEB41010EEB460622616A026161A6612B
:101F8000A06004D59B685B0644BF0C30A0600C4980
:101F90000020CA69CD69CB69C969C2F30232C3F3B3
:101FA0000213C5F3032501F00F0102EB820203EBDC
:101FB000830305EB420201EB430362602360F0BD43
:101FC0000028004030B45322CA250020FF24084BCB
:101FD00008495D625A629A68C86022F480729A6009
:101FE0009A6822F480529A605C62086030BC704744
:101FF00000280040F41E0020F8B504460D460020DD
:102000004FF080511646532700F02AFA4FF0CA0EBF
:10201000364B37481A46016841F480710160C3F8B5
:1020200024E05F62996821F400719960D3689B078E
:10203000FCD5304BE11783FB0423C1EBA313DBB2C8
:10204000092B4FF0000207D90A3BDBB20132092B02
:10205000D2B2F9D81201D2B24FF47A70254F13439D
:1020600087FB0472C1EBA21100FB11441F4A03F06D
:102070007F03136200FB04F34FF40074FF274FF05B
:10208000100E116A1C4841F0802141F400011162D8
:10209000A0FB0313916C83F47F5321F4FF4121F0E3
:1020A0007F0141F00061C3F387130B439364916890
:1020B000124B214391609168114841F400519160A5
:1020C000D16821F40071D16057621A680D4942F459
:1020D00000321A609A6842F400329A60856081F892
:1020E00029E346614C600020F8BD00BF0028004095
:1020F00000700040D34D62103FC5254300040140ED
:10210000F41E002000E100E01E4B30B41A460446E5
:10211000D96821F02001D960D3689906FCD5936A6B
:10212000916A18488B426FF0F30318BF916A024618
:1021300003FB01F3144903F5732303F60C73A1FBAE
:102140000313C568990925F02005C560D3689B066F
:10215000FCD51068136898424FF47A7018BF136862
:10216000C3F3021202EB820203F00F0303EB4203FC
:1021700000FB0311034B00205A6821605B6830BCF0
:10218000704700BF00280040D34D6210002210B4F9
:1021900004461046064B83B001920193019B03EB6A
:1021A00081010191019B1C6003B010BC704700BF0E
:1021B000502800400022064B82B001920193019BFF
:1021C00003EB80000190019B186802B0704700BFCC
:1021D0005028004008B54FF08051002000F040F931
:1021E000114B12481A46016841F480710160596B25
:1021F00021F480715963596B21F480615963596BE3
:1022000041F480715963536B9B05FCD5536B23F4E8
:1022100040335363536B43F480335363536B43F442
:102220008003536308BD00BF0038024000700040C7
:1022300010B5FFF7CFFFCA2400215320104B1A46D8
:102240005C625862D960D96841F08001D960D36876
:102250005B06FCD540F6FF73FF211361136943F45D
:10226000E0231361936823F040039360936843F481
:1022700000639360D36823F08003D360516210BD84
:102280000028004008B54FF08051002000F0E8F829
:102290000B490C4B0A6842F480720A605A6B42F494
:1022A00000025A635A6B22F400025A635A6B22F4FA
:1022B00080025A635A6B22F480725A6308BD00BFD1
:1022C000007000400038024008B5134BDA68D105B1
:1022D00008D5DA68114922F48072DA600B680BB114
:1022E000C86898470C4BDA68920508D50B48DA683D
:1022F000816822F40072DA6009B140698847084AAF
:102300000849536943F4003353610B6803B908BDAE
:10231000BDE80840FEF7BEBC00280040F41E0020C7
:1023200000040140B40E002008B50D4BDA685205D8
:1023300008D50C48DA68416822F48062DA6009B195
:1023400000698847084A0949536943F48013536177
:102350000B6803B908BDBDE80840FEF79BBC00BF91
:1023600000280040F41E002000040140B40E0020AC
:102370002DE9F04F8BB00AAB1C462B4B2B4A1B8828
:102380002B4924F8043D2B48079408F065F9FEF723
:1023900001F88046FEF718F80446FEF711F84246A9
:1023A000009023464FF40071234808F055F94FF48C
:1023B0000079224E28EAE87806F1800A56F8044FA0
:1023C00014B325791E4B606A53F825B0E76AFEF70F
:1023D00095FC079BA26A082DC8BF01331D462368E0
:1023E000B4F906100593636AA7EB000E0493CDF8C9
:1023F0000CE0E06A5B46029060790095019011481C
:10240000F044B94408F028F9B245D7D10E4BCDF8C5
:1024100008808DE8080219460C4A0D4808F01CF99E
:102420000BB0BDE8F08F00BF84BA000888BA00087E
:1024300090BA000898BA0008E0BA0008FC0E002024
:10244000200200202CBB000868BB00086CBB000801
:1024500070BB0008014B1868704700BFE41C0020E7
:10246000012810D008D3022803D10A4BDA6911439E
:10247000D961BFF34F8F7047064A536A19435162BF
:10248000BFF34F8F7047034B1A6A11431962BFF3B2
:102490004F8F70470038024001280FD008D3022820
:1024A00005D1094AD36923EA0101D1617047704718
:1024B000054A536A23EA010151627047024A136ACE
:1024C00023EA010111627047003802402DE9F04112
:1024D00000EB40001D4EC50006EB050898F814708F
:1024E0000C463846FFF7B6FFB0FBF4F0072824D9B6
:1024F00072590F28938923F400534FEA03434FEA9C
:102500001343938193890CD980B2C3F30E03938153
:102510001081938900209BB243F400539381BDE85E
:10252000F0816FEA43436FEA5343083840F01000EC
:10253000C0B29BB293811081EBE73846D8F8041003
:10254000FFF7AAFF6FF00100BDE8F081F4BB0008BF
:102550002DE9F04F022883B000F2948005469246A0
:102560004FEA400909EB0008484E4FEAC80806EB5D
:102570000804DFF824E1A2680EEBC50CCCF80430A7
:102580004EF835A010460F46217C0192FFF786F9E0
:10259000D4F80CB0617C5846FFF780F95846FFF735
:1025A000C5FAE17C5846FFF727FA019AA17C10464C
:1025B000FFF722FA6168207DFFF752FF002356F8EB
:1025C0000840A3812382A3823B79012B4BD07B79E6
:1025D000012B3DD0022B27D0BB79022B2CD0032B13
:1025E00030D023B9238A9BB243F4805323823968C5
:1025F0002846FFF76BFF002841D1BAF1000F38D011
:10260000012142F22C074D4406EBC506737D204D97
:102610005AB203F01F03520901FA03F345F82230BE
:10262000A78103B0BDE8F08FA3899BB243F4806318
:10263000A381BB79022BD2D1238A9BB243F44053AE
:102640002382D4E7238A9BB243F400532382CEE74C
:10265000A3899BB243F48063A381A3899BB243F413
:102660000073A381B8E7A3899BB243F48053A3818D
:10267000ADE742F20803A38103B0BDE8F08F6FF02D
:102680000100CEE703490320FEF79AFAF4BB0008E5
:1026900000E100E0A0B900080C1F002030B50024C4
:1026A000012583B0009169468DF804408DF80540FE
:1026B0008DF80650FFF74CFF03B030BD022808B577
:1026C00012D80B4B00EB400053F8300042B10A44E3
:1026D00003881B06FCD511F8013B8A428380F7D1A1
:1026E00003885B06FCD508BD02490320FEF768FAA3
:1026F000F4BB0008A0B900080C4B10B51C88A4B2AC
:10270000A2060BD4230744BF084B9B88084B1B68C9
:1027100003B910BDBDE81040FEF7BCBA9988054B5F
:10272000C9B21A6858689047ECE700BF003801400A
:10273000B40E00200C1F00200C4B10B51C88A4B256
:10274000A2060BD4230744BF084B9B88084B1B6889
:1027500003B910BDBDE81040FEF79CBA9988054B3F
:10276000C9B29A68D8689047ECE700BF00440040BF
:10277000B40E00200C1F00200C4B10B51C88A4B216
:10278000A2060BD4230744BF084B9B88084B1B6849
:1027900003B910BDBDE81040FEF77CBA9988054B1F
:1027A000C9B21A6958699047ECE700BF0048004079
:1027B000B40E00200C1F002020BB70B5134E054640
:1027C00086E80C000C4601201021FFF749FE4FF669
:1027D000FF730F4E01203580B580F362FFF73AFE9C
:1027E000B0FBF4F14FF0006201200A4B013989B2CD
:1027F0003185B0821A60338828469BB243F00103CA
:10280000338070BD4FF0FF30704700BF241F0020A1
:102810000010014000E100E003291BD8022330B47E
:102820000E4C000125186D68245801F10C002A4057
:1028300004EB80004260228A03FA01F109B293B2EC
:1028400023EA01032382A3890020194389B2A181CD
:1028500030BC70474FF0FF30704700BF3CBC0008F1
:10286000024B00011B58586A704700BF3CBC00086F
:10287000134B2DE9F0410024984602261A8A9D89BF
:10288000104FADB2154006FA04F32B4207D10134C4
:10289000042CF8D10C4B1B686BB9BDE8F081B8F87B
:1028A0000C20214692B222EA0303A8F80C30786883
:1028B0003B689847EBE7BDE8F041FEF7EBB900BF96
:1028C00000100140241F0020B40E0020F2B1F0B42B
:1028D0008468C3689C4217D0144603E08568C368C7
:1028E0009D420ED08568436806686F1C013B876077
:1028F0002B40F35C013C01F8013BEFD11046F0BCEA
:102900007047101BF0BC70470020F8E71046704776
:10291000C26810B484684368121B9A4209D0C26826
:10292000013B134001320468C2600020E15410BC36
:1029300070474FF0FF30FAE708B5002003F0BCFB0A
:10294000BDE80840FEF742B870B505460C46FDF7F5
:1029500079FD2B68FBB1A4B1124B06461C6802211D
:102960002046FDF757FC2B6801330ED02146284640
:10297000FEF7AAF93046FDF76DFDFDF72DFD0120AC
:1029800070BDFDF767FD204670BD002304F108020D
:102990002A60A360EEE74FF0FF332B60FDF75AFD8E
:1029A000012070BDB00E002070B50546FDF74AFD50
:1029B0002C68BCB1631C13D00646204650F8083979
:1029C0000A212B60FDF726FC2B687BB114F8034C21
:1029D0003046FDF73FFD2046BDE87040FDF75EBC88
:1029E00000232B60BDE87040FDF734BD4FF0FF338E
:1029F0002B60EBE730B410244FF000652046002335
:102A00000B4A0C49956082F82240D477CA180133EA
:102A1000392B82F80003F9D1054B30BC1A6942F01A
:102A200010021A615A6942F400725A61704700BF7D
:102A300000ED00E000E100E00A4B9A6A42F4004237
:102A40009A625A6942F480725A6171B60278986A41
:102A500061B65A6980F4004022F48072C0F3C0303D
:102A60005A61704700ED00E0BFF34F8F0549064BF8
:102A7000CA6802F4E0621343CB60BFF34F8F00BF1C
:102A8000FDE700BF00ED00E00400FA0508B50448CA
:102A900007F056FE00210348FFF778FBFFF7E4FF3D
:102AA000D8BF0008AD1007B030B5012885B042DDB1
:102AB0004D682949284607F021FFC0B1274928461B
:102AC00007F01CFF0446F8B910222146684607F0BB
:102AD00010FD00F0BDFC23466A4600F065FC0028AE
:102AE00035D11F4807F02CFE204605B030BD1D48EB
:102AF00007F026FE00F022FC20BB00241A4807F055
:102B00001FFE204605B030BD2846184907F0F6FEE6
:102B1000044618B10024204605B030BD144807F023
:102B20000FFE204600F016FC0028E6D0114807F002
:102B300007FEFFF799FF01240F4807F001FE20462A
:102B400005B030BD0D4807F0FBFDFFF78DFF0C48C9
:102B500007F0F6FDFFF788FFA4BC000868C3000873
:102B600048BD0008A8BC0008ECBC00087CBD0008FB
:102B700084BD0008B8BD00084CBC0008C8BC0008F3
:102B80000CBD000808B5074807F0DAFD00F092FA1E
:102B900010B9054807F0D4FD044807F0D1FD002026
:102BA00008BD00BF58BF000874BF00089CBF0008E4
:102BB00000B5134889B007F0C3FD68462022002104
:102BC00007F097FC0F4B10481A68596807F044FD4E
:102BD0006A46002310210D4805F04AFB69460C485F
:102BE00007F03AFD0B4B0C48196807F035FD0B4B0D
:102BF0000B481A68596807F02FFD09B05DF804FB0F
:102C0000FCBF0008401F00201CC00008481F002017
:102C100030C00008381F002040C00008301F0020CE
:102C200054C0000808B5FFF7C3FF002008BD00BF6F
:102C300008B500F0A3FB012824D01BD3022814D12F
:102C40001F4807F07DFD1F4807F07AFD00F00AFCE1
:102C50001D4B186000F0FCFB1C4BC3E9000100F0A9
:102C6000F1FB1B4BC3E9000108BD1A48BDE8084051
:102C700007F066BD184807F063FDBDE80840174837
:102C800007F05EBD164807F05BFD164807F058FDDB
:102C9000154807F055FD0A4807F052FD094807F0AE
:102CA0004FFD114807F04CFD104807F049FD104852
:102CB00007F046FD00F0C6FB054BC3E9000108BD67
:102CC000E0C0000854C10008381F0020301F002059
:102CD000401F002058C200086CC00008B8C000089F
:102CE0008CC10008C0C1000824E30008E8C1000846
:102CF00038C20008012801D00020704708B51548E7
:102D000007F01EFDFFF754FF134807F019FD00F010
:102D100035FB012802D014D3022808D10F4A104BEA
:102D2000D2E900011B680F4A00F03EFB20B90E48B3
:102D300007F006FD002008BD0C4807F001FDFFF775
:102D400093FE0B4BD3E9000100F070FB0028EED09E
:102D5000F2E700BF68C2000880C20008301F0020F0
:102D6000381F0020481F0020C4C20008A4C2000869
:102D7000401F0020F0B5022883B03BDD0B464C68B5
:102D8000594920469E6807F0B9FD20B900F0F6FACF
:102D9000012805464FD05549204607F0AFFD0546AE
:102DA00050B9304607F0B4FD202839D0504807F01C
:102DB000C7FC012003B0F0BD4E49204607F09EFD40
:102DC000054620B900F0DAFA0128074641D020462E
:102DD000494907F093FD90B1484807F0B1FCFFF76F
:102DE000E7FE474807F0ACFC464807F0A9FC002086
:102DF00003B0F0BDFFF71CFF012003B0F0BD00F0F1
:102E0000BDFA0028E8D1002200233046CDE9002396
:102E100007F07EFD10283FD03B4807F091FC16E0FC
:102E20002A463A49304605F00DFAD8B131463848BD
:102E300007F012FCD3E7002200233046CDE900233F
:102E400007F066FD102812D0324807F079FC012007
:102E5000CEE7304607F05CFD08282FD02E4807F05B
:102E60006FFCF4E72D4807F06BFC0120C0E72A4611
:102E70003046694605F0E6F950B10199009A2848B4
:102E800007F0EAFBDDE90001264BC3E90001A6E7F4
:102E9000254807F055FCDAE730460122694605F07F
:102EA000D1F90028F4D00199009A204807F0D4FB0A
:102EB000DDE900011E4BC3E9000190E702AA0146CB
:102EC00042F8085D3B46304605F094F918B91348BE
:102ED00007F036FCBBE73146164807F0BDFB164B42
:102EE000009A1A607BE700BFE4C2000864C30008D0
:102EF0006CC30008DCC3000830C400089CC4000890
:102F0000B4C40008ECC4000838C40008481F0020FE
:102F1000C8C30008ECC20008E8C30008A4C3000846
:102F200048C30008301F002020C3000880C40008E8
:102F3000401F00201CC40008381F002000B5A1B0AD
:102F40000446FEF755FB01232549264A0B60136012
:102F500005F0E2F8FDF73AFD03F03CF903F014FB4D
:102F6000214803F095F8204800F034FAC0B91F4812
:102F700007F0E6FB00F002FA022823D903280AD161
:102F80001B4807F0DDFB24221A49204607F0A6FA69
:102F9000204600F0FBFD20468022694603F0B6FB88
:102FA000114800F05DF948B9134807F0C9FB134810
:102FB00007F0C6FB0C4800F035F9DBE7104807F0D6
:102FC000BFFBD7E730220F49204607F087FA0E48AB
:102FD00005F090F8FFF72CFEFFF7EAFDDBE700BFF6
:102FE000DC100020E0100020581F0020F4BD000875
:102FF0003CBF00084C02002054BE0008BCBE0008C4
:1030000010BF000810C500080004024070B4044658
:103010000646064D0FCD0FC40FCD0FC495E807002F
:1030200084E80700304670BC704700BF701F002066
:10303000014B9870704700BF701F0020014BD87083
:10304000704700BF701F0020014B1871704700BF10
:10305000701F002038B50D46044605F027F810B360
:10306000012304F01F02104993406209023201EB70
:103070008202516820465DB921EA0303536005F0DE
:1030800013F82246BDE838400146084807F0E4BA84
:103090000B43536005F008F82246BDE8384001466E
:1030A000034807F0D9BA38BD701F00208CC700084C
:1030B00054C7000810B503220124044B2C211846E4
:1030C0005C701A7000F0D4F910BD00BF701F0020B2
:1030D000F8B51348002507F033FB01260223032728
:1030E000104C2022294604F10C006371E570257113
:1030F000A670A77107F0FDF931467E20E571A56045
:10310000FFF7A8FF084807F01BFB20462C2127707B
:10311000667000F0ADF9BDE8F840044807F010BB58
:10312000E4C60008701F002024C700084CC7000830
:1031300038B51D4D2C21284600F0AEF968B32B7828
:10314000022B0AD96C78012C02D0FFF7C1FF6C78F2
:10315000003418BF0124204638BD144C05212046F8
:1031600000F09AF92378002BECD0114807F0E8FA28
:103170006178A27823790F48E9702A71AB7007F063
:10318000DFFA012203232C2128466A702B7000F0FD
:103190006FF9094807F0D4FAD4E70446074807F066
:1031A000CFFA204638BD00BF701F00209C1F0020B2
:1031B0007CC60008B4C600084CC7000848C6000812
:1031C00038B5094C05460821204605F085F821460A
:1031D000A06010236C6828460022A0470028D4BFB6
:1031E0000020012038BD00BF58200020012238B542
:1031F0000A4C0B4B0546A42120462271236005F0A2
:103200006BF82146C4F8A400A8236C6828460C2259
:10321000A0470028D4BF0020012038BDA81F0020EF
:10322000BEBAFECA70B50546094C0A4B2046A82214
:1032300000211D6007F05DF901210022064E074BB9
:10324000284626602171BDE870401A70FFF7CEBF96
:10325000A81F00206C200020BEBAFECA502000200B
:1032600030B50446D5B02C4BA822002168461C601E
:1032700007F03FF9256869462046A8230C22A84795
:1032800038B1264B009A9A4205D0254807F058FAE3
:10329000002055B030BDA4216846299D05F01CF8DA
:1032A000854206D02AA92568A4230C222046A847D7
:1032B000C0B96946A8221B4807F010F900211A4D31
:1032C0001A4B2C7803F1100013F8012B0AB10121DD
:1032D0000C468342F8D1E9B901231846144A137009
:1032E00055B030BD2AA8A02104F0F6FF529B9842A9
:1032F00004D0104807F024FA0020CAE70E4807F06F
:103300001FFAA8226946074807F0E8F82046FFF7A9
:103310006DFFCEE72C70DFE76C200020BEBAFECA3E
:10332000C8C70008A81F002069200020B81F00207F
:1033300050200020D8C70008E8C7000808B5044B93
:103340001868836898470028D4BF0020012008BD72
:103350006C20002008B10120704708B5064B4FF4DF
:10336000966218684FF48071C36898470028D4BFEC
:103370000020012008BD00BF6C200020074B1878FA
:1033800050B1074B1B7833B1064B1B78002B0CBF99
:103390000220032070470120704700BF68200020F2
:1033A000502000206920002038B515461022074C17
:1033B000C4E902012946A018C4F8A03007F08EF82D
:1033C000034B1868BDE83840FFF710BFA81F002066
:1033D0006C20002070B5114E84B00568694610233A
:1033E00000223060A84708B904B070BD08216846C3
:1033F000029C04F071FF844205D0094807F0A0F94F
:10340000002004B070BD69461022064807F066F837
:1034100001231846044A137004B070BD6C200020CC
:103420000CC800085820002068200020034A044BE4
:10343000C2E900011868FFF7C3BE00BF5820002092
:103440006C200020014BD3E9000170475820002078
:10345000014BD3E902017047A81F002000487047C4
:10346000B81F0020014BD3F8A0007047A81F002010
:10347000802901D90020704708B50A460146044852
:1034800007F02CF8034B1868BDE80840FFF7AEBE04
:10349000C81F00206C200020802901D9002070471F
:1034A00008B50A46024907F019F8012008BD00BF17
:1034B000C81F0020014B1868704700BF6C20002017
:1034C000012070474FF0FF30704700BF41F6F433E2
:1034D0002DE9F0471D4E84B0F1581D481D4D07F0F1
:1034E000BBF81D4807F0B8F801244FF0460905F174
:1034F0006D081A4F02E00134652C23D015F8013F06
:10350000621E002BF7D109FB0262964613465EF855
:10351000400FD2F848A0D8F8001053F838CFDEF8A2
:1035200004E0A1EB0A0101EB41015B68126D02901E
:1035300003918DE8005021463846013407F08CF89D
:10354000652CDBD1002004B0BDE8F087903000206E
:103550003CCB00081F4C002050CB000884CB000857
:103560002DE9F04700240D469846ADF5067D0AAEDC
:103570008146924621463046ED2206F0BAFF2F8959
:1035800006AD0DF116002A4601230221ADF8167092
:1035900006948DF81C4004F06BFEB8F1ED0F4FF06F
:1035A000010328BF4FF0ED0808AF3A4619468EA830
:1035B00008948DF8244004F05BFE234632464146D1
:1035C000504604F055FEBDF91630414632460F48CC
:1035D00007F042F8214646A84FF4807206F089FFB2
:1035E000D9F80020D9F8043046A88DE824000297C5
:1035F00049220396064907F00BF946A9054800F051
:103600009BFE0DF5067DBDE8F08700BF04C90008EC
:1036100024C900087020002030B50546002489B078
:103620002A6869680B4807F017F82A686B6803A8CE
:103630000092094941220394049405940694ADF83C
:103640001C4007F0E5F803A9044800F075FE09B036
:1036500030BD00BFCCC80008F8C8000870200020AA
:1036600030B50546002489B02A6869680B4806F021
:10367000F3FF2A686B6803A8009209495222039459
:10368000049405940694ADF81C4007F0C1F803A912
:10369000044800F051FE09B030BD00BF10CE000854
:1036A000F8C800087020002030B50546002489B015
:1036B0002A6869680B4806F0CFFF2A686B6803A880
:1036C000009209494B220394049405940694ADF8A2
:1036D0001C4007F09DF803A9044800F02DFE09B036
:1036E00030BD00BFDCCD0008F8C800087020002005
:1036F000F0B506288BB06CD10C46002600270AA92D
:1037000061E904670122606804F09CFD002857D03D
:103710000AA961E902670122A06804F093FD00286C
:103720004ED000250AA941F8185D0122E06804F096
:1037300089FD002844D00AA941F8145D01222069BE
:1037400004F080FD00283BD0606906F0F5FC0446DB
:10375000234806F0F5FF069A0799224806F07CFFF9
:10376000089A0999204806F077FF04991F4806F047
:1037700073FFE4B205991E4806F06EFF21461D480E
:1037800006F06AFF04991C4800F01AFDE0B9DDE973
:103790000867DDE9062340F63815184841693830D6
:1037A00005FB0414059D049903940295CDE9006777
:1037B00000F090FBB0FA80F0400940420BB0F0BD41
:1037C0004FF0FF300BB0F0BD04990B4800F004FD42
:1037D000DDE70B4806F0B4FF4FF0FF30EEE700BF27
:1037E0005CC800086CC8000884C8000898C80008B5
:1037F000ACC80008BCC80008C830002090300020C9
:1038000024C80008F0B52648B9B006F099FFFFF7C4
:1038100019FE07460E46FFF71BFE0C460546FFF74E
:103820001DFE03461F48DA7B997B06F015FF3A46DA
:1038300031461D4806F010FF2A4621461B4806F077
:103840000BFF01A8FFF7E2FB194C9DF80610194881
:1038500004EB411106F000FF0CA8FFF7D7FB17A8F7
:103860009DF83360FFF7D2FB22A89DF85E50FFF76A
:10387000CDFB9DF88B30314603EBC50304EB83048D
:10388000E2680D4806F0E8FE2DA8FFF7BFFB9DF8A3
:10389000B8100A4839B0BDE8F04006F0DDBE00BF00
:1038A00048CE000860CE00081CC0000854C00008C4
:1038B000B0CE00087CCE00088CCE0008A0CE000858
:1038C00008B5FFF79FFF002008BD00BF08B502F054
:1038D000BFFABDE808400621014802F0FFBC00BF66
:1038E0007C300020082100B5D3B00DEB010004F0BE
:1038F00075FF0C4C684604F06DFF204600F05AFD41
:103900000028F7D112A9204600F0DAFC0028F4D0F4
:1039100012A806F0FDFF12A902460120FEF7CEFE16
:10392000EBE700BF7020002008212DE9F047D2B05E
:103930000DEB010012AF04F051FF3846FF220021C9
:1039400006F0D7FDDFF844A00F4EDFF84490DFF813
:103950004480684604F03EFF00240DF147053046E0
:1039600004F086FDC0B20D2804F1010405F8010F32
:10397000F5D100253B464A46BAF9001040463D5570
:1039800002F026F8E5E700BFC46800205C73002061
:10399000702000209030002010B50446A2B083694A
:1039A000026841680D4806F057FE02A880220021F7
:1039B00006F09FFD216894F84020636802A88DE816
:1039C00006004A22064906F023FF02A9054800F036
:1039D000B3FC054803F00EFF22B010BD80CD0008F7
:1039E000CCCD000870200020D469002070B50328D9
:1039F000ACB012D04A4806F0A3FE4A4806F0A0FE3A
:103A0000494806F09DFE0121484806F025FE484839
:103A100006F096FE01202CB070BD0B464C6845495F
:103A200020469D6806F06AFF30BB01460A22284600
:103A300007F008F8062804464DDC3F4D01463F4894
:103A400006F00AFE6B69E0B21870FFF7FDFA3C4C15
:103A500016A86D69FFF7DAFA21A89DF85A60FFF7FA
:103A6000D5FA00209DF8873003EBC60304EB8304EE
:103A7000E3686B602CB070BD3249204606F03EFF13
:103A8000064668B928460A22314606F0DBFF0128BF
:103A9000044639DD01212C4806F0DEFD0120BAE79D
:103AA0002A49204606F02AFF40BB01460A22284642
:103AB00006F0C8FF05466846FFF7A8FA204C9DF8B7
:103AC000023004EB43139B7A9D4209DAE8B2FFF718
:103AD000B5FA194DBCE71E4806F032FE01209AE700
:103AE0000BA8FFF793FA9DF82E301A4804EB431405
:103AF000A17A013906F0B0FD01208CE72146164875
:103B000006F0AAFD012086E70146144806F0A4FD50
:103B100020463146FFF78CFA074D094C98E700BF65
:103B2000BCCB0008D8CB0008E0CB00082CCC0008A8
:103B300054CC000888CC000890300020B8CC000895
:103B4000B0CE0008D8CC0008E0CC000828CD000892
:103B50008CCC00082CCD000868CD00080CCD0008E6
:103B600010B50C4682B0074804F060FC0D2C01D063
:103B700002B010BD044B6846B3F9001004F0E4FD38
:103B800002B010BDC4680020C05C00202DE9F041E7
:103B9000A6B00446FFF7CCFA08BB714806F0D0FD8A
:103BA000704806F0CDFDFFF72DFE002504F10C0254
:103BB000104652F80C3B0135002BF9D16A4A52F8F5
:103BC0000C1F01330029FAD12B44122B00F3C480BF
:103BD000F022654926B0BDE8F04106F07FBCFFF752
:103BE00011FE624806F0ACFD04216148FDF756FE67
:103BF000002800F0A3805F4806F0A2FD5E4B5F4AFC
:103C0000184606219A6002F069FB052002F0F0F8E0
:103C100040F6FF7002F000F902F01AF902F010F914
:103C2000574806F08DFD0025FF21564B564A596036
:103C30001A6056489D60DD6000F032FB5449554AD9
:103C40002B46029100924FF44061062201955248A2
:103C5000FDF760F8514E5249524A01952B4630808B
:103C6000029100924FF4806106224F48FDF752F80E
:103C700001234E494E4A08804FF4E1311846FEF7C1
:103C80000DFD013064D0002201274A4B4A494B4EBA
:103C900019614B4D4B494C4883F848705E60DD60BC
:103CA000586183F84920D962063E043D47481F7099
:103CB0009E619D60DA611A6206F042FDFFF7C2FB69
:103CC000434D444EC5E90001FFF7C8FBA86005A8B5
:103CD000FFF79CF910A89DF81680FFF797F99DF85B
:103CE00043203D4B02EBC80203EB8203DB681BA8B9
:103CF0007360FFF78BF99DF870303848DFF8FCC02F
:103D0000DFF8FCE03649374A3370374BE861284624
:103D1000C5F820C0C5F824E0A962EA626B63AF6110
:103D20006E6101F0DBF9FFF7C5FB18224FF48071DB
:103D300004F0AAF92D4804F0DDF936E70C48FDF748
:103D4000CBFE00287FF45AAF294806F0F9FC6AE759
:103D5000284806F0F5FC96E727490320FCF730FFDA
:103D600038C9000894C90008A80B0020DCC9000865
:103D70000104024018CA00087C300020CD38000839
:103D8000ACCA0008C4680020D4680020702000205D
:103D90003CCA000829390008C45C0020C05C00202F
:103DA00048CA0008E5380008607300205C730020F2
:103DB000613B0008D46900200D0802400C04024059
:103DC0000C000240A05CCA330000024084CA000814
:103DD0009030002070020020B0CE0008C1340008EE
:103DE00061350008193600086136000800040240F9
:103DF00004CB000854CA0008A0B90008993900088B
:103E0000A936000810B5044641F6C432002106F078
:103E100070FB012104F5DA5304F5DD5217331B3230
:103E200003F8011F9342FBD1002304F5DE54236005
:103E300010BD00BF2DE9F84F924600F5DA529B46BF
:103E4000002403464FF0460E173204E00134642C80
:103E500003F1460325D012F8015F191A002DF5D1A0
:103E60000EFB0408D8F80470D8F800605F4508BF5E
:103E700056459946EAD198F843300646082B20D09B
:103E80004623002203FB04F402F1080304EB83033E
:103E900033441968013249B1082AF5D14846BDE8D2
:103EA000F88F4FF000094846BDE8F88F0A9A34446D
:103EB0001A6094F843304846013384F84330BDE833
:103EC000F88F203108442022294606F012FB88F89A
:103ED0004350D5E72DE9F04F41F6BC3485B0045985
:103EE0001F460E9B632C164601930F9A00F28380A7
:103EF00000F5DA5E00234FF0460C0EF1170E02E0DB
:103F00000133642B11D01EF8014F002CF8D10CFBAB
:103F10000305D5F804B0D5F800A05F4508BF5645A5
:103F2000EED1204605B0BDE8F08F632963D841F695
:103F3000583900EB010A1AF809400292002CF0D01F
:103F400000F5DE5388460546012118460393FEF727
:103F5000FBFC46214FF0000B01FB08F1119B6C1894
:103F60000AF809B0E3616E5094F84300019B029A8D
:103F70000728A3606760E260C4F8188084F845B041
:103F8000039B2DD84626002106FB08F601F1080206
:103F900006EB82022A441068013188B30829F5D162
:103FA000462241F6BC3101264FF0FF0E002702FBEE
:103FB00008586A581846109B324488F842E0A8F81E
:103FC0001470A8F81670C8F8203088F8456088F892
:103FD00043606A50FEF7E8FC204605B0BDE8F08F6C
:103FE0002031681820225946019306F082FA84F89D
:103FF00043B0019BC6E70024204605B0BDE8F08F22
:1040000010991160CCE700BF41F6BC312DE9F04FAB
:1040100083B099460C9B415800930D9B63290193F3
:1040200017D800F5DA5617369046002332464FF07F
:10403000460C02E00133642B10D012F8017F002FF0
:10404000F8D10CFB03014D680C68A94508BFA045D9
:10405000F0D10024204603B0BDE8F08F00F5DE5A11
:10406000834601215046FEF76FFC002502E0013532
:10407000642D4ED016F8014F002CF8D046220026B1
:1040800041F6583002FB05F20F9B0BEB02040BEBE1
:1040900005010E54E3614BF80280009B94F8431035
:1040A000A360019B0729C4F80490E360A56184F82C
:1040B00045601BD84622002102FB05F501F10802EC
:1040C00005EB82025A4410680131C8B10829F5D1C4
:1040D00041F6BC315BF80120504601324BF801201B
:1040E000FEF762FC204603B0BDE8F08F20320BEBF8
:1040F00002003146202206F0FCF984F84360D9E73B
:104100000E9B5D44136095F84320013285F84320EF
:10411000DEE75046FEF748FC204603B0BDE8F08FCE
:104120002DE9F04300F5DA51994607469046002301
:104130004FF0460EDDF81CC0173102E00133642B4E
:1041400018D011F8010F0028F8D10EFB03F2BE18A9
:10415000756834684D4508BF4445EFD1034603F107
:10416000080102EB81017958013319B1614502D090
:10417000082BF4D10120BDE8F08300BF2DE9F00346
:1041800000F5DA549946904600234625173402E09C
:104190000133642B0FD014F8012F002AF8D105FB4E
:1041A00003014F680E684F4508BF4645F0D1012016
:1041B000BDE8F00370470020BDE8F003704700BF82
:1041C000632906D841F658330844C05C80F00100EA
:1041D00070470020704700BF63292ED82DE9F047B3
:1041E00041F6583800EB010919F8087017B10020A2
:1041F000BDE8F08700F5DE5A06460C465046012120
:10420000FEF7A2FB462101FB04F404F1200039462D
:104210003044202206F06DF941F6BC320125B35836
:104220003444013B84F84370504609F80850B350B9
:10423000FEF7BAFB2846BDE8F0870020704700BFB4
:1042400000F5DA512DE97003173190469946462260
:10425000002302E00133642B0FD011F8014F002C32
:10426000F8D102FB0306756834684D4508BF444524
:10427000F0D13046BDE8700370470020BDE8700300
:10428000704700BF632908D841F658334218D35C01
:104290001BB9462303FB010070470020704700BF95
:1042A00030B44FF0FF3341F20804002541F204011D
:1042B00000F580520551435030BC1360704700BF79
:1042C000F8B500F580552B68013324D004460F461D
:1042D00000F58056083601213046FEF735FB296887
:1042E0004FF4807204EB0121384606F0F7F841F2F2
:1042F00004022B68A1588B4214D001335A4202F0B9
:104300000F0203F00F0358BF534230462B60FEF7F5
:104310004BFB0120F8BD41F20403C3580133D5D152
:104320000020F8BD4FF0FF333046A3502B60FEF75E
:104330003BFB0120F8BD00BF2DE9F04141F204062E
:10434000835900F5805501335A4202F00F022C6860
:1043500003F00F0358BF5342A34220D004460F4638
:10436000FCF770F82B6880460133A3591AD041F24C
:10437000040101335A4202F00F0203F00F0358BF49
:1043800053426350180239464FF48072204406F0BD
:10439000A5F84046FCF75EF80120BDE8F08100205A
:1043A000BDE8F0815A1CE2D10022A25110462A60D9
:1043B000E9E700BF00F580531B68013301D00020FE
:1043C000704741F20403C058A0F1FF30B0FA80F00A
:1043D00040097047F0B50121044600234FF00E0E4E
:1043E0000827052602781F4D02EB4202A818AA5C96
:1043F00087B08DF80220427880788DF801201A4A23
:104400008DF80A108DF804008DF80E10E0686946EA
:104410008DF80B308DF80C308DF808308DF80D309C
:104420008DF803308DF809308DF800E00492ADF876
:104430000670059603F032F86168E06802F06CFEE1
:104440000A4B1B681BB1DB6AB3F5007F04DD08482B
:1044500006F002F907B0F0BD064806F071F907B0A2
:10446000F0BD00BF70D0000880C3C901B00E0020AD
:1044700050D300086CD300082DE9F04FE1B00028BC
:1044800000F0B2804022002110A806F032F810A8F7
:10449000082104F0A3F9564806F052F9554FDFF809
:1044A000688106A804F096F9079C04F58C752846E7
:1044B00001F080FC06460028F3D120A9284601F02F
:1044C00003FC0028EDD03B688DF8896023B1DB6ADE
:1044D000B3F5007F40F38380209A28469DF880B092
:1044E000C2F31725DDF884A09DF88890002601F01E
:1044F0006FFC2A460290CDF800905346594601962B
:104500003D4806F0A9F8002C6ED000229DF88830B6
:104510000592043B2069072B45D8DFE803F02C44C3
:10452000440444044404816805AB084620AA01F011
:1045300051FB04F58A7501212846FEF705FA40462D
:1045400006F0FEF802232046A372FFF743FF059A08
:10455000E0680D32D2B220A903F0ACFA3B681BB17F
:10456000DB6AB3F5007F36DD244806F075F828468F
:10457000FEF71AFA95E721993830FFF783FE0025F8
:10458000034690F843108269073150F821005969B9
:1045900008AB009501F042FB08A905AB20AA08462C
:1045A00001F018FBC5E721993830FFF76BFE034691
:1045B00090F843100CAD0731826950F82100596919
:1045C00008AB009501F02AFB05AB20AA294608A8F4
:1045D00001F000FBADE70A4806F0B2F8C7E708486B
:1045E00006F0AEF8002C90D106490320FCF7E8FA5B
:1045F00048D90008B00E00207CD90008E4D9000892
:104600006CD30008A0B90008D0D9000830B5044622
:1046100083B000F58C7001F093FBA37A80F0010069
:10462000C5B2A3B942F22A4322696846D15E019419
:1046300004F0ACF80B4B1B681BB1DB6AB3F5007FD1
:1046400009DD094806F008F8284603B030BD0748E0
:1046500006F076F8EEE7064806F072F8284603B052
:1046600030BD00BFB00E0020B8D0000888D00008D0
:104670006CD300082DE9F0471F4D804628680F468F
:1046800016461C46DDF8209018B1C36AB3F5007FCA
:104690002EDD1A4805F0E0FF2B681BB1DB6AB3F58D
:1046A000007F21DD164805F0D7FF484604F10C01D4
:1046B00001F052FA2B681BB1DB6AB3F5007F0FDD06
:1046C000104805F0C9FFA27AD8F80050237B39467C
:1046D0000892304604F10D02AC46BDE8F047604751
:1046E000094806F02DF8EEE7074806F029F8DCE760
:1046F000054806F025F8CFE7B00E00200CD00008E2
:1047000030D0000850D000086CD300082DE9F04FDD
:104710009BB0002800F00E830746046D082900F2C4
:10472000A480DFE801F00D3D6A8297A2A2A20500F5
:104730009A4806F005F80123A3721BB0BDE8F08F7C
:104740002369974D05932B6823B1DB6AB3F5007F8E
:1047500040F31682934805F07FFF2B6823B1DB6A94
:10476000B3F5007F40F308828F4805F075FF002203
:10477000B7F8543107F154082381A27297F8571102
:10478000404601F08BFA2B68002840F087801BB16F
:10479000DB6AB3F5007F73DD844805F05DFFCCE78D
:1047A0007F4D2B6823B1DB6AB3F5007F40F3F081C6
:1047B0007F4805F051FF41F6284322697D4ED35EC4
:1047C0007D49324604F62410746003F07BFD2046D8
:1047D000FFF700FEE068416C03F05CF8774805F0F5
:1047E000AFFF01222B68A2721BB1DB6AB3F5007F19
:1047F00046DD734805F030FF9FE7694D2B681BB11C
:10480000DB6AB3F5007F41DD6E4805F025FF2B68BC
:104810001BB1DB6AB3F5007F3CDD634805F01CFF8C
:104820000023A3721BB0BDE8F08F5D4B1B6823B162
:10483000DB6AB3F5007F40F3A781634805F00CFF06
:104840002046FFF7C7FDE068416C03F023F81BB07A
:10485000BDE8F08F524D2B681BB1DB6AB3F5007FCA
:1048600014DD5A4805F0F8FED1E74D4B1B681BB12B
:10487000DB6AB3F5007F03DD554805F0EDFE5CE72C
:10488000544805F05DFF1BB0BDE8F08F514805F0BE
:1048900057FFBCE74F4805F053FFC1E723B1DB6A80
:1048A000B3F5007F40F3AA814B4805F0D5FEB96D02
:1048B0004B1C00F07181059B03F13800FFF7E2FC0F
:1048C0008146002800F0AB8141F6FC32059990F852
:1048D00043308A580733026110AE50F82300D9F8EC
:1048E0001410D9F818200CAB009601F097F9414646
:1048F0000CA801F0B7F8002800F0768197F85C303A
:10490000013B072B00F22E81DFE813F00800F300D3
:10491000DF002C0191002C012C016E002B6823B1CB
:10492000DB6AB3F5007F40F3E5812C4805F094FE87
:1049300099F8422097F85D100132D2B291422B686B
:10494000C0F0648123B1DB6AB3F5007F40F3DA8104
:10495000234805F081FE97F85D3089F84230059BC9
:10496000DB6A13B12146484698472B6823B1DB6ABE
:10497000B3F5007F40F3D2811A4805F06DFE99F837
:104980004030002B7FF4D9AE99F84430002B3FF42F
:10499000D4AE013B89F84430CFE600BF00D8000810
:1049A000B00E00208CD30008A0D3000850D7000818
:1049B00090D700086877002000093D00A4D70008C0
:1049C000B8D70008D4D70008ECD700087CD7000877
:1049D00030D800086CD30008B8D30008F0D4000821
:1049E00068D4000884D400082B6823B1DB6AB3F5CF
:1049F000007F40F33D81A24805F02EFEBB6D0133E0
:104A000000F028812B6823B1DB6AB3F5007F40F307
:104A1000F9809C4805F020FE2B6823B1DB6AB3F5D2
:104A2000007F7FF72DAF984805F016FE85E62B68CE
:104A300023B1DB6AB3F5007F40F31E81934805F094
:104A40000BFE99F8422097F85D100132D2B29142E4
:104A50002B68C0F0DB8023B1DB6AB3F5007F40F345
:104A600061818B4805F0F8FD97F85D3089F8423098
:104A7000059BDB6A13B12146484698472B6823B152
:104A8000DB6AB3F5007F40F35181824805F0E4FD15
:104A900099F840302BB999F8443013B1013B89F8AB
:104AA0004430059810AB00934A46434621462830CF
:104AB000FFF7E0FD2B6823B1DB6AB3F5007F7FF7DA
:104AC000DFAE754805F0C8FD37E62B6823B1DB6A19
:104AD000B3F5007F40F30681704805F0BDFD0598F1
:104AE00010AB00934A46434621462830FFF7C2FDEB
:104AF00023E62B6823B1DB6AB3F5007F40F3F68031
:104B0000674805F0A9FD99F8422097F85D10013239
:104B1000D2B2914280F0D8802B6823B1DB6AB3F522
:104B2000007F40F3EB805F4805F096FD99F8443034
:104B3000002B7ED12B6823B1DB6AB3F5007F40F3F5
:104B4000E580594805F088FD002304F11405B86D8F
:104B50001A460095042101F083F829462046FFF704
:104B600055FDEAE52B681BB1DB6AB3F5007F49DD33
:104B70004E4805F071FD4FE74D4805F0E1FDF6E5C3
:104B80004B4805F0DDFDE8E5494805F0D9FD57E65D
:104B9000474805F0D5FD0EE641F6FC3100220598A8
:104BA00097F85C304158013B1161072BDAD801A21C
:104BB00052F823F0D54B0008D54B0008194A0008DD
:104BC000654B0008D54B0008654B0008654B000895
:104BD000E94900082B681BB1DB6AB3F5007F11DDE2
:104BE000344805F039FD17E72B681BB1DB6AB3F5D4
:104BF000007F07DD304805F02FFD0DE72C4805F05C
:104C00009FFD54E62A4805F09BFD05E71BB1DB6AD2
:104C1000B3F5007FF6DD234805F01EFDFCE62B68AA
:104C20001BB1DB6AB3F5007FECDD244805F014FD11
:104C3000F2E62B681BB1DB6AB3F5007F6ADD204822
:104C400005F00AFD059B5B6B002B3FF476AD4846F3
:104C5000984772E597F86030182B6FD02B681BB11E
:104C6000DB6AB3F5007FCDDD164805F0F5FCD3E631
:104C70000F4805F065FDC1E60D4805F061FDE0E671
:104C80008CD50008ACD5000820D7000830D4000827
:104C900068D4000884D40008B0D4000868D500089F
:104CA00008D50008CCD4000828D5000800D7000893
:104CB0006CD3000814D40008F4D30008D4D300083F
:104CC00044D50008C8D50008059810AB00934A46A3
:104CD000434621462830FFF7CDFC97F85D3089F830
:104CE000423023E78C4805F02BFDF8E68A4805F0B2
:104CF00027FD08E7884805F023FD19E6864805F0FA
:104D00001FFD13E7844805F01BFD24E6824805F0EB
:104D100017FD19E7804805F013FD93E77E4805F07D
:104D20000FFD2CE67C4805F00BFD9DE67A4805F06A
:104D300007FDADE679490320FBF742FF059B41469D
:104D4000986800F08FFE00283FF44EAF059B07F1F6
:104D50006001986800F000FF2B6823B1DB6AB3F5AF
:104D6000007F40F3C8806E4805F076FC07F16101D2
:104D7000182214A805F0B2FBDDE91623CDE90623BD
:104D80002B68DDF85080159FDDF860909DF864B0C9
:104D900023B1DB6AB3F5007F40F3B1804246394668
:104DA000604805F059FC059BD3F81CA0BAF1000F30
:104DB0001AD0DDE9062340463946D047A0B92B6812
:104DC00023B1DB6AB3F5007F40F39D80564805F0C0
:104DD00043FC2B6823B1DB6AB3F5007F7FF750AD4E
:104DE000524805F039FCA8E4059BCDF8009003F18A
:104DF000380A504642463B46FFF792F948B92B68BD
:104E00001BB1DB6AB3F5007F7DDD494805F024FC6A
:104E1000DFE742463B465046FFF7B0F9002854D141
:104E2000DDE90623CDF80890CDE9002303943B4645
:104E300050464246FFF7E8F82B6881461BB1DB6A13
:104E4000B3F5007F63DD3B4805F006FCB9F1000FC8
:104E500031D041F6FC3305994846CB5889F840B02B
:104E6000C9F81030C9F81C400B6A984700222B681B
:104E7000C9F8140089F842201BB1DB6AB3F5007F42
:104E800035DD2D4805F0E8FBD9F81830D9F81420A5
:104E900004F1140618460A930B920096102308AAF0
:104EA0000921CDF82080099700F0DAFE314620462E
:104EB000FFF7ACFB8DE72B681BB1DB6AB3F5007F16
:104EC00021DD1E4805F0C8FB83E7CDF800903B4686
:104ED00050464246FEF7AEFF2B6881461BB1DB6AA7
:104EE000B3F5007F13DD164805F0B6FBAEE70A48C0
:104EF00005F026FCC8E7084805F022FC36E706481E
:104F000005F01EFC4FE7044805F01AFC61E7024873
:104F100005F016FC9AE700BF6CD30008A0B90008A2
:104F2000E8D500080CD6000834D60008DCD6000806
:104F300054D6000870D60008C4D60008A8D60008C9
:104F400090D600082DE9F04F99B0002800F0AA8013
:104F500005464022002108A805F0CBFA08A8082140
:104F600003F03CFC514805F0EBFB05F5DC530F3337
:104F700005F5E152019302F1080305F5DF560293AE
:104F8000DFF8549105F5E0531C3605F1380803931A
:104F900004A803F01FFC9DF81240002C32D0012C15
:104FA000F6D1059C002CF3D004F58C7000F002FFC4
:104FB0000746002865D13E4805F0C2FB04F62410E0
:104FC000FBF7B0FD3B4805F0BBFBD9F80030A772FA
:104FD0001BB1DB6AB3F5007F60DD374805F03CFBB1
:104FE000A37A002B56D142F22A43226906A8D15E49
:104FF000079403F0CBFB04A803F0ECFB9DF81240F0
:10500000002CCCD13368DDF804A0013347464FF0C3
:10501000460B33600FE0294805F01EFB2146404651
:10502000FFF7DAF86B6A0BB1384698470134642C05
:1050300007F146071CD01AF8013F002BF6D197F86C
:105040004530002BF2D14AF6BF010BFB0452336806
:10505000926C9B1A8B42E9DDD9F80030002BDAD034
:10506000DB6AB3F5007FD6DC154805F069FBD5E7B0
:10507000029B144AB3F900301349039803F022F954
:1050800086E70C4805F05CFB00231048A37205F08E
:1050900057FB7DE70E4805F053FB79E7084805F01C
:1050A0004FFB9DE70B490320FBF78AFD50D8000812
:1050B000A0D80008DCD80008F4D800087CD8000884
:1050C0006CD3000860770020C0C62D0010D90008FE
:1050D00088D00008A0B90008B00E00202DE9F04FDC
:1050E00085B0002800F0958043690646002B00F04B
:1050F00090808369002B00F08C8001220027474BB1
:10510000474C48485A80678005F01AFB464A474B8F
:1051100006F5E15002920093019608230A30052219
:105120004FF40061FBF7F6FD031E66DD41F62845EE
:105130003F48735305F004FB3E4A3F4B06F51050C1
:105140000292009301962C30082305224FF400614F
:10515000FBF7E0FD002856DD42F22A41735F22464C
:105160007052364906F5E05003F0ACF806F138000D
:10517000FEF748FEB369002B3BD07469E368002B4F
:1051800047D02661C4F81471002C42D040F638187C
:10519000BB46DFF8B8A0DFF8B8900AE07469444471
:1051A000E368002B35D02661C4F814B108F638182E
:1051B0007CB322786168484605F04EFA04F58C709D
:1051C00000F078FDE5680137C5F84CA02C6528464D
:1051D00002F016F8E06802F00DFB00F06DFF2046CB
:1051E000FFF7F8F8696C284602F054FBB3699F4258
:1051F000D4D3062005B0BDE8F08F114805F0A0FA21
:105200006FF00100F6E70F4805F09AFA6FF004001E
:10521000F0E70D490320FBF7D3FC00BF68770020BF
:105220006077002018D1000848D10008454F0008D9
:105230008CD10008C0D1000879440008C0C62D00F8
:1052400058D10008D4D10008A0B900080D470008C3
:105250000CD200082DE9F0432E4D0746286883B094
:105260000C4691461E4618B1C36AB3F5007F2CDD8B
:1052700031462246284805F0EFF907F1380021466B
:10528000FFF700F858B3C76990F8443007F11408E5
:10529000002B18BF0621334608BF00214A4620468E
:1052A000CDF8008000F0DCFC41463846FFF7AEF94F
:1052B0002B681BB1DB6AB3F5007F1EDD174805F0D4
:1052C000CBF9062003B0BDE8F083154805F038FAA5
:1052D00007F138002146FEF7D5FF0028D3D12B680F
:1052E0001BB1DB6AB3F5007F0EDD0E4805F0B4F9A3
:1052F0006FF0020003B0BDE8F083094805F020FA22
:10530000062003B0BDE8F083054805F019FA6FF0F8
:105310000200D7E7B00E0020E0D2000838D3000822
:105320006CD3000808D300082DE9F047DFF810A17E
:1053300084B0DAF8001007469046994619B1CB6A56
:10534000B3F5007F64DD42464946374805F084F9ED
:1053500007F13804204642464B46FEF771FF0546EA
:1053600068B1DAF800301BB1DB6AB3F5007F53DDBA
:105370002E4805F071F9A9692046FEF72DFFDAF8ED
:1053800000301BB1DB6AB3F5007F3DDD284805F036
:1053900063F9BB691BB37C690025E36843B93FE04F
:1053A00040F638147B6904FB0534E368002B37D0E2
:1053B000082304F114060DEB03020B214FF0FF301C
:1053C0000096CDF80880CDF80C9000F049FC3146ED
:1053D0002046FFF71BF9BB690135AB42E0D8DAF88C
:1053E00000301BB1DB6AB3F5007F06DD114805F024
:1053F00033F9062004B0BDE8F0870F4805F0A0F9A6
:10540000062004B0BDE8F0870B4805F099F9C0E725
:10541000094805F095F99BE7074805F091F9AAE7D7
:1054200006490320FBF7CCFB44D2000868D20008F1
:105430008CD20008C8D200086CD30008A0B90008BC
:10544000B00E00202DE9F0471C4B82B01B680746C8
:10545000884691461BB1DB6AB3F5007F26DD18480C
:1054600005F0FAF8BB69EBB17C69E36813B300257A
:1054700040F6381A04E07C690AFB0544E368CBB1C6
:1054800004F114064B46424607214FF0FF300096C8
:1054900000F0E6FB31462046FFF7B8F8BB6901355E
:1054A000AB42E8D8062002B0BDE8F087054805F019
:1054B00047F9D7E704490320FBF782FBB00E002031
:1054C000D4D000086CD30008A0B90008BFF34F8FF8
:1054D0000549064BCA6802F4E0621343CB60BFF390
:1054E0004F8F00BFFDE700BF00ED00E00400FA05AC
:1054F0002DE9F0471C461B78AEB03F3B05460F46F2
:10550000904600F1380604F1010A172B00F28C8155
:10551000DFE813F03C008A018C0067007F00C400C4
:105520008A01D000D6008A01E300190124013C0160
:105530008A018A018A017A018A011C008A018A0192
:1055400018001E000021C348FCF720FEFFF7BEFF35
:10555000504605F0DDF9102840F25F81002000215F
:105560002EAA62E9200101235046102102F042FEDA
:10557000002800F052810E9A0F99B74805F06CF898
:10558000DDE90E232846FFF7CFFE96E0504605F0F2
:10559000BFF9122840F24181002000212EAA62E9C1
:1055A000200101235046102102F024FE002800F0C3
:1055B0003481DDE90E233046FEF742FE0546002821
:1055C00000F0E68104F111001022002105F03AFA02
:1055D0002A6885F84400C3B26968A04805F03CF821
:1055E0006BE0504605F094F9461E16F0010340F0BA
:1055F000248150460EAA314602F0FCFD002800F03E
:105600000C8106EBD67672100EA92846FFF71AFF1A
:1056100053E0504605F07CF9032800F01381514611
:105620008F4805F019F82EB0BDE8F08750466F6935
:1056300005F06EF9322840F2F0804FF000084FF08C
:1056400000092EAA62E9248950460123102102F0A4
:10565000D1FD002800F0E1802EAA62E92089012313
:10566000102104F1110002F0C5FD002800F0D580E2
:1056700000252EAA42F8985D0123082104F121009B
:1056800002F0B8FD002800F0C8800899632940F2B4
:1056900028816422734804F0DFFF0EE0504605F0D5
:1056A00037F90328BBD1504604F046FDC0B2FDF7E0
:1056B000CBFC02E00EA803F047F82EB0BDE8F0875F
:1056C000504605F025F90328A9D1504604F034FDD1
:1056D0000021C0B2FDF7ACFCEFE7504605F018F929
:1056E000122840F29A80002000212EAA62E92401AB
:1056F00001235046102102F07DFD002800F08D802E
:10570000DDE90A233046FEF79BFD0746002800F03E
:10571000398104F11108404605F0FAF8461E16F0EA
:10572000010340F08A8040460EAA314602F062FD35
:10573000002872D006EBD67673100EAAB9692846F7
:10574000FFF788FDB9E7504605F0E2F8212800F0A0
:1057500099805146444804F07FFFAEE700F5DC55E0
:10576000074600240F3504E00134642C07F1460796
:105770005FD015F8013F002BF6D197F87D30002B54
:10578000F2D021463046FEF727FDEDE700F5DC5765
:1057900000F5DF5906460024DFF8E4A00F3709F1D1
:1057A0001C0904E00134642C06F1460685D017F884
:1057B000013F002BF6D1462202FB0452134696F815
:1057C000781053F838EF0491D2F848C0D9F8001097
:1057D00052F8400FA1EB0C01526801EB41015B68EC
:1057E0000391019202905146CDF800E00EA84C22A0
:1057F00005F00EF80EA94046FEF79EFD0028D1D117
:105800001A4804F09DFFCDE740461949FEF794FD84
:1058100039460EA802F098FF4FE72146104804F0E1
:105820001BFF2EB0BDE8F0872146124804F014FF9C
:1058300043E7114804F084FF3FE721460F4804F096
:105840000BFF3AE7504604F077FCC0B2FDF7F6FBD9
:1058500033E700BFAD1007B03CDB000800DB0008F9
:105860003CDA000870DB000858DC00081CDA00088D
:10587000FCD90008C0DC000818DC000894DA000835
:1058800000DA000800240A940B940C940D94FDF7A0
:10589000DFFD224606460F4650460AA902F0D2FC1A
:1058A00020B951463F4804F0D7FE06E73046394656
:1058B00023460AAAFDF778FD78B121460EA82022DA
:1058C00004F017FE0AA823460EAA102102F0D0FC0D
:1058D0000EA9354804F0C0FEEFE6344804F0BCFEE3
:1058E000EBE62EAA42F8945D0123082104F1290079
:1058F00002F080FC002890D02EAA02F8995D0123C6
:10590000022104F1310002F075FC002885D02848FE
:1059100004F0A2FE0A9A0B99264804F09DFE0E9A06
:105920000F99254804F098FE0899244804F094FE45
:105930000999234804F090FE9DF81F10214804F0B7
:105940008BFE08993046FEF73BFC28BBDDE90E458F
:10595000DDE90A2340F6381E9DF81F1030460EFB85
:105960000177099E089903970296CDE90045FEF755
:10597000B1FA00283FF4A1AE002303754375837587
:10598000C3759AE60A9A0B990F4804F065FE94E6EF
:105990000E4804F0D5FE90E608993046FEF71CFC50
:1059A000D4E700BF78DC0008C8C30008A0DC00080A
:1059B000A4DB0008C4DB0008D8DB0008ECDB00082F
:1059C000FCDB00080CDC000864DA0008CCDA000814
:1059D000FFF78EBDF0B505460E461C4689B0084B54
:1059E0000E9F196802A8102302F00CFF009733469F
:1059F0002A46214602A802F0D3FC09B0F0BD00BF40
:105A000094E50008F0B505460E461C4689B0084BE3
:105A10000E9F196802A8102302F0F4FE0097334687
:105A20002A46214602A802F071FC09B0F0BD00BF71
:105A300094E5000810B58AB002F1090302AC0A1D12
:105A4000DBB20094102103F08DFD9DF809309DF824
:105A500008209DF80A001B0243EA024318430AB0DB
:105A600010BD00BF10B50A7B0C4612B10E2A0AD831
:105A700010222146FFF7DEFF2368B0EB132F0CBF87
:105A80000120002010BD130703D022F00F021032B6
:105A9000D2B21032D2B2ECE72DE9F0430E78C1B0A9
:105AA0006EB3330703D026F00F061036F6B20D465C
:105AB0000746E22207A8002104F01BFD2C780135DF
:105AC0000E2C20D8DFF88C802C4400F0FBFAA8FBC9
:105AD000002300EBD31004F8010B631B0F2BF4D948
