:020000040800F2
:100000000002002055040008F1030008AD030008B9
:100010000104000811040008210400080000000089
:100020000000000000000000000000009103000834
:1000300031040008000000007503000841040008B6
:1000400025010008250100082501000825010008F8
:1000500025010008250100082501000825010008E8
:1000600025010008250100082501000825010008D8
:1000700025010008250100082501000825010008C8
:1000800025010008250100082501000825010008B8
:1000900025010008250100082501000825010008A8
:1000A0002501000825010008250100082501000898
:1000B0002501000825010008250100082501000888
:1000C0002501000825010008250100082501000878
:1000D00025010008C90A0008CF0A0008D50A00084F
:1000E0002501000825010008250100082501000858
:1000F0002501000800000000250100082501000876
:100100002501000825010008250100082501000837
:100110002501000825010008250100082501000827
:100120002501000800F08CB900F09EBA704700006D
:1001300070B50C46064600F087FA094B094A1D685F
:100140002C44944202D8084A944207D20C234FF020
:10015000FF35336000F080FA284670BD1C60F9E777
:1001600000020020004001206411002019461046C2
:1001700000F086BA1946104600F08ABA13230360CD
:100180004FF0FF307047132303604FF0FF3070478C
:10019000132303604FF0FF307047002302290360F0
:1001A0008CBF002001207047134910B50C68002057
:1001B00094FAA4F18442B1FA81F108BF4FF0FF3103
:1001C0000E4C0F4B54F8211018600E4B09681A683A
:1001D000A1F1080494420ED022B110790A2804BF7C
:1001E0000B2010710A22012001F8042C31F9021CA5
:1001F000054A1C60118010BD8C020020A002002066
:10020000980200209402002090020020092930B5B5
:1002100003791AD9092B14D842791A4B00F1080432
:1002200053F822507DB12D68856053F822502C6020
:1002300043F822400123144A4479A340146823431D
:100240001360017130BD8460F2E7092BF9D945795B
:100250000C4B53F825203AB11468A2420BBF002280
:10026000246843F825201460427953F82230002B8B
:10027000E7D10123044C03FA02F2236823EA0203C4
:100280002360DEE7A00200208C02002008B5094BA5
:100290001B681A79092A02D95B79834205D900F0D3
:1002A000DEF918B10122044B1A6008BDBDE8084010
:1002B00000F058B89402002098020020002408B5ED
:1002C00000F0C2F9084B094A1B88094D1BB242F8DD
:1002D0002340084A214613682868013B1360FFF752
:1002E00095FF2C6000F03AF890020020E002002018
:1002F000940200209C02002013444FF0773223F038
:10030000030310B51C1F43F8042C620742BF4FF0D3
:100310008832A3F1080443F8082C4FF0807344E9B5
:1003200002030D4B002244F80C3C0323022044E955
:1003300005320123224644E907300B2342F8201DF1
:1003400042F8043D013B032BFAD120466FF0020333
:1003500040F8443D10BD00BFBD02000800F078F930
:1003600001DFFEE7024A536843F080535360704751
:1003700000ED00E0EFF3098020E9F00F40F804ED14
:1003800002490968086000F003F8000094020020A8
:10039000FFF70AFF04480068016801C9B1E8F00FDF
:1003A00081F3098800470000940200200D4B0E4A9B
:1003B0000E496846904203D8984201D9002102E0D4
:1003C00009468D46012104207246024202D1EFF314
:1003D000088001E0EFF309802DE9F00F6B4600F093
:1003E0006FF800BF580100200040012000020020EB
:1003F00008B50249042000F0F3FB00BF3B230008CE
:1004000008B50249062000F0EBFB00BF28230008D6
:1004100008B50249072000F0E3FB00BF02210008F5
:1004200008B50249082000F0DBFB00BF47230008A5
:1004300008B50249092000F0D3FB00BF14210008D1
:1004400008B502490A2000F0CBFB00BF26210008B6
:100450007047704708B5FFF7FBFF6A46114B12491A
:10046000934213D3114A124B12498B4211D30021EC
:10047000114B124A934211D3FFF7EBFF00F0A2FB9E
:1004800000F03AFFBDE8084000F0DCBB43F8041B75
:10049000E6E752F8040F43F8040BE6E743F8041BC1
:1004A000E8E700BF00000020FEE7FEE72C2500087B
:1004B000000200208C0200208C0200206411002029
:1004C0002DE9F04F9A464A4B93469A6B8FB00392B0
:1004D0005A6B9F6A0492DA6A044605921A6BDB6BC8
:1004E00006920793434B88461A68434B9A4202D0C0
:1004F000424800F099FFB8F1000F4ED00025404867
:1005000000F092FF2E463F4800F08EFF39463E48ED
:1005100000F016FF05993D4800F012FF06993C488F
:1005200000F00EFF07993B4800F00AFF3A0403D59C
:100530000399394800F004FF3B0603D50499374876
:1005400000F0FEFE364800F06FFF5946354800F0D7
:10055000F7FEB8F1000F1BD1334800F065FF3146BC
:10056000324800F0EDFE6946314BC91A03D54942C5
:10057000304800F0E5FE20468268C36801698C4679
:1005800041698E46AD46514691E8F00F41680068DA
:1005900001BE2949052000F023FBD4E90230089070
:1005A0002069D4E906690990606919F4007F0A900E
:1005B0002248D4E9001208BF04F12005CDE90C233C
:1005C00018BF04F124050B9100F02EFF089B0B9936
:1005D00000931B48DDE90C2300F0B2FEDDE90912AF
:1005E000CDF800903346174800F0AAFE8BE700BF15
:1005F00000ED00E000000020FEE7FEE734210008E7
:100600004A2100080F2200081822000828220008AA
:1006100038220008482200085822000868220008F2
:10062000782200087D2200088F220008C0220008DE
:1006300058010020E822000815230008792100084D
:1006400094210008D1210008EFF3108072B67047A2
:1006500062B6EFF31080704780F310887047EFF3B5
:100660000580C0B270470000034B044A4FF4E131EB
:10067000002000F0C9B900BF04020020510E00089C
:100680000A460146014800F0EEBB00BF040200200C
:1006900010B50C460A460146002000F07FF92046BE
:1006A00010BD0000734B01282DE9F047187005D0EC
:1006B00002281FD04FF0FF30BDE8F0876E4B1A685C
:1006C00042F00E021A601A6842F400721A605A6808
:1006D00042F4E0625A60694A136943F0040313610B
:1006E000FFF7B2FFBFF34F8F30BFFFF7B5FF00F04A
:1006F00035FCDFE7604B00251A68DFF8C09122F077
:1007000002021A601A68DFF8B88142F004021A6027
:100710001A685B4F42F001021A601A6842F40072D4
:100720001A60564A136943F004031361FFF78CFF04
:10073000064605F580148034A402204600F03CFBF8
:1007400078B1236849F82530E36848F825306368B4
:10075000A26A27F815304B4B23F815200135082DD8
:10076000E7D100244FF01808474F484D08FB04F22A
:10077000D159CB6813F4005309D0CB683A4423F421
:100780000053CB60D068042100F0A7F901232B555A
:100790000134032CEAD14FF48051012000F0C8FC51
:1007A00001280FD13A4B1B689A075FD408213948BA
:1007B00000F093F90821384800F08FF903213748F9
:1007C00000F08BF94FF48041002000F0B1FC0128CB
:1007D0000FD1334B1B689B074AD40821314800F0E6
:1007E0007CF90821304800F078F903212F4800F007
:1007F00074F9BFF34F8F30BF00F0B0FB0027DFF874
:10080000C0A0DFF87C90DFF8B48007F58014803456
:10081000A402204600F0D0FA78B15AF82730E360FD
:1008200039F81730636058F827302360154B33F8D8
:1008300017300137082FA362E7D12B7823B11C4A68
:10084000D36843F40053D3606B7823B1194AD3685B
:1008500043F40053D360AB7823B1174AD36843F411
:100860000053D3603046FFF7F7FE23E704219EE7ED
:100870000421B3E7070400200070004000ED00E011
:10088000D4030020A40300205C23000804040020FB
:10089000003001400500024007000240060002400F
:1008A000003800400D0402400F0402400E040240D4
:1008B000003801400044004000480040B4030020DC
:1008C000E403002008B5FFF7BFFE0022014B1A70B9
:1008D00008BD00BF07040020182343430D4A70B52C
:1008E000D4582568AA0609D50C2358430A4A6168DA
:1008F00013181E7A12583140586890472B0748BF8A
:100900006368064B1B681BB1BDE87040FFF72ABD4A
:1009100070BD00BFA4230008080400209802002036
:100920002DE9F041182545431B4E0C4606EB050802
:1009300098F81470384600F0C1FBB0FBF4F00728BB
:1009400008D83846D8F8041000F0D8FB6FF0010042
:10095000BDE8F08172590F28D36823F40053D360A7
:10096000D168C3B20DD8083B41F4004143F01003F5
:10097000D160DBB29360D368002043F40053D360AE
:10098000E6E720F00F0021F4004103F00F0380B2EE
:10099000D1600343EEE700BFA4230008022810B58E
:1009A00003D90C49032000F01BF9182358430A4BC4
:1009B0001B58D868000705D50A44914203D11A682C
:1009C0005206FCD510BD11F8010B1C682406FCD59D
:1009D0005860F2E7EC230008A4230008022808B5B9
:1009E00003D90749032000F0FBF81822054B02FB4E
:1009F0000030BDE808404168007D00F065BB00BFE5
:100A0000EC230008A423000802282DE9F84305463A
:100A10008846174603D92849032000F0E1F80C2244
:100A200018246A432548DFF89C9081184B60FF2307
:100A300004FB0594E66887500B723046617C00F039
:100A40004CF8304600F0B3F83046E17C00F082F814
:100A50004E464FB1D4F80890217C484600F03DF84E
:100A6000A17C484600F076F82846FFF7B7FF182328
:100A70006B43F45806EB030900234146E360284624
:100A800023616361FFF74CFF9FB199F8152053B2C2
:100A9000002B08DB012102F01F0201FA02F20849D3
:100AA0005B0941F8232042F22C03E3600020BDE8FB
:100AB000F88342F20803F8E7EC230008080400205A
:100AC00000E100E0A42300080020FFF705BF01209B
:100AD000FFF702BF0220FFF7FFBEF8B5431C0D462B
:100AE00037D0012620F00F0400F00F07C0F3832059
:100AF00006FA00F1022000F0E7FAFFF7A5FD032354
:100B000007FA06FE03FA0EF36FEA030C226805F0FB
:100B100003010CEA020201FA0EF111432160E268BE
:100B2000BE400CEA020CC5F3810202FA0EF242EA60
:100B30000C02E2606268C5F3001522EA0602BD40BD
:100B400015436560A2681343A360A662FFF784FDA6
:100B50000020F8BDF8B5431C04460E4626D000F030
:100B60000F0720F00F05FFF76FFD032379002A68B8
:100B70008B4022EA03020223072F03FA01F394BFFA
:100B80000027012713432B600F2305EB870504F093
:100B90000704296AA400A34021EA030106FA04F429
:100BA0000C432C62BDE8F840FFF756BDF8BD431C6E
:100BB00007D0012320F00F0200F00F0003FA00F02D
:100BC0009061704708B500F081F9BDE80840012147
:100BD0000148FFF782BF00BF0004024070470000D9
:100BE00008B50C4B0C461A6872B9012203281A602A
:100BF00003D17146084800F0A3FB2146074800F0E6
:100C00009FFB074800F09CFBFFF71EFDFFF7E6FF88
:100C1000FFF758FE2C040020FE23000802240008E1
:100C20001E24000808B500F00FFB034800F088FB05
:100C300000F002FB002008BD2C24000808B500F0DD
:100C400025F9FCE71FB50024FFF7FEFC0D4B0F2232
:100C50001B684FF4807102930B4B019400930B4877
:100C60000C2300F033F80A4B07221B684FF4406155
:100C7000CDE90143074B084800930C2300F026F808
:100C8000FFF76CFB180200203D0C00083004002028
:100C90001C020020250C00083005002038B50B7917
:100CA000092B03D908490320FFF79AFF4C7901F17A
:100CB0000802036813B98B60026038BD13F8035C47
:100CC000AC42F8D31846F4E7EC2300080F2A2DE9CC
:100CD000F74F05468B4691469A4633D810F00303EA
:100CE0000FBF0B46C3F10403ED18CB1A303B23F0C2
:100CF00003031AF0080F05EB030419D12D6003E07C
:100D000012600432A242FBD30193FFF79DFC012243
:100D100080462749019B51F8226017B2AEB10132DB
:100D2000212AF8D14046FFF797FC6FF08A073BE095
:100D30002A46E7E701212046FFF768FA4046FFF719
:100D40008BFC31E06FF015072EE041F822402A4677
:100D5000DDE90C01E780FFF7CFFA0E9B154AA3628D
:100D60004FF0FF33C4E9073613681AF0010F03F19F
:100D7000010320606562C4F82CB084F805902671E8
:100D8000C4E90266C4E90466A6611360D2D10B21EE
:100D90002046FFF73BFA1AF0040FCFD14046FFF789
:100DA0005BFC4846FFF772FA384603B0BDE8F08FA7
:100DB000E00200209C0200200C4B9A6A42F40042A0
:100DC0009A62EFF3138171B65A6942F480725A61E4
:100DD0000278986A5A6922F480725A6181F3138802
:100DE00080F40040C0F3C030704700BF00ED00E069
:100DF000F8B505460F46164604463C442046FFF724
:100E0000DBFF631B08B19E42F7D81846F8BD00000F
:100E10000C4B0D4A10B59A60102200210B4C83F840
:100E20002220DA7760180131392980F80023F9D1BE
:100E30001A6942F010021A615A6942F400725A614A
:100E400010BD00BF00ED00E00000000800E100E080
:100E500038B5054600F0DCF9044605F1100000F055
:100E600025FA204638BDF8B504460D46164600F171
:100E7000100732462946204600F0B7F900B1F8BD08
:100E80000121384600F0E2F9F3E7000073B50424CD
:100E90000D4D02AA296842F8041D631E995C11B920
:100EA0001C46002BF9D1FFF7CFFB2B68019A0646B1
:100EB0009A4202D160B2FFF7F5FB304602B0BDE8BE
:100EC0007040FFF7C9BB00BF200200202DE9F047AA
:100ED000FFF79EFF4FF08051002000F0F5F800F082
:100EE0003DF81B4B4FF6FF710220DE69002500F034
:100EF000EBF86FF0A849DFF85C80DFF85CA0B6B2D1
:100F000005F580148034A40224F440634345EFB215
:100F100001D053450BD12046FFF74EFF38B127B122
:100F2000012F11D04FF0FF3310E0C4F800900135CD
:100F30000C2DE5D13146022000F0C6F800F07BF917
:100F4000BDE8F04700F00CB96FF4A0732360EEE742
:100F50000038024000000240001002404F4B13B521
:100F60001A684F4C42F480721A609A6822F47F52D9
:100F700022F030029A609A6822F0EE429A609A68F3
:100F800022F003029A601968464A0A4000211A605A
:100F9000D9602268022A61D0B2F5003F1A6842F493
:100FA00080321A605FD13D490A6823681A42FBD03B
:100FB0003D4B1A6842F004021A601A6842F00102BE
:100FC0001A601A6842F002021A609A691007FCD58A
:100FD0004FF08051002000F077F8344B1A6822F46B
:100FE000C05242F400621A605A68D106FCD42B4BFE
:100FF0009A6822F47F5222F030029A609A6822F4B2
:101000007D029A602268B2F5003F9A680CBF42F4F4
:10101000050242F488029A601A6842F080721A60EF
:101020001A689201FCD540F201129B6820492068A1
:10103000B0F5003F08BF114643F00302174B9A601A
:101040009A6802F00C020C2AFAD11A6822EA01020C
:101050001A60184B184A1A6202B010BD1A6842F0A2
:1010600001021A609FE74FF4003242F210702260D2
:10107000019119682268114295D1019A01320192B9
:10108000019A8242F5DD1A6842F001021A601A687C
:1010900022F480321A600223236084E70038024081
:1010A00030110020FEFFFAEE003C024000700040CC
:1010B00000010100341100200048E801014B186ACA
:1010C000704700BF3411002001280AD004D3022841
:1010D0000CD0BFF34F8F7047074A536A19435162D0
:1010E000F7E7054A136A19431162F2E7024AD36926
:1010F0001943D161EDE700BF00380240012809D053
:1011000002D302280CD07047084A536A23EA01012F
:1011100051627047054A136A23EA01011162704760
:10112000024AD36923EA0101D161704700380240C5
:1011300001280CD004D302280CD04FF0FF307047A8
:10114000064B5B6A0B4214BF012000207047034B23
:101150001B6AF7E7014BDB69F4E700BF0038024088
:1011600038B54FF4A0324FF480614FF00050FFF7D4
:101170003FFE0425144C4FF4002220604FF48061A0
:101180004FF000602571FFF733FE4FF48073A060CD
:10119000000A4FF48042E0604FF400610B48236185
:1011A0002575FFF725FE0A4B25771B68A061C3F361
:1011B0000B03A3F21643212B8EBF0023054AD35CF9
:1011C00084F8243038BD00BF341100200000080826
:1011D000002004E06624000882680168531C8360D4
:1011E0004368013B1340C85C7047F8B505460F469D
:1011F000164614461CB1AA68EB689A4201D1301B0E
:10120000F8BD2846FFF7E8FF013C07F8010BF1E7BE
:10121000C26830B584684368121B9A4208D0C2681D
:101220000468551CC5600020013B1340E15430BDEB
:101230004FF0FF30FBE7704708B5024800F0F4F8C4
:10124000002008BD882400087047000070B50446DF
:101250000D46FFF7F9F9236806463BB94FF0FF3317
:101260002360FFF7F9F90125284670BDC5B10E4B83
:1012700002211D682846FEF7C9FF236801330AD101
:1012800005F1080323600023AB603046FFF7E4F963
:10129000FFF768F8E7E729462046FFF7FFFCF4E789
:1012A000FFF7DAF9E0E700BF9402002070B50446CA
:1012B000FFF7CAF9256806461DB9BDE87040FFF77B
:1012C000CBB96B1C02D100232360F6E7284650F807
:1012D00008390B212360FEF799FF236813B94FF0FB
:1012E000FF33236015F8034C3046FFF7B5F920466D
:1012F000BDE87040FEF7CABF70B500250C4E0D4C1E
:10130000A41BA410A54209D1FEF70EFF00250A4E2A
:101310000A4CA41BA410A54205D170BD56F8253077
:1013200098470135EEE756F8253098470135F2E742
:101330003025000830250008302500083025000839
:101340000FB40A4B13B51C6824B1A36913B9204626
:1013500000F022FA05AB049AA1682046019300F040
:10136000DFFB02B0BDE8104004B07047240200204B
:1013700070B50E46054618B183690BB900F00CFA3A
:10138000AB69AC6813B9284600F006FA234B9C42BF
:1013900017D16C68A3891B071DD52369DBB1013EFA
:1013A000A36816F8011F013BA360E9B9002B2EDAF0
:1013B00022460A21284600F03FF8013011D00A20C9
:1013C00011E0174B9C4201D1AC68E3E7154B9C42FE
:1013D00008BFEC68DEE72146284600F07FF80028C9
:1013E000DDD04FF0FF3070BD002B04DAA2699A42C5
:1013F00006DC0A2904D023685A1C22601970CFE742
:101400002246284600F018F80130C9D1E9E70A2041
:1014100023685A1C22601870E5E700BFBC2400084E
:10142000DC2400089C240008024B01461868FFF7E2
:101430009FBF00BF24020020F8B50E4614460546A3
:1014400018B183690BB900F0A7F9214B9C422AD14E
:101450006C68A369A360A3891A072ED5236963B3B7
:1014600023692068F6B2C01A63693746834204DCF8
:101470002146284600F026F928BBA3680130013B2D
:10148000A36023685A1C22601E706369834204D0E3
:10149000A389DB0719D50A2E17D12146284600F06B
:1014A00011F990B10FE00B4B9C4201D1AC68D0E731
:1014B000094B9C4208BFEC68CBE72146284600F068
:1014C0000DF80028CCD04FF0FF373846F8BD00BFEC
:1014D000BC240008DC2400089C240008324B70B5B2
:1014E0001D6806460C4625B1AB6913B9284600F0C5
:1014F00053F92E4B9C420FD16C68B4F90C309AB260
:1015000015072CD4D00611D40922326043F04003D1
:10151000A3814FF0FF303EE0254B9C4201D1AC68E7
:10152000EBE7244B9C4208BFEC68E6E7510712D575
:10153000616B41B104F14403994202D0304600F09E
:1015400021FA00236363A38923F02403A3810023EA
:10155000636023692360A38943F00803A38123699F
:101560004BB9A38903F42073B3F5007F03D0214660
:10157000304600F0BFF9A28912F001030CD000231D
:10158000A36063695B42A361236953B9B4F90C306A
:1015900013F08000BAD170BD920758BF6369A36091
:1015A000F2E70020F7E700BF24020020BC24000877
:1015B000DC2400089C2400088A892DE9F0410546B6
:1015C00010070C4658D44B68002B05DC0B6C002B25
:1015D00002DC0020BDE8F081E66A002EF9D000238D
:1015E00012F480522F68216A2B6032D0606DA3897B
:1015F0005A0705D56368C01A636B0BB1236CC01A18
:1016000000230246E66A216A2846B047431CA389A4
:1016100006D129681D2948D8294ACA40D60744D589
:10162000002262602269D904226004D5421C01D1E3
:101630002B6803B96065616B2F600029C9D004F184
:101640004403994202D0284600F09CF900206063D0
:10165000C0E701232846B047411CC8D12B68002BA6
:10166000C5D01D2B01D0162B01D12F60B1E7A38966
:1016700043F04003A381ADE70F69002FA9D0930782
:1016800018BF00230E6808BF4B69A6EB07080F6060
:101690008B60B8F1000F9CDD43463A46216A28462C
:1016A000A66AB047002806DCA38943F04003A38163
:1016B0004FF0FF308EE70744A8EB0008E9E700BFD2
:1016C0000100402038B50B6905460C46DBB118B166
:1016D00083690BB900F060F80C4B9C4209D16C682F
:1016E000B4F90C307BB121462846BDE83840FFF7FD
:1016F00063BF074B9C4201D1AC68F1E7054B9C42AC
:1017000008BFEC68ECE7002038BD00BFBC2400082F
:10171000DC2400089C240008002310B50446C0E91E
:101720000033836081814366C281C0E904338361F1
:10173000194608225C3000F01DF9054B24626362F3
:10174000044BA362044BE362044B236310BD00BF50
:101750005D2000087F200008B7200008DB2000087B
:10176000014900F085B800BFC516000870B56825AE
:101770004A1E55430E4605F1740100F04FF9044628
:1017800040B10021C0E900160C30A06005F16802EC
:1017900000F0F0F8204670BD836910B5044633BBF5
:1017A000C0E912330365124B124A1B6882629842E9
:1017B00004BF0123836100F01FF86060204600F041
:1017C0001BF8A060204600F017F80022E06004211A
:1017D0006068FFF7A1FF01220921A068FFF79CFFC5
:1017E00002221221E068FFF797FF0123A36110BDD9
:1017F0009824000861170008F8B51B4B07461E68BF
:10180000B36913B93046FFF7C7FF4836D6E901344C
:10181000013B03D5336833B13668F7E7B4F90C50B0
:101820006DB16834F4E704213846FFF79FFF30605C
:101830000028F1D10C2304463B602046F8BD0B4B39
:101840006566C4E90055A560C4E90335C4E90555DA
:101850000822294604F15C0000F08CF8C4E90D551B
:10186000C4E91255E9E700BF982400080100FFFF12
:101870002DE9F84380468946002600F1480414B952
:101880003046BDE8F883D4E90175013F01D52468ED
:10189000F5E7AB89012B07D9B5F90E30013303D039
:1018A00029464046C84706436835EEE770B50E4600
:1018B000B1F90E1096B0002914461D4607DA002330
:1018C0002B60B3891A0610D44FF480630EE06A4689
:1018D000FEF75EFC0028F2DB019A02F47042A2F5EA
:1018E00000535A425A412A60EEE740230020236009
:1018F00016B070BD8B8973B59D0706460C4607D59B
:1019000004F14703236023610123636102B070BDCA
:1019100001AB6A46FFF7CAFF00990546304600F062
:101920007DF848B9B4F90C309A05EFD423F00303DD
:1019300043F00203A381E3E70D4BB362A389206068
:1019400043F08003A381009B20616361019B5BB135
:10195000B4F90E103046FEF720FC28B1A38923F01D
:10196000030343F00103A381A3891D43A581CDE7B0
:101970006117000803460244934200D1704703F800
:10198000011BF9E738B50546002943D051F8043C5E
:101990000C1F002BB8BFE41800F0B1FB1E4A1368FF
:1019A000104633B9636014602846BDE8384000F043
:1019B000A7BBA3420BD921686218934201BF1A68E2
:1019C0005B685218226063600460EDE713465A6852
:1019D0000AB1A242FAD919685818A0420BD120685E
:1019E0000144581882421960DED1106852680144DF
:1019F00019605A60D8E702D90C232B60D4E720681D
:101A000021188A4201BF116852680918216062607A
:101A10005C60C9E738BD00BF5C11002070B5CD1C0B
:101A200025F0030508350C2D38BF0C25002D064682
:101A300001DBA94203D90C233360002070BD00F004
:101A40005EFB214A1468214691B9204C23681BB9DA
:101A50003046FEF76DFB206029463046FEF768FBF6
:101A6000431C24D10C233046336000F049FBE4E7EB
:101A70000B685B1B18D40B2B0FD90B60CC18CD5007
:101A8000304600F03DFB04F10B00231D20F0070061
:101A9000C31AD3D05A42E250D0E74B688C4216BFEB
:101AA000636013600C46EBE70C464968CCE7C41C46
:101AB00024F00304A04205D0211A3046FEF738FB7B
:101AC0000130CFD02560DBE75C11002060110020E1
:101AD000936810B4013B002B936007DA9469A3422A
:101AE00001DB0A2902D110BCFFF7A6BC1368581C01
:101AF00010601970084610BC7047F8B506460F46CE
:101B00001446D518AC4201D1002007E03A4614F83B
:101B1000011B3046FFF7DCFF431CF3D1F8BD00008A
:101B20002DE9F04F0C469DB017461D46064618B1EC
:101B300083690BB9FFF730FE7C4B9C4258D1746827
:101B4000A38918075ED52369002B5BD00023099376
:101B500020238DF8293030234FF0010B8DF82A30E7
:101B60000395B846454615F8013B0BB1252B54D1DA
:101B7000B8EB070A0BD053463A4621463046FFF7EA
:101B8000BCFF013000F0C280099B5344099398F8D0
:101B90000030002B00F0BA8000234FF0FF32CDE977
:101BA0000523049307938DF853301A93A846052212
:101BB00018F8011B5E4800F094FA049B78BBD90624
:101BC00044BF20228DF853201A0744BF2B228DF8E2
:101BD00053202A782A2A2AD0A84600200A25079AC4
:101BE000414611F8013B303B092B69D960B324E031
:101BF000504B9C4201D1B468A2E74F4B9C4208BFB6
:101C0000F4689DE721463046FFF768FC00289DD028
:101C10004FF0FF301DB0BDE8F08FA846A2E7444A60
:101C20004546801A0BFA00F018430490BEE7039A69
:101C3000111D12680391002A01DB079204E0524251
:101C400043F002030792049398F800302E2B0ED134
:101C500098F801302A2B38D1039B08F102081A1D8D
:101C60001B680392002BB8BF4FF0FF330593334D31
:101C7000032298F80010284600F033FA40B14023C0
:101C8000401B03FA00F0049B08F10108034304938E
:101C900098F8001006222A4808F101078DF828104C
:101CA00000F01FFA002837D0264B1BBB039B0733DD
:101CB00023F0070308330393099B4B44099350E730
:101CC00005FB0232012088468AE700230A251946CF
:101CD00008F101080593404610F8012B303A092A13
:101CE00003D9002BC3D00591C1E705FB01210123D6
:101CF0008046F0E703AB00932246134B04A930461D
:101D0000AFF30080B0F1FF3F8146D5D1A3895B06D8
:101D10003FF57EAF09987DE703AB009322460A4B5F
:101D200004A9304600F088F8ECE700BFBC240008A6
:101D3000FC240008DC2400089C240008022500087C
:101D40000625000800000000FB1A00082DE9F047F6
:101D500091461F468A680B6906469342B8BF1346F0
:101D6000C9F8003091F843200C46DDF8208012B10C
:101D70000133C9F800302368990642BFD9F8003012
:101D80000233C9F80030256815F0060507D104F1C3
:101D9000190AE368D9F800209B1AAB4229DC94F8B1
:101DA00043302268003318BF012392062ED404F179
:101DB000430239463046C047013021D02368E568E8
:101DC00003F00603042B18BF0025D9F800204FF0BC
:101DD000000908BFAD1AA368226908BF25EAE575A6
:101DE0009342C4BF9B1AED181A344D451AD10020F6
:101DF00008E00123524639463046C047013003D13E
:101E00004FF0FF30BDE8F0870135C2E73020E11820
:101E100081F843005A1C94F845102244023382F89A
:101E20004310C4E70123224639463046C0470130FB
:101E3000E6D009F10109D8E72DE9F04301F1430C9F
:101E40000C46097E85B06E291746064698460C9AC0
:101E500000F0B38022D8632936D00AD8002900F0D8
:101E6000B980582900F0838004F1420584F84210BB
:101E700032E0642901D06929F6D12068136805068B
:101E800003F104012AD51B681160002B03DA2D220F
:101E90005B4284F843206F480A2239E0732900F03E
:101EA0009D8008D86F2920D07029DDD1236843F0A8
:101EB0002003236003E0752917D07829D4D1782333
:101EC000654884F8453055E0136804F14205191D52
:101ED0001B68116084F8423001238CE01B6810F00D
:101EE000400F116018BF1BB2CFE713682568181D9B
:101EF0001060280601D51B6802E06806FBD51B8828
:101F00006F2914BF0A2208225248002184F8431086
:101F10006568002DA560C0F29580216821F004015C
:101F20002160002B3DD1002D40F08E806546082AAF
:101F30000BD12368DB0708D5236962689A42DEBFAC
:101F4000302305F8013C05F1FF35ACEB05032361B7
:101F5000CDF800803B4603AA21463046FFF7F6FE47
:101F600001304DD14FF0FF3005B0BDE8F083394866
:101F700084F84510136821681D1D1B6815600A064A
:101F80000BD5CA0744BF41F0200121601BB922686C
:101F900022F0200222601022B7E74D0648BF9BB214
:101FA000EFE76546B3FBF2F102FB1133C35C05F8C2
:101FB000013D0B460029F5D1B9E713682568181DC6
:101FC0006169106028061B6801D5196002E06A0685
:101FD000FBD51980002365462361B9E71368191DF5
:101FE00011601D6862680021284600F07AF808B187
:101FF000401B606063682361002384F84330A7E7D7
:1020000023692A4639463046C0470130AAD02368A2
:102010009B0713D4E068039B9842B8BF1846A3E718
:1020200001234A4639463046C04701309AD001352F
:10203000E368039A9B1AAB42F2DCEBE7002504F15C
:102040001909F5E7002BACD1037804F1420584F8B7
:1020500042306CE70D2500081E25000810B50C461F
:10206000B1F90E10FEF782F80028ABBF636DA389AB
:102070001B1823F48053ACBF6365A38110BD2DE909
:10208000F0411F468B890546DB050C46164605D5F3
:1020900002230022B1F90E10FEF775F8A38932462B
:1020A00023F48053A381B4F90E103B462846BDE8C3
:1020B000F041FEF75FB810B50C46B1F90E10FEF70F
:1020C00062F8431CA38915BF606523F4805343F471
:1020D0008053A38118BFA38110BDB1F90E10FEF784
:1020E0004DB810B5C9B202449042034601D1002355
:1020F00003E01C7801308C42F6D1184610BD7047C1
:102100007047425553204641554C542048414E4457
:102110004C4552004445425547204D4F4E204841C2
:102120004E444C45520044554D4D592048414E4473
:102130004C4552000A49535220737461636B206FFF
:10214000766572666C6F77656400537461636B20AB
:10215000706F696E74657220636F727275707465EA
:10216000642C20726573657420746F20746F702006
:102170006F6620737461636B000A436F6E746578D9
:1021800074206265666F726520686172646661754D
:102190006C743A0020202072303A20307825303894
:1021A0006C780A20202072313A2030782530386C43
:1021B000780A20202072323A2030782530386C7826
:1021C0000A20202072333A2030782530386C780A83
:1021D0000020207231323A2030782530386C780A6D
:1021E0002020206C723A2030782530386C780A2014
:1021F000202070633A2030782530386C780A20200F
:102200007073723A2030782530386C780A0A0046AC
:1022100053522F4641523A0020434653523A2030FF
:10222000782530386C780A0020484653523A2030DE
:10223000782530386C780A0020444653523A2030D2
:10224000782530386C780A0020414653523A2030C5
:10225000782530386C780A0020424641523A2030C6
:10226000782530386C780A004D4D4641523A20307E
:10227000782530386C780A004D69736300455843FF
:102280005F5245543A2030782530386C780A004146
:102290007474656D7074696E6720746F2072656305
:1022A0006F6E7374727563742073746174652066E5
:1022B0006F7220646562756767696E672E2E2E00E7
:1022C000496E204744423A0A2020736574202470E6
:1022D000633D3078256C780A20206672616D652038
:1022E000300A202062740A000A4953522073746134
:1022F000636B206F766572666C6F776564206279B8
:10230000206174206C656173742025642062797487
:1023100065732E0A0048415244204641554C5420D2
:1023200048414E444C4552004D454D204D414E4193
:1023300047452048414E444C4552004E4D492048A7
:10234000414E444C45520055534147452046415566
:102350004C542048414E444C455200000038014046
:10236000004000000A000240090002400401070783
:10237000012500000044004000000200030002406C
:102380000200024004010707002600000048004048
:10239000000004000B0402400A0402400401070785
:1023A0000027000000380140004000000A00024001
:1023B0000900024004010707012500000044004015
:1023C000000002000300024002000240040107076F
:1023D0000026000000480040000004000B040240FA
:1023E0000A04024004010707002700004641494C47
:1023F000454420415353455254494F4E2E002570B9
:102400000A002A2A2A2052494F54206B65726E65B1
:102410006C2070616E69633A0A25730A0A002A2AE1
:102420002A2068616C7465642E0A0A006D61696E09
:1024300028293A20546869732069732052494F54FF
:1024400021202856657273696F6E3A203230313917
:102450002E30312E554E574453290A0069646C655D
:10246000006D61696E0001000000000000000000C6
:102470000000000000000003000200000000000057
:10248000000000000000040548656C6C6F20576F69
:10249000726C64210000000028020020000000008F
:1024A000000000000000000000000000000000002C
:1024B000000000000000000000000000000000001C
:1024C000000000000000000000000000000000000C
:1024D00000000000000000000000000000000000FC
:1024E00000000000000000000000000000000000EC
:1024F000000000000000000000000000232D302B31
:102500002000686C4C0065666745464700303132F4
:10251000333435363738394142434445460030314B
:1025200032333435363738396162636465660000AA
:10253000681100206403002040000000000000003B
:1025400000000000000000005C2400086124000876
:10255000010101012802002000000000BC24000845
:10256000DC2400089C24000800000000000000009B
:10257000000000000000000000000000000000005B
:10258000000000000000000000000000000000004B
:10259000000000000000000000000000000000003B
:1025A000000000000000000000000000000000002B
:0C25B000000000000000000028210000D6
:040000050800045596
:00000001FF
