:020000040800F2
:10000000000200200D040008E9030008990300081D
:1000100000000000000000000000000000000000E0
:100020000000000000000000000000006D03000858
:10003000000000000000000045030008F90300086C
:10004000BD000008BD000008BD000008BD0000089C
:10005000BD000008F9080008F9080008F9080008C0
:10006000BD000008BD000008BD000008BD0000087C
:10007000BD000008BD000008BD000008E510000834
:10008000BD000008BD00000800000000BD00000821
:10009000BD000008BD000008BD000008BD0000084C
:1000A000BD000008BD000008BD000008DD07000815
:1000B000E707000800000000BD00000810B500F0D0
:1000C0009BF910BD7047704770B50C00060000F03A
:1000D0005DFA094B094A1D682C19944202D8084A56
:1000E000944207D20C23012533606D4200F056FA8A
:1000F000280070BD1C60F9E70002002000200020ED
:100100001011002010B51900100000F057FA10BDB2
:1001100010B51900100000F054FA10BD132303604D
:100120000120404270471323036001204042704782
:100130001323036001204042704700230222036022
:100140008A425B41180070470020124B10B51860BE
:10015000114B12491B680A685C421C40104B6343F8
:10016000104CDB0EE35C104C9B001B591B68083BDA
:1001700093420ED0824204D010790A2801D1013076
:1001800010710A221A710622985E084A0B601080CC
:10019000012010BD8402002078020020800200208F
:1001A00031B57C07D62200088C0200207C0200209A
:1001B00030B50379092919D9092B13D804004379DB
:1001C000184A9B009D580834002D0DD02D6885607D
:1001D0009D582C60D45001234479134AA3401468DD
:1001E00023431360017130BD8460F3E7092BF9D913
:1001F00042790C4C92001359002B04D01D68AB427D
:100200000DD1002313514579AB00E358002BE9D100
:100210000133AB40044A14689C432300E1E72A6899
:100220001A60F0E78C0200207802002010B5094B1C
:100230001B681A79092A02D95B79834206D900F032
:10024000B0F9002803D00122034B1A6010BD00F062
:100250006FF8FBE7800200208402002070B50024C4
:1002600000F094F9084B094A1B88094D1BB29B000A
:100270009C50084A210013682868013B1360FFF76F
:1002800097FF2C6000F050F87C020020CC02002088
:100290008002002088020020D318032293431F4AC3
:1002A00010B51C1F2260620703D0083B1C001C4BCA
:1002B00023608022231F52041A601A4A043B1860EC
:1002C000043B1A600022043B1A60043B03321A60AC
:1002D000043B013A1A60043B013A1A60043B19607E
:1002E0000632043B1A60043B013A1A60043B013AAF
:1002F0001A60043B013A1A60043B07321A60043B5F
:10030000013A1A60043B013A1A60043B013A1A6050
:100310002000032344385B42036010BD7777777772
:10032000888888885D02000800F034F901DFFEE764
:100330008023034A5B0551680B4353607047C046F6
:1003400000ED00E0EFF30980EC4685464046494663
:1003500052465B46FFB4704601B46846E546024922
:100360000968086000F002F880020020FFF7ECFE48
:10037000EE46084800680068854601BC8446FFBC1C
:100380008046894692469B46684680F30988F54632
:100390006047000080020020104B114A5933FF33A0
:1003A00010496846904203D8984201D9002102E0E2
:1003B00009468D46012104207246024202D1EFF324
:1003C000088001E0EFF30980F0B443464C465546FF
:1003D0005E4678B46B4600F04DF8C0460000002041
:1003E000002000200002002010B50249042000F087
:1003F0003DFCC0468F24000810B50249062000F0DD
:1004000035FCC046F62200087047704770B5FFF70C
:10041000FBFF6A46104B11499A4214D8002310483A
:100420001049114C1A188A420FD300210F4B104A61
:1004300093420ED3FFF7E9FF00F006FC01F022F82B
:1004400000F048FC70BD02C3E6E7E55804331560D0
:10045000E8E702C3ECE7C04600000020FEE7FEE745
:100460000002002078020020FC250008780200200D
:1004700010110020F0B58DB00A92364A0B93126825
:10048000354B040003919A4202D0344801F098F8A9
:10049000039B002B37D00025314801F091F82E0046
:1004A000304801F08DF80A992F4801F00FF8039BAE
:1004B000002B23D12D4801F083F831002C4801F0A6
:1004C00005F86946234BC91A2A4BC91803D5494276
:1004D000294800F0FBFF0B9B1E00201C8268C368AC
:1004E00001698C4641698E46AD46311CF0C9A04673
:1004F000A946B246BB46F0C94168006801BE1F4923
:10050000052000F0B3FB25002368E76904936368C6
:10051000A6690593A36824350693E36807932369C6
:10052000089363690993BB0500D4043D144801F0A6
:1005300047F8079B059A00930499069B114800F021
:10054000C5FF00973300099A08990F4800F0BEFFD5
:10055000A6E7C04600000020FEE7FEE704230008EF
:100560001A230008DF230008E4230008F62300080C
:1005700027240008A8FEFFFF4F2400087C24000861
:100580004923000864230008A1230008EFF310802A
:1005900072B6704762B6EFF31080704780F3108830
:1005A0007047EFF30580C0B270470023E12110B51A
:1005B0001A004902180000F089F810BD8620404258
:1005C000704710B50C000A000100002000F0E2F8AE
:1005D000200010BD10B5184A002812D0012821D0E3
:1005E0000421002413698B431361FFF7CFFFBFF38E
:1005F0004F8F30BFFFF7D2FF002C01D000F056FC28
:1006000010BD0F200D4B1968814319600E21186829
:1006100001431960596859600423116901240B438F
:100620001361E2E70F24054B1968A14319601968AB
:1006300008431860F0E7C04600ED00E0007000409D
:1006400010B5FFF7A3FF0020FFF7C4FF10BD0000A7
:100650000C234343084A10B59B580400002B02D0DA
:10066000012000F00BFC14235C43044B1B19987C05
:10067000596800F0C1FC10BD500300209C24000804
:10068000142343430E4A70B59C58E569AB0609D55F
:100690000C2358430B4AA18C13181E7A8258314000
:1006A0005868904708231D4202D0226A13432362F0
:1006B000054B1B68002B01D0FFF73AFE70BDC0460A
:1006C0009C2400085003002084020020F7B5050098
:1006D00001910092012803D92A49032000F0C6FAAB
:1006E0000C2114244143284A00986C438850521826
:1006F0005360FF23254E13723419E7680121380037
:1007000000F076F8380000F0D8F8617C380000F08E
:10071000A9F8009B002B08D0A7680421380000F03E
:1007200067F8217C380000F09DF82800FFF790FF63
:1007300014235D430023745976192360B07C6360F1
:10074000A36000F04BFC019900F010FE0F2203099A
:100750001B051B0C10401843009BE060002B0ED0C3
:10076000F37C5AB2002A06DB1F2213401E3A9A403D
:100770001300074A13602D2300202360FEBD0923C8
:10078000FAE7C046C4240008500300209C24000857
:1007900000E100E070B5012803D90E49032000F004
:1007A00065FA142358430C4BC3581868000707D543
:1007B00080248A18914204D14022D9691142FCD088
:1007C00070BD0878DD692542FCD080B21885013102
:1007D000F0E7C046C42400089C24000810B500209F
:1007E000FFF74EFF10BD10B50120FFF749FF10BD08
:1007F000F8B50F230D008021032704000600800AAE
:1008000018408902814002209C431E4000F0F4FB06
:100810003A0070008240D34321681940216021686A
:100820008C4629003940634681401943D3432160F7
:10083000E1680B40E360AB083B408340E1682D0971
:100840000B4301210800B0400D40B540E3606368F0
:1008500083436360636800201D436560A3681A4397
:10086000A260F8BD0F2270B50325040010404600B9
:10087000B54094432368AB4323600223B34025680B
:100880002B430725236085429B41284080008240FE
:1008900081405B429B00E3181C6A94431C621A6A05
:1008A0001143196270BD0F220300104093430E3AAA
:1008B000824010001B69184070470F230200184047
:1008C0009A430E3B8340936170470F230200184008
:1008D0009A4310300E3B83409361704710B504007B
:1008E000FFF7E1FF002803D02000FFF7EEFF10BD67
:1008F0002000FFF7E2FFFAE7F8B5002401270C4DCE
:100900006B692E681E403B00A3401E4206D0094A78
:100910006B61E3009B181A68586890470134102CEB
:10092000F1D1054B1B68002B01D0FFF701FDF8BD8D
:1009300000040140680300208402002010B500205C
:1009400000F092FB10BD0000044B0200186810B5C7
:10095000002802D1010000F069FB10BDE80300206F
:1009600010B5094A1368002B08D09C6881688C4236
:1009700007D303D159684468A14202D903601060CB
:1009800010BD1A001B68EEE7F00300200020F0B550
:10099000214F224E3B68224901333B60214B050029
:1009A0001A68186033680A601900002904D03C688E
:1009B000A4468C6864451AD9002800D03160002D07
:1009C00014D0002129608A4222D01100002B05D0CA
:1009D00050685C681900A04200D811000800126835
:1009E0001B68002A07D103600D4B1960F0BD0D0094
:1009F00001200968D9E7002B01D10260F4E75468AF
:100A00005E681D00B44200D8150005602800E6E7C6
:100A1000034A1360EAE7C046EC030020F00300201D
:100A2000F8030020F4030020F8B501232F4F304DC8
:100A30003B602B68002B07D1FFF7A8FFFFF77EFF75
:100A4000431CFBD0002402E0FFF778FF04002B6872
:100A5000002B0BD1FFF772FF1430844222D9FFF72D
:100A600095FFFFF76BFF8442FBD3EBE75E68FFF770
:100A700065FF844204D8864202D9361A132EE9D87B
:100A80002B685E68FFF75AFF844201D88642F7D888
:100A90002B681A6818692A6000225A609A60DA681E
:100AA0009047D4E72B68002B0CD05E68FFF746FF19
:100AB000143E14308642CAD3002330003B60FFF757
:100AC00043FFF8BDFFF73AFF0600844202D9FFF763
:100AD0005DFFB7E70300153304D9FFF72FFF864208
:100AE000FBD9F4E701267642E6E7C046E80300209A
:100AF000F8030020184A10B513681100834212D180
:100B00001B681360002B04D058681438FFF71CFFD3
:100B100010BD01204042F9E71A68984201D10A60ED
:100B2000F6E719001300002BF6D10C4A1368002BCE
:100B300009D10B4A1368002BEAD01968984205D0F6
:100B40001A000B00F7E71968984201D11160DFE73E
:100B50001A000B00EBE7C046F8030020F403002066
:100B6000F0030020002310B5044A0549180000F0E6
:100B70008DFA01204042FFF7E7FE10BD290A000868
:100B800040420F00F8B504000D00FFF7D7FE002328
:100B9000070023602B1A1E2B0CD8FFF7CFFE8542CF
:100BA000FBD3FFF7CBFE8542FBD8E368206998476B
:100BB0000020F8BDFFF7EAFC63680600002B02D1B5
:100BC000A368002B02D02000FFF794FF28001B4AE7
:100BD000143865601368B8420BD3A3601368A26829
:100BE0009A4208D92000FFF7BBFE3000FFF7D6FC81
:100BF000DEE70133F1E7B8420FD9114A110013685B
:100C0000002B02D05F68BD4214D223600C601368D1
:100C10009C42EAD1FFF798FEE7E70A4A1368002BE7
:100C200002D059688D4202D223601460DDE71A00B9
:100C30001B68F4E719001B68E2E7C046EC030020DC
:100C4000F8030020F403002010B501210448FFF749
:100C5000CFFD01210348FFF7CBFD00F085F910BD62
:100C60000908004808080048704700000D4B10B5FF
:100C70001A680C00002A0ED101321A60032803D131
:100C80007146094800F022FC2100084800F01EFCD3
:100C9000074800F01BFCFFF779FCFFF7E5FFFFF7C3
:100CA000CFFCC046FC030020D6240008DA2400084C
:100CB000F624000810B500F07BFA034800F006FCAB
:100CC00000F046FA002010BD0425000810B500F021
:100CD000BBF8FCE71FB5FFF759FC002480210D4B42
:100CE0000F221B68490002930B4B019400930B48A1
:100CF0000C2300F035F8C021094B07221B68C900FE
:100D00000293084B0194009307480C2300F028F845
:100D1000FFF70AFB04020020CD0C000800040020AD
:100D200008020020B50C00080005002070B50B7902
:100D3000092B03D909490320FFF798FF0A004C79D2
:100D400008320368002B02D18B60026070BD1D0069
:100D5000083D6D79AC42F7D31800F2E7C4240008CF
:100D6000F0B587B005000291039204930F2A30D8A2
:100D700003220B00024003D004239B1AC518CB1A90
:100D80000322303B93430593EC18049B1B0717D4B5
:100D90002D6003E01B600433A342FBD3FFF7F6FB97
:100DA0000123274A0190990056581FB2002E13D0F4
:100DB0000133212BF7D10198FFF7F0FB8B2709E0D6
:100DC0002B00E9E72000FFF7F3F90198FFF7E6FBB6
:100DD00032E016277F422FE08C50059B2A000D99A8
:100DE000E7800C98FFF758FA029B0121E3620E9B03
:100DF000144AA362039B2060637101235B42E36199
:100E00001368656201331360049B2671A660E66077
:100E100026616661A66126620B42D3D10B212000B8
:100E2000FFF7C6F9049B5B07CFD40198FFF7B6FB29
:100E30006B469889FFF7FAF9380007B0F0BDC04655
:100E4000CC02002088020020F8B50B4D02262C6849
:100E500023041B0E02D1E6B2731E9E41FFF796FBE0
:100E60002B6807009C4202D13000FFF7B3FB38002B
:100E7000FFF794FBF8BDC0460C02002070B5094D89
:100E800004002B5CFF2B03D107490320FFF7EEFE84
:100E9000FFF77CFB2B5D0133DBB22B55FFF77EFBAD
:100EA00070BDC0460C020020C424000870B50026A6
:100EB000FFF76CFB1D4D0400AE6000F03DF80C2206
:100EC0006E6069681142FCD11121194A11608122BA
:100ED0002A608022296852020A432A6080229202F4
:100EE00029681142FCD06A6812490A406A60882267
:100EF000696852030A436A608022296852040A43DF
:100F00002A608022920429681142FCD0022269687A
:100F10000A430C216A606A680A40082AFBD100F083
:100F200017F82000FFF73AFB70BDC04600100240E2
:100F300000200240FFFFC0FF0122044B19680A4352
:100F40001A60022219681142FCD07047001002405A
:100F50000C22044B5968114203D001211A688A43BC
:100F60001A6070470010024010B500F025F980218A
:100F70000020490500F040F8FFF798FF0F4B10499B
:100F800002205C6900F038F890230E4ADB051A60F5
:100F90000D4B0E4A210C1A6001230D4A5B4213606F
:100FA0000C4A090413600C4A0220136000F024F874
:100FB000FFF7FBFA00F0B8F810BDC0460010024081
:100FC0000000FFFFFFFFFFAB00040048BFFEFFFF74
:100FD00000080048000C0048001400480048704712
:100FE000006CDC02024B1B5C024858437047C04651
:100FF0004A250008006CDC0201280BD0002804D030
:1010000002280CD0BFF34F8F7047074AD3691943AA
:10101000D161F7E7044A936919439161F2E7024A03
:10102000536919435161EDE70010024010B50329DF
:1010300014DC0C4B0001C4581B185B6800201A40DC
:101040000B000C339B00E3185A6002238B4022698B
:101050009A432261E2681343E36010BD01204042DD
:10106000FBE7C0464C250008024B0001C358586AF4
:101070007047C0464C250008034B0001C2580123AD
:1010800011680B43136070474C25000870B50400CD
:101090000E0000281ED1114980250CC10121FFF747
:1010A000ABFF0123ED055B422C6020006C60EB621E
:1010B000FFF798FF310000F059F901238022013831
:1010C000A8626B61064B120220001A60FFF7D4FF82
:1010D000200070BD01204042FBE7C046000B00200D
:1010E00000E100E0F8B5802400250227E40523692B
:1010F000E6681E403A00AA40324207D0E368290061
:101100009343E360064B1A68586890470135042DF5
:10111000F0D1044B1B68002B01D0FFF709F9F8BD93
:10112000000B0020840200207047000007B500205B
:10113000FFF79AFF019001A8034900F087F80348E0
:10114000FFF7CCFBF7E7C04660E31600090800484C
:1011500010B5012186B01048FFF74AFB01210F4866
:10116000FFF746FB0024C0210D4B062202930D4BD6
:10117000C9000093019408230B48FFF7F1FD2000FC
:10118000FFF772FF059005A8084900F05FF80248D4
:10119000FFF7A4FBF7E7C046080800480908004825
:1011A0005C2500082D110008080B0020C0C62D008A
:1011B00010B5FFF7D7FC10BD184B19491A6AF0B5E6
:1011C00011408022D2030A4380211A62DA69C905DC
:1011D0001202120A0A43DA610322C0250021944652
:1011E000FF27AD0064463E000C40E400A6408A089C
:1011F0000C489200121850590131B0434026A640C5
:10120000304350511F29EDD1102219690A431A6148
:101210008022596992000A435A61F0BD00ED00E056
:10122000FFFF00FF00E100E010B500F079F810BD0D
:1012300070B504000020FFF717FF05000020FFF73E
:1012400013FF401BA042F9D370BD000070B51A4BCC
:1012500086B0060004936B46002005933368009027
:10126000CC18FFF701FF3368834206D9844201D9C5
:10127000A34206D8346006B070BDA34201D88442B0
:10128000F8D9251A3B2D03D82800FFF7D1FFF1E745
:101290000A4B9D4203D80020FFF7E6FE2C180121DF
:1012A000684600F00DF8210001A8FFF76BFC012152
:1012B000684600F005F8DDE729120008FF0100008C
:1012C00070B504000D00FFF761F923680600002BDC
:1012D00006D1013B2360FFF761F90125280070BDAD
:1012E000002D18D00D4B02211D682800FEF760FF6D
:1012F000236801330AD12B00083323600023AB603D
:101300003000FFF74BF9FFF713F8E6E7290020005C
:10131000FFF70CFDF4E7FFF741F9DFE7800200205B
:1013200070B50500FFF732F92C680600002C03D1D8
:101330003000FFF733F970BD631C02D100232B602E
:10134000F6E72368083C2B600B212000FEF730FFF6
:101350002B68002B01D1013B2B6064793000FFF733
:101360001DF92000FEF762FFE5E7000000224308B8
:101370008B4274D303098B425FD3030A8B4244D35D
:10138000030B8B4228D3030C8B420DD3FF2209029F
:1013900012BA030C8B4202D31212090265D0030B5E
:1013A0008B4219D300E0090AC30B8B4201D3CB0354
:1013B000C01A5241830B8B4201D38B03C01A524196
:1013C000430B8B4201D34B03C01A5241030B8B4298
:1013D00001D30B03C01A5241C30A8B4201D3CB0283
:1013E000C01A5241830A8B4201D38B02C01A524168
:1013F000430A8B4201D34B02C01A5241030A8B426B
:1014000001D30B02C01A5241CDD2C3098B4201D382
:10141000CB01C01A524183098B4201D38B01C01A00
:10142000524143098B4201D34B01C01A5241030977
:101430008B4201D30B01C01A5241C3088B4201D326
:10144000CB00C01A524183088B4201D38B00C01AD3
:10145000524143088B4201D34B00C01A5241411AFA
:1014600000D20146524110467047FFE701B5002007
:1014700000F006F802BDC0460029F7D076E77047B5
:101480007047C04670B500260C4D0D4C641BA4106F
:10149000A64209D10026FEF715FE0A4D0A4C641B30
:1014A000A410A64205D170BDB300EB589847013691
:1014B000EEE7B300EB5898470136F2E7FC25000849
:1014C000FC250008FC250008FC2500080FB40B4B88
:1014D00013B51C68002C05D0A369002B02D1200095
:1014E00000F03CFA05AB049AA1682000019300F0DB
:1014F0000DFC16BC08BC04B01847C0461002002002
:1015000070B505000E00002804D08369002B01D1BE
:1015100000F024FAAB69AC68002B02D1280000F07F
:101520001DFA244B9C420FD16C68A3891B0702D57E
:101530002369002B1FD12100280000F0A1F800280A
:1015400019D00120404270BD1B4B9C4201D1AC68B8
:10155000EBE71A4B9C42E8D1EC68E6E70136A36062
:10156000002B04DAA2699A4216DC0A2914D02368F7
:101570005A1C22601970A3683178013B0029EDD113
:10158000A360002B0FDA22000A31280000F022F8B5
:10159000431CD6D00A20D6E72200280000F01AF813
:1015A000431CE8D1CDE70A2023685A1C226018703A
:1015B000C9E7C04688250008A82500086825000856
:1015C00010B5034B01001868FFF79AFF10BDC04625
:1015D00010020020F8B505000E001400002804D009
:1015E0008369002B01D100F0B9F9224B9C422DD127
:1015F0006C68A369A360A3891B0731D52369002BFD
:101600002ED023682269F7B2981A6369F6B2834232
:1016100005DC2100280000F033F9002826D1A3685A
:101620000130013BA36023685A1C22601F7063696C
:10163000834204D0A389DB071AD50A2E18D12100D2
:10164000280000F01DF9002812D00FE00A4B9C4240
:1016500001D1AC68CDE7094B9C42CAD1EC68C8E720
:101660002100280000F00CF80028CAD0012676429C
:101670003000F8BD88250008A82500086825000866
:10168000364B70B51D6806000C00002D05D0AB6907
:10169000002B02D1280000F061F9314B9C420FD1A0
:1016A0006C680C23E25E93B219072DD4D90611D4CD
:1016B00009230120336037331343A381404270BDB7
:1016C000284B9C4201D1AC68EBE7274B9C42E8D108
:1016D000EC68E6E75B0713D5616B002908D02300AF
:1016E0004433994202D0300000F040FA0023636393
:1016F0002422A3899343A381002363602369236089
:101700000823A2891343A3812369002B0BD1A021B5
:101710008022A389890092000B40934203D02100CC
:10172000300000F0D7F90123A289134011D0002323
:10173000A36063695B42A361002023698342BED139
:101740000C23E25E1306BAD540231343A38101386C
:10175000B5E7920700D46369A360EDE710020020AB
:1017600088250008A825000868250008F7B58A899B
:1017700005000C00130760D44B68002B04DC0B6CD5
:10178000002B01DC0020FEBDE76A002FFAD0002309
:101790002E682B6080235B01216A1A4034D0606D73
:1017A000A3895B0706D56368C01A636B002B01D061
:1017B000236CC01A0200216A00232800E76AB84798
:1017C000A189431C06D12B681D2B30D82B4ADA4047
:1017D000D3072CD50023636023692360CB0405D590
:1017E000431C02D12B68002B00D16065616B2E6019
:1017F0000029C7D023004433994202D0280000F0CA
:10180000B5F900206063BEE701232800B847431CF8
:10181000C6D12B68002BC3D01D2B01D0162B01D1B4
:101820002E60AFE74023A2891343A381ABE7402397
:101830000B430120A3814042A5E70F69002FA1D0EF
:101840000B680F60DB1B01930023920700D14B69EB
:10185000A360019B002B00DC94E7019B3A00216A06
:101860002800A66AB047002803DC4023A28913435E
:10187000DFE7019B3F181B1A0193EAE701004020B4
:101880000B6970B505000C00002B01D1002070BD64
:10189000002804D08369002B01D100F05FF80B4BC6
:1018A0009C4209D16C680C22A35E002BEED0210073
:1018B0002800FFF75BFFEAE7054B9C4201D1AC68CB
:1018C000F1E7044B9C42EED1EC68ECE78825000878
:1018D000A825000868250008002310B5040003604F
:1018E0004360836081814366C28103614361836198
:1018F000190008225C3000F031F9054B2462636264
:10190000044BA362044BE362044B236310BDC04647
:10191000252200084D22000885220008B122000877
:1019200010B5024900F08CF810BDC04681180008BF
:1019300070B568254A1E55430E002900743100F029
:101940005FF9041E08D000212A00016046600C30B7
:10195000A060683200F002F9200070BD836913B501
:101960000400002B28D18364C3640365134B144A1D
:101970001B6882620193984201D101238361200098
:1019800000F020F86060200000F01CF8A06020004B
:1019900000F018F80022E06004216068FFF79CFF67
:1019A00001220921A068FFF797FF02221221E068B7
:1019B000FFF792FF0123A36113BDC0466425000811
:1019C00021190008F8B51C4B07001E68B369002BED
:1019D00002D13000FFF7C2FF4836B4687368013B9C
:1019E00004D53368002B07D03668F6E70C22A55ED5
:1019F000002D0DD06834F2E704213800FFF798FF7E
:101A000030600028F0D10C2304003B602000F8BDBA
:101A100020000A4B656625606560A560E36025616E
:101A20006561A561082229005C3000F097F86563C4
:101A3000A563A564E564E9E7642500080100FFFFEC
:101A4000F7B504000700002601914834002C01D1AD
:101A50003000FEBD6368A5680093009B013B0093C6
:101A600001D52468F2E7AB89012B08D90E22AB5EC1
:101A7000013304D029003800019B9847064368359C
:101A8000EBE7000070B50E001D000E23C95E96B096
:101A90001400002907DA00232B60B3891B0611D438
:101AA0008023DB000FE06A46FEF742FB0028F2DBF2
:101AB000F022019B12021340054A9B185A425341DF
:101AC0002B60EDE740230020236016B070BDC046B8
:101AD00000E0FFFFF7B502268B8905000C003342BA
:101AE00006D0230047332360236101236361F7BDE0
:101AF00001AB6A46FFF7C6FF00990700280000F017
:101B00007FF8002808D10C22A35E9A05EFD40322A7
:101B100093431E43A681E4E70F4BAB628023A28967
:101B200020601343A381009B20616361019B002B14
:101B30000DD00E23E15E2800FEF7FFFA002806D044
:101B40000322A38993431A0001231343A381A0898D
:101B50003843A081CBE7C0462119000803001218C2
:101B6000934200D1704719700133F9E770B5050051
:101B7000002910D00C1F2368002B00DAE41828007D
:101B800000F0A7FB1D4A1368002B05D163601460A9
:101B9000280000F09FFB70BDA34209D9216860189E
:101BA0008342F3D118685B6841182160EEE71300A7
:101BB0005A68002A01D0A242F9D919685818A042DF
:101BC0000BD120680918581819608242E0D11068BA
:101BD0005268411819605A60DAE7A04202D90C2312
:101BE0002B60D5E721686018824203D110685268E3
:101BF0004118216062605C60CAE7C046081100209D
:101C0000032370B5CD1C9D43083506000C2D1ED254
:101C10000C25A9421DD8300000F05BFB254A146852
:101C20002100002919D1244C2368002B03D1300056
:101C3000FEF74AFA206029003000FEF745FA431CFF
:101C40002BD10C233000336000F044FB03E0002D67
:101C5000DFDA0C233360002070BD0B685B1B19D4E6
:101C60000B2B03D90B60CC18256003E04B688C422A
:101C70000DD11360300000F02DFB200007220B3047
:101C8000231D9043C31AE7D05A42E250E4E7636051
:101C90000C00EFE70C004968C3E70323C41C9C4316
:101CA000A042E1D0211A3000FEF70EFA431CDBD12E
:101CB000C7E7C046081100200C110020936810B53A
:101CC000013B9360002B04DA9469A34207DB0A29E5
:101CD00005D01368581C10601970080010BDFFF77C
:101CE00079FC0100F9E7F8B506000F001400D518DB
:101CF000AC4201D1002007E021783A003000FFF724
:101D0000DDFF0134431CF3D1F8BD0000F0B5A1B0F4
:101D100003900F0016001D00002805D0836905936D
:101D2000002B01D1FFF71AFE7B4B9F425CD1039B36
:101D30005F68BB891B0763D53B69002B60D000231C
:101D400008AC6361203363761033A37607953500C2
:101D50002B78002B01D0252B5CD1AB1B05930CD02D
:101D6000320039000398FFF7BEFF431C00D1C4E0E6
:101D70006269059B9446634463612B78002B00D114
:101D8000BBE0012200235242626004A9543252187F
:101D90006E1C2360E360A3601370A3653178052295
:101DA0005E4800F08BFA751C002835D12268D306F6
:101DB00004D5532304A95B1820211970130704D5F7
:101DC000532304A95B182B21197033782A2B2CD0AC
:101DD000350000210A20E3682A786E1C303A092A6F
:101DE00064D900292ED026E04D4B9F4202D1039B9F
:101DF0009F689EE74B4B9F429BD1039BDF6898E710
:101E000039000398FFF73CFC002898D0012040429D
:101E100021B0F0BD01359BE7404B2268C01A012379
:101E20008340134323602E00B8E7079B191D1B68EE
:101E30000791002B01DB0B9304E05B42E36002237C
:101E4000134323602B782E2B0AD16B782A2B35D1A4
:101E5000079B02351A1D1B680792002B2BDB099389
:101E6000314E29780322300000F028FA002806D0ED
:101E70004023801B83402268013513432360297867
:101E800006222A486E1C217600F018FA00283AD063
:101E9000274B002B25D10722079B07339343083399
:101EA00007936369049A9B18636150E743430121D8
:101EB0009B18350090E701235B42D0E700230A20FE
:101EC0001A000135636029786E1C3039092903D95D
:101ED000002BC5D00992C3E74243012352183500B5
:101EE000F1E707AB00933A00124B2100039800E0A2
:101EF00000BF0490049B0133D3D1BB895B0600D59E
:101F000084E70D9884E707AB00933A00094B210062
:101F1000039800F07FF8ECE788250008C825000842
:101F2000A825000868250008CE250008D22500084D
:101F300000000000E71C0008F7B5150001938A684F
:101F40000B6900900C00934200DA130022002B6012
:101F500043321278002A01D001332B6023689B069C
:101F600002D52B6802332B60062723681F4027D039
:101F7000230043331B785A1E93412268920630D4C3
:101F80002200019943320098089EB047431C25D097
:101F9000062320682A68E16803400025042B03D14A
:101FA0008D1AEB43DB171D40A3682269934201DDC4
:101FB0009B1AED180027BD4220D1002010E0013708
:101FC000E3682A689B1ABB42D2DD22000123193242
:101FD00001990098089EB047431CF0D1012040426F
:101FE000FEBD3020E1184331087021005A1C4531F4
:101FF0000978A218433202331170C1E7220001238D
:102000001A3201990098089EB047431CE6D0013768
:10201000D1E70000F0B589B004920A00433205937D
:10202000039002920A7E0C000E9B6E2A00D186E07D
:102030001FD8632A33D008D8002A00D18CE0582A50
:102040004DD0250042352A7030E0642A01D0692A3B
:10205000F7D1196825680A1D280629D508681A606D
:10206000002803DA2D23029A404213706B4E0A2790
:102070004FE0732A74D008D86F2A1FD0702AE0D19D
:10208000202209680A43226003E0752A16D0782AC4
:10209000D7D12200782145321170614E22E025000F
:1020A0001A684235111D196013682B70012365E011
:1020B00008681A606906D3D500B2D1E719682568A7
:1020C000081D186008682E0605D5544E08276F2A8B
:1020D0001BD00A2719E06D06F7D580B2F5E7453128
:1020E0004E4E0A7018682268011D006819601506B6
:1020F00021D5D30702D520231A43226010270028B8
:1021000003D1202322689A43226023000022433314
:102110001A706368A360002B58DB04222168914386
:102120002160002854D1029D002B5AD0250033781D
:1021300042352B7055E05506DBD580B2D9E71A68D9
:102140000D68101D4969186013682E0601D51960C5
:1021500002E06D06FBD519800023029D23614FE04C
:102160001A68111D1960156800216268280000F0C6
:10217000A5F8002801D0401B60606368236100233C
:10218000029A13703CE023692A0004990398059D84
:10219000A847431C3ED023689B0715D4079BE068E3
:1021A000984239DA180037E02200012319320499E5
:1021B0000398059EB047431C2CD00135E368079A6D
:1021C0009B1AAB42F0DCE9E70025F7E70028ADD029
:1021D000029D3900FFF750F9735C013D2B70002818
:1021E000F7D1082F09D12368DB0706D56368226978
:1021F000934202DC3023013D2B70029B5B1B236169
:10220000059B07AA00932100049B0398FFF794FE07
:10221000431CB8D10120404209B0F0BDD9250008C7
:10222000EA25000870B50C000E25495FFDF76AFF2E
:10223000002803DB636D1B18636570BDA389024A28
:102240001340A381F9E7C046FFEFFFFFF8B51F0079
:102250008B8905000C001600DB0505D50E23C95E31
:1022600000220223FDF75FFFA389054A28001340DF
:10227000A38132000E23E15E3B00FDF749FFF8BD6C
:10228000FFEFFFFF70B50C000E25495FFDF74BFF18
:10229000A389421C03D1054A1340A38170BD80224B
:1022A00052011343A3816065F8E7C046FFEFFFFFCB
:1022B00010B50E23C95EFDF731FF10BDC9B28218FB
:1022C000904201D10020704703788B42FBD001304F
:1022D000F6E77047704700011C021D0E18031E161A
:1022E000140F191104081F1B0D17151310071A0CD2
:1022F00012060B050A0944554D4D592048414E44DC
:102300004C4552000A49535220737461636B206F2D
:10231000766572666C6F77656400537461636B20D9
:10232000706F696E74657220636F72727570746518
:10233000642C20726573657420746F20746F702034
:102340006F6620737461636B000A436F6E74657807
:1023500074206265666F726520686172646661757B
:102360006C743A0020202072303A203078253038C2
:102370006C780A20202072313A2030782530386C71
:10238000780A20202072323A2030782530386C7854
:102390000A20202072333A2030782530386C780AB1
:1023A0000020207231323A2030782530386C780A9B
:1023B0002020206C723A2030782530386C780A2042
:1023C000202070633A2030782530386C780A20203D
:1023D0007073723A2030782530386C780A0A004DD4
:1023E000697363004558435F5245543A203078255D
:1023F00030386C780A00417474656D7074696E676A
:1024000020746F207265636F6E73747275637420CD
:10241000737461746520666F7220646562756767A6
:10242000696E672E2E2E00496E204744423A0A20DC
:1024300020736574202470633D3078256C780A2001
:10244000206672616D6520300A202062740A000ADD
:1024500049535220737461636B206F766572666CAA
:102460006F776564206279206174206C6561737494
:102470002025642062797465732E0A004841524415
:10248000204641554C542048414E444C4552004E44
:102490004D492048414E444C45520000003801400F
:1024A0000040000007040048060400480000011B2B
:1024B0000044004000000200030000480200004801
:1024C0000101001C4641494C4544204153534552AB
:1024D00054494F4E2E0025700A002A2A2A205249BC
:1024E0004F54206B65726E656C2070616E69633A43
:1024F0000A25730A0A002A2A2A2068616C74656416
:102500002E0A0A006D61696E28293A2054686973A1
:102510002069732052494F542120285665727369EF
:102520006F6E3A20323031392E31302D6465766548
:102530006C2D313033332D673537656461290A00DE
:1025400069646C65006D61696E0001010000004006
:10255000FFFFFFFF01000000000F000074687265BC
:102560006164000014020020000000000000000070
:10257000000000000000000000000000000000005B
:10258000000000000000000000000000000000004B
:10259000000000000000000000000000000000003B
:1025A000000000000000000000000000000000002B
:1025B000000000000000000000000000000000001B
:1025C0000000000000000000232D302B2000686C6C
:1025D0004C00656667454647003031323334353646
:1025E000373839414243444546003031323334357F
:0C25F000363738396162636465660000AC
:1025FC0014110020402500084525000801010101A7
:10260C00140200200000000088250008A8250008FE
:10261C006825000800000000000000000000000019
:10262C00000000000000000000000000000000009E
:10263C00000000000000000000000000000000008E
:10264C00000000000000000000000000000000007E
:10265C00000000000000000000000000000000006E
:08266C0000000000282100001D
:040000050800040DDE
:00000001FF
